{
  "contractName": "ZombieFeeding",
  "abi": [
    {
      "inputs": [
        {
          "internalType": "address",
          "name": "initialOwner",
          "type": "address"
        },
        {
          "internalType": "string",
          "name": "name_",
          "type": "string"
        },
        {
          "internalType": "string",
          "name": "symbol_",
          "type": "string"
        }
      ],
      "stateMutability": "nonpayable",
      "type": "constructor"
    },
    {
      "inputs": [
        {
          "internalType": "address",
          "name": "sender",
          "type": "address"
        },
        {
          "internalType": "uint256",
          "name": "tokenId",
          "type": "uint256"
        },
        {
          "internalType": "address",
          "name": "owner",
          "type": "address"
        }
      ],
      "name": "ERC721IncorrectOwner",
      "type": "error"
    },
    {
      "inputs": [
        {
          "internalType": "address",
          "name": "operator",
          "type": "address"
        },
        {
          "internalType": "uint256",
          "name": "tokenId",
          "type": "uint256"
        }
      ],
      "name": "ERC721InsufficientApproval",
      "type": "error"
    },
    {
      "inputs": [
        {
          "internalType": "address",
          "name": "approver",
          "type": "address"
        }
      ],
      "name": "ERC721InvalidApprover",
      "type": "error"
    },
    {
      "inputs": [
        {
          "internalType": "address",
          "name": "operator",
          "type": "address"
        }
      ],
      "name": "ERC721InvalidOperator",
      "type": "error"
    },
    {
      "inputs": [
        {
          "internalType": "address",
          "name": "owner",
          "type": "address"
        }
      ],
      "name": "ERC721InvalidOwner",
      "type": "error"
    },
    {
      "inputs": [
        {
          "internalType": "address",
          "name": "receiver",
          "type": "address"
        }
      ],
      "name": "ERC721InvalidReceiver",
      "type": "error"
    },
    {
      "inputs": [
        {
          "internalType": "address",
          "name": "sender",
          "type": "address"
        }
      ],
      "name": "ERC721InvalidSender",
      "type": "error"
    },
    {
      "inputs": [
        {
          "internalType": "uint256",
          "name": "tokenId",
          "type": "uint256"
        }
      ],
      "name": "ERC721NonexistentToken",
      "type": "error"
    },
    {
      "inputs": [
        {
          "internalType": "address",
          "name": "owner",
          "type": "address"
        }
      ],
      "name": "OwnableInvalidOwner",
      "type": "error"
    },
    {
      "inputs": [
        {
          "internalType": "address",
          "name": "account",
          "type": "address"
        }
      ],
      "name": "OwnableUnauthorizedAccount",
      "type": "error"
    },
    {
      "anonymous": false,
      "inputs": [
        {
          "indexed": true,
          "internalType": "address",
          "name": "owner",
          "type": "address"
        },
        {
          "indexed": true,
          "internalType": "address",
          "name": "approved",
          "type": "address"
        },
        {
          "indexed": true,
          "internalType": "uint256",
          "name": "tokenId",
          "type": "uint256"
        }
      ],
      "name": "Approval",
      "type": "event"
    },
    {
      "anonymous": false,
      "inputs": [
        {
          "indexed": true,
          "internalType": "address",
          "name": "owner",
          "type": "address"
        },
        {
          "indexed": true,
          "internalType": "address",
          "name": "operator",
          "type": "address"
        },
        {
          "indexed": false,
          "internalType": "bool",
          "name": "approved",
          "type": "bool"
        }
      ],
      "name": "ApprovalForAll",
      "type": "event"
    },
    {
      "anonymous": false,
      "inputs": [
        {
          "indexed": false,
          "internalType": "uint256",
          "name": "zombieId",
          "type": "uint256"
        },
        {
          "indexed": false,
          "internalType": "string",
          "name": "name",
          "type": "string"
        },
        {
          "indexed": false,
          "internalType": "uint256",
          "name": "dna",
          "type": "uint256"
        }
      ],
      "name": "NewZombie",
      "type": "event"
    },
    {
      "anonymous": false,
      "inputs": [
        {
          "indexed": true,
          "internalType": "address",
          "name": "previousOwner",
          "type": "address"
        },
        {
          "indexed": true,
          "internalType": "address",
          "name": "newOwner",
          "type": "address"
        }
      ],
      "name": "OwnershipTransferred",
      "type": "event"
    },
    {
      "anonymous": false,
      "inputs": [
        {
          "indexed": true,
          "internalType": "address",
          "name": "from",
          "type": "address"
        },
        {
          "indexed": true,
          "internalType": "address",
          "name": "to",
          "type": "address"
        },
        {
          "indexed": true,
          "internalType": "uint256",
          "name": "tokenId",
          "type": "uint256"
        }
      ],
      "name": "Transfer",
      "type": "event"
    },
    {
      "inputs": [
        {
          "internalType": "address",
          "name": "to",
          "type": "address"
        },
        {
          "internalType": "uint256",
          "name": "tokenId",
          "type": "uint256"
        }
      ],
      "name": "approve",
      "outputs": [],
      "stateMutability": "nonpayable",
      "type": "function"
    },
    {
      "inputs": [
        {
          "internalType": "address",
          "name": "owner",
          "type": "address"
        }
      ],
      "name": "balanceOf",
      "outputs": [
        {
          "internalType": "uint256",
          "name": "",
          "type": "uint256"
        }
      ],
      "stateMutability": "view",
      "type": "function"
    },
    {
      "inputs": [
        {
          "internalType": "string",
          "name": "_name",
          "type": "string"
        }
      ],
      "name": "createRandomZombie",
      "outputs": [],
      "stateMutability": "nonpayable",
      "type": "function"
    },
    {
      "inputs": [
        {
          "internalType": "uint256",
          "name": "tokenId",
          "type": "uint256"
        }
      ],
      "name": "getApproved",
      "outputs": [
        {
          "internalType": "address",
          "name": "",
          "type": "address"
        }
      ],
      "stateMutability": "view",
      "type": "function"
    },
    {
      "inputs": [
        {
          "internalType": "address",
          "name": "owner",
          "type": "address"
        },
        {
          "internalType": "address",
          "name": "operator",
          "type": "address"
        }
      ],
      "name": "isApprovedForAll",
      "outputs": [
        {
          "internalType": "bool",
          "name": "",
          "type": "bool"
        }
      ],
      "stateMutability": "view",
      "type": "function"
    },
    {
      "inputs": [],
      "name": "name",
      "outputs": [
        {
          "internalType": "string",
          "name": "",
          "type": "string"
        }
      ],
      "stateMutability": "view",
      "type": "function"
    },
    {
      "inputs": [],
      "name": "owner",
      "outputs": [
        {
          "internalType": "address",
          "name": "",
          "type": "address"
        }
      ],
      "stateMutability": "view",
      "type": "function"
    },
    {
      "inputs": [
        {
          "internalType": "uint256",
          "name": "tokenId",
          "type": "uint256"
        }
      ],
      "name": "ownerOf",
      "outputs": [
        {
          "internalType": "address",
          "name": "",
          "type": "address"
        }
      ],
      "stateMutability": "view",
      "type": "function"
    },
    {
      "inputs": [],
      "name": "renounceOwnership",
      "outputs": [],
      "stateMutability": "nonpayable",
      "type": "function"
    },
    {
      "inputs": [
        {
          "internalType": "address",
          "name": "from",
          "type": "address"
        },
        {
          "internalType": "address",
          "name": "to",
          "type": "address"
        },
        {
          "internalType": "uint256",
          "name": "tokenId",
          "type": "uint256"
        }
      ],
      "name": "safeTransferFrom",
      "outputs": [],
      "stateMutability": "nonpayable",
      "type": "function"
    },
    {
      "inputs": [
        {
          "internalType": "address",
          "name": "from",
          "type": "address"
        },
        {
          "internalType": "address",
          "name": "to",
          "type": "address"
        },
        {
          "internalType": "uint256",
          "name": "tokenId",
          "type": "uint256"
        },
        {
          "internalType": "bytes",
          "name": "data",
          "type": "bytes"
        }
      ],
      "name": "safeTransferFrom",
      "outputs": [],
      "stateMutability": "nonpayable",
      "type": "function"
    },
    {
      "inputs": [
        {
          "internalType": "address",
          "name": "operator",
          "type": "address"
        },
        {
          "internalType": "bool",
          "name": "approved",
          "type": "bool"
        }
      ],
      "name": "setApprovalForAll",
      "outputs": [],
      "stateMutability": "nonpayable",
      "type": "function"
    },
    {
      "inputs": [
        {
          "internalType": "bytes4",
          "name": "interfaceId",
          "type": "bytes4"
        }
      ],
      "name": "supportsInterface",
      "outputs": [
        {
          "internalType": "bool",
          "name": "",
          "type": "bool"
        }
      ],
      "stateMutability": "view",
      "type": "function"
    },
    {
      "inputs": [],
      "name": "symbol",
      "outputs": [
        {
          "internalType": "string",
          "name": "",
          "type": "string"
        }
      ],
      "stateMutability": "view",
      "type": "function"
    },
    {
      "inputs": [
        {
          "internalType": "uint256",
          "name": "tokenId",
          "type": "uint256"
        }
      ],
      "name": "tokenURI",
      "outputs": [
        {
          "internalType": "string",
          "name": "",
          "type": "string"
        }
      ],
      "stateMutability": "view",
      "type": "function"
    },
    {
      "inputs": [
        {
          "internalType": "address",
          "name": "from",
          "type": "address"
        },
        {
          "internalType": "address",
          "name": "to",
          "type": "address"
        },
        {
          "internalType": "uint256",
          "name": "tokenId",
          "type": "uint256"
        }
      ],
      "name": "transferFrom",
      "outputs": [],
      "stateMutability": "nonpayable",
      "type": "function"
    },
    {
      "inputs": [
        {
          "internalType": "address",
          "name": "newOwner",
          "type": "address"
        }
      ],
      "name": "transferOwnership",
      "outputs": [],
      "stateMutability": "nonpayable",
      "type": "function"
    },
    {
      "inputs": [
        {
          "internalType": "uint256",
          "name": "",
          "type": "uint256"
        }
      ],
      "name": "zombies",
      "outputs": [
        {
          "internalType": "string",
          "name": "name",
          "type": "string"
        },
        {
          "internalType": "uint256",
          "name": "dna",
          "type": "uint256"
        },
        {
          "internalType": "uint32",
          "name": "level",
          "type": "uint32"
        },
        {
          "internalType": "uint32",
          "name": "readyTime",
          "type": "uint32"
        },
        {
          "internalType": "uint16",
          "name": "winCount",
          "type": "uint16"
        },
        {
          "internalType": "uint16",
          "name": "lossCount",
          "type": "uint16"
        }
      ],
      "stateMutability": "view",
      "type": "function"
    },
    {
      "inputs": [
        {
          "internalType": "uint256",
          "name": "_zombieId",
          "type": "uint256"
        },
        {
          "internalType": "string",
          "name": "_nameForDNA",
          "type": "string"
        }
      ],
      "name": "feedOnKitty",
      "outputs": [],
      "stateMutability": "nonpayable",
      "type": "function"
    }
  ],
  "bytecode": "0x60806040526010600755600754600a6200001a91906200035a565b6008556201518060095534801562000030575f80fd5b50604051620034d1380380620034d1833981810160405281019062000056919062000590565b8282828181845f73ffffffffffffffffffffffffffffffffffffffff168173ffffffffffffffffffffffffffffffffffffffff1603620000cf575f6040517f1e4fbdf7000000000000000000000000000000000000000000000000000000008152600401620000c6919062000638565b60405180910390fd5b620000e0816200011360201b60201c565b508160019081620000f2919062000881565b50806002908162000104919062000881565b50505050505050505062000965565b5f805f9054906101000a900473ffffffffffffffffffffffffffffffffffffffff169050815f806101000a81548173ffffffffffffffffffffffffffffffffffffffff021916908373ffffffffffffffffffffffffffffffffffffffff1602179055508173ffffffffffffffffffffffffffffffffffffffff168173ffffffffffffffffffffffffffffffffffffffff167f8be0079c531659141344cd1fd0a4f28419497f9722a3daafe3b4186f6b6457e060405160405180910390a35050565b7f4e487b71000000000000000000000000000000000000000000000000000000005f52601160045260245ffd5b5f8160011c9050919050565b5f808291508390505b60018511156200025e57808604811115620002365762000235620001d4565b5b6001851615620002465780820291505b8081029050620002568562000201565b945062000216565b94509492505050565b5f826200027857600190506200034a565b8162000287575f90506200034a565b8160018114620002a05760028114620002ab57620002e1565b60019150506200034a565b60ff841115620002c057620002bf620001d4565b5b8360020a915084821115620002da57620002d9620001d4565b5b506200034a565b5060208310610133831016604e8410600b84101617156200031b5782820a905083811115620003155762000314620001d4565b5b6200034a565b6200032a84848460016200020d565b92509050818404811115620003445762000343620001d4565b5b81810290505b9392505050565b5f819050919050565b5f620003668262000351565b9150620003738362000351565b9250620003a27fffffffffffffffffffffffffffffffffffffffffffffffffffffffffffffffff848462000267565b905092915050565b5f604051905090565b5f80fd5b5f80fd5b5f73ffffffffffffffffffffffffffffffffffffffff82169050919050565b5f620003e682620003bb565b9050919050565b620003f881620003da565b811462000403575f80fd5b50565b5f815190506200041681620003ed565b92915050565b5f80fd5b5f80fd5b5f601f19601f8301169050919050565b7f4e487b71000000000000000000000000000000000000000000000000000000005f52604160045260245ffd5b6200046c8262000424565b810181811067ffffffffffffffff821117156200048e576200048d62000434565b5b80604052505050565b5f620004a2620003aa565b9050620004b0828262000461565b919050565b5f67ffffffffffffffff821115620004d257620004d162000434565b5b620004dd8262000424565b9050602081019050919050565b5f5b8381101562000509578082015181840152602081019050620004ec565b5f8484015250505050565b5f6200052a6200052484620004b5565b62000497565b90508281526020810184848401111562000549576200054862000420565b5b62000556848285620004ea565b509392505050565b5f82601f8301126200057557620005746200041c565b5b81516200058784826020860162000514565b91505092915050565b5f805f60608486031215620005aa57620005a9620003b3565b5b5f620005b98682870162000406565b935050602084015167ffffffffffffffff811115620005dd57620005dc620003b7565b5b620005eb868287016200055e565b925050604084015167ffffffffffffffff8111156200060f576200060e620003b7565b5b6200061d868287016200055e565b9150509250925092565b6200063281620003da565b82525050565b5f6020820190506200064d5f83018462000627565b92915050565b5f81519050919050565b7f4e487b71000000000000000000000000000000000000000000000000000000005f52602260045260245ffd5b5f6002820490506001821680620006a257607f821691505b602082108103620006b857620006b76200065d565b5b50919050565b5f819050815f5260205f209050919050565b5f6020601f8301049050919050565b5f82821b905092915050565b5f600883026200071c7fffffffffffffffffffffffffffffffffffffffffffffffffffffffffffffffff82620006df565b620007288683620006df565b95508019841693508086168417925050509392505050565b5f819050919050565b5f62000769620007636200075d8462000351565b62000740565b62000351565b9050919050565b5f819050919050565b620007848362000749565b6200079c620007938262000770565b848454620006eb565b825550505050565b5f90565b620007b2620007a4565b620007bf81848462000779565b505050565b5b81811015620007e657620007da5f82620007a8565b600181019050620007c5565b5050565b601f8211156200083557620007ff81620006be565b6200080a84620006d0565b810160208510156200081a578190505b620008326200082985620006d0565b830182620007c4565b50505b505050565b5f82821c905092915050565b5f620008575f19846008026200083a565b1980831691505092915050565b5f62000871838362000846565b9150826002028217905092915050565b6200088c8262000653565b67ffffffffffffffff811115620008a857620008a762000434565b5b620008b482546200068a565b620008c1828285620007ea565b5f60209050601f831160018114620008f7575f8415620008e2578287015190505b620008ee858262000864565b8655506200095d565b601f1984166200090786620006be565b5f5b82811015620009305784890151825560018201915060208501945060208101905062000909565b868310156200095057848901516200094c601f89168262000846565b8355505b6001600288020188555050505b505050505050565b612b5e80620009735f395ff3fe608060405234801561000f575f80fd5b506004361061011f575f3560e01c806370a08231116100ab578063a22cb4651161006f578063a22cb46514610308578063b88d4fde14610324578063c87b56dd14610340578063e985e9c514610370578063f2fde38b146103a05761011f565b806370a0823114610276578063715018a6146102a65780637bff0a01146102b05780638da5cb5b146102cc57806395d89b41146102ea5761011f565b80632052465e116100f25780632052465e146101bd57806323b872dd146101f257806342842e0e1461020e5780634b95f8151461022a5780636352211e146102465761011f565b806301ffc9a71461012357806306fdde0314610153578063081812fc14610171578063095ea7b3146101a1575b5f80fd5b61013d60048036038101906101389190611dd4565b6103bc565b60405161014a9190611e19565b60405180910390f35b61015b61049d565b6040516101689190611ebc565b60405180910390f35b61018b60048036038101906101869190611f0f565b61052d565b6040516101989190611f79565b60405180910390f35b6101bb60048036038101906101b69190611fbc565b610548565b005b6101d760048036038101906101d29190611f0f565b61055e565b6040516101e996959493929190612043565b60405180910390f35b61020c600480360381019061020791906120a9565b610666565b005b610228600480360381019061022391906120a9565b610765565b005b610244600480360381019061023f9190612225565b610784565b005b610260600480360381019061025b9190611f0f565b6107d5565b60405161026d9190611f79565b60405180910390f35b610290600480360381019061028b919061227f565b6107e6565b60405161029d91906122aa565b60405180910390f35b6102ae61089c565b005b6102ca60048036038101906102c591906122c3565b6108af565b005b6102d46108f6565b6040516102e19190611f79565b60405180910390f35b6102f261091d565b6040516102ff9190611ebc565b60405180910390f35b610322600480360381019061031d9190612334565b6109ad565b005b61033e60048036038101906103399190612410565b6109c3565b005b61035a60048036038101906103559190611f0f565b6109e0565b6040516103679190611ebc565b60405180910390f35b61038a60048036038101906103859190612490565b610a46565b6040516103979190611e19565b60405180910390f35b6103ba60048036038101906103b5919061227f565b610ad4565b005b5f7f80ac58cd000000000000000000000000000000000000000000000000000000007bffffffffffffffffffffffffffffffffffffffffffffffffffffffff1916827bffffffffffffffffffffffffffffffffffffffffffffffffffffffff1916148061048657507f5b5e139f000000000000000000000000000000000000000000000000000000007bffffffffffffffffffffffffffffffffffffffffffffffffffffffff1916827bffffffffffffffffffffffffffffffffffffffffffffffffffffffff1916145b80610496575061049582610b58565b5b9050919050565b6060600180546104ac906124fb565b80601f01602080910402602001604051908101604052809291908181526020018280546104d8906124fb565b80156105235780601f106104fa57610100808354040283529160200191610523565b820191905f5260205f20905b81548152906001019060200180831161050657829003601f168201915b5050505050905090565b5f61053782610bc1565b5061054182610c47565b9050919050565b61055a8282610555610c80565b610c87565b5050565b600a818154811061056d575f80fd5b905f5260205f2090600302015f91509050805f01805461058c906124fb565b80601f01602080910402602001604051908101604052809291908181526020018280546105b8906124fb565b80156106035780601f106105da57610100808354040283529160200191610603565b820191905f5260205f20905b8154815290600101906020018083116105e657829003601f168201915b505050505090806001015490806002015f9054906101000a900463ffffffff16908060020160049054906101000a900463ffffffff16908060020160089054906101000a900461ffff169080600201600a9054906101000a900461ffff16905086565b5f73ffffffffffffffffffffffffffffffffffffffff168273ffffffffffffffffffffffffffffffffffffffff16036106d6575f6040517f64a0ae920000000000000000000000000000000000000000000000000000000081526004016106cd9190611f79565b60405180910390fd5b5f6106e983836106e4610c80565b610c99565b90508373ffffffffffffffffffffffffffffffffffffffff168173ffffffffffffffffffffffffffffffffffffffff161461075f578382826040517f64283d7b0000000000000000000000000000000000000000000000000000000081526004016107569392919061252b565b60405180910390fd5b50505050565b61077f83838360405180602001604052805f8152506109c3565b505050565b5f61078e82610ea4565b90506107d083826040518060400160405280600581526020017f6b69747479000000000000000000000000000000000000000000000000000000815250610ee7565b505050565b5f6107df82610bc1565b9050919050565b5f8073ffffffffffffffffffffffffffffffffffffffff168273ffffffffffffffffffffffffffffffffffffffff1603610857575f6040517f89c62b6400000000000000000000000000000000000000000000000000000000815260040161084e9190611f79565b60405180910390fd5b60045f8373ffffffffffffffffffffffffffffffffffffffff1673ffffffffffffffffffffffffffffffffffffffff1681526020019081526020015f20549050919050565b6108a4611052565b6108ad5f6110d9565b565b5f6108b9336107e6565b146108c2575f80fd5b5f6108cc82610ea4565b90506064816108db919061258d565b816108e691906125ea565b90506108f2828261119a565b5050565b5f805f9054906101000a900473ffffffffffffffffffffffffffffffffffffffff16905090565b60606002805461092c906124fb565b80601f0160208091040260200160405190810160405280929190818152602001828054610958906124fb565b80156109a35780601f1061097a576101008083540402835291602001916109a3565b820191905f5260205f20905b81548152906001019060200180831161098657829003601f168201915b5050505050905090565b6109bf6109b8610c80565b8383611323565b5050565b6109ce848484610666565b6109da8484848461148c565b50505050565b60606109eb82610bc1565b505f6109f561163e565b90505f815111610a135760405180602001604052805f815250610a3e565b80610a1d84611654565b604051602001610a2e929190612657565b6040516020818303038152906040525b915050919050565b5f60065f8473ffffffffffffffffffffffffffffffffffffffff1673ffffffffffffffffffffffffffffffffffffffff1681526020019081526020015f205f8373ffffffffffffffffffffffffffffffffffffffff1673ffffffffffffffffffffffffffffffffffffffff1681526020019081526020015f205f9054906101000a900460ff16905092915050565b610adc611052565b5f73ffffffffffffffffffffffffffffffffffffffff168173ffffffffffffffffffffffffffffffffffffffff1603610b4c575f6040517f1e4fbdf7000000000000000000000000000000000000000000000000000000008152600401610b439190611f79565b60405180910390fd5b610b55816110d9565b50565b5f7f01ffc9a7000000000000000000000000000000000000000000000000000000007bffffffffffffffffffffffffffffffffffffffffffffffffffffffff1916827bffffffffffffffffffffffffffffffffffffffffffffffffffffffff1916149050919050565b5f80610bcc8361171e565b90505f73ffffffffffffffffffffffffffffffffffffffff168173ffffffffffffffffffffffffffffffffffffffff1603610c3e57826040517f7e273289000000000000000000000000000000000000000000000000000000008152600401610c3591906122aa565b60405180910390fd5b80915050919050565b5f60055f8381526020019081526020015f205f9054906101000a900473ffffffffffffffffffffffffffffffffffffffff169050919050565b5f33905090565b610c948383836001611757565b505050565b5f80610ca48461171e565b90505f73ffffffffffffffffffffffffffffffffffffffff168373ffffffffffffffffffffffffffffffffffffffff1614610ce557610ce4818486611916565b5b5f73ffffffffffffffffffffffffffffffffffffffff168173ffffffffffffffffffffffffffffffffffffffff1614610d7057610d245f855f80611757565b600160045f8373ffffffffffffffffffffffffffffffffffffffff1673ffffffffffffffffffffffffffffffffffffffff1681526020019081526020015f205f82825403925050819055505b5f73ffffffffffffffffffffffffffffffffffffffff168573ffffffffffffffffffffffffffffffffffffffff1614610def57600160045f8773ffffffffffffffffffffffffffffffffffffffff1673ffffffffffffffffffffffffffffffffffffffff1681526020019081526020015f205f82825401925050819055505b8460035f8681526020019081526020015f205f6101000a81548173ffffffffffffffffffffffffffffffffffffffff021916908373ffffffffffffffffffffffffffffffffffffffff160217905550838573ffffffffffffffffffffffffffffffffffffffff168273ffffffffffffffffffffffffffffffffffffffff167fddf252ad1be2c89b69c2b068fc378daa952ba7f163c4a11628f55a4df523b3ef60405160405180910390a4809150509392505050565b5f8082604051602001610eb7919061267a565b604051602081830303815290604052805190602001205f1c905060085481610edf919061258d565b915050919050565b82610ef18161171e565b73ffffffffffffffffffffffffffffffffffffffff163373ffffffffffffffffffffffffffffffffffffffff1614610f27575f80fd5b5f600a8581548110610f3c57610f3b612690565b5b905f5260205f2090600302019050610f53816119d9565b610f5b575f80fd5b60085484610f69919061258d565b93505f6002858360010154610f7e91906126bd565b610f8891906126f0565b9050604051602001610f999061276a565b6040516020818303038152906040528051906020012084604051602001610fc0919061267a565b6040516020818303038152906040528051906020012003611002576063606482610fea919061258d565b82610ff591906125ea565b610fff91906126bd565b90505b6110416040518060400160405280600681526020017f4e6f4e616d6500000000000000000000000000000000000000000000000000008152508261119a565b61104a826119ff565b505050505050565b61105a610c80565b73ffffffffffffffffffffffffffffffffffffffff166110786108f6565b73ffffffffffffffffffffffffffffffffffffffff16146110d75761109b610c80565b6040517f118cdaa70000000000000000000000000000000000000000000000000000000081526004016110ce9190611f79565b60405180910390fd5b565b5f805f9054906101000a900473ffffffffffffffffffffffffffffffffffffffff169050815f806101000a81548173ffffffffffffffffffffffffffffffffffffffff021916908373ffffffffffffffffffffffffffffffffffffffff1602179055508173ffffffffffffffffffffffffffffffffffffffff168173ffffffffffffffffffffffffffffffffffffffff167f8be0079c531659141344cd1fd0a4f28419497f9722a3daafe3b4186f6b6457e060405160405180910390a35050565b600a6040518060c00160405280848152602001838152602001600163ffffffff168152602001600954426111ce91906126bd565b63ffffffff1681526020015f61ffff1681526020015f61ffff16815250908060018154018082558091505060019003905f5260205f2090600302015f909190919091505f820151815f019081611224919061291b565b50602082015181600101556040820151816002015f6101000a81548163ffffffff021916908363ffffffff16021790555060608201518160020160046101000a81548163ffffffff021916908363ffffffff16021790555060808201518160020160086101000a81548161ffff021916908361ffff16021790555060a082015181600201600a6101000a81548161ffff021916908361ffff16021790555050505f6001600a805490506112d791906125ea565b90506112e33382611a32565b7f88f026aacbbecc90c18411df4b1185fd8d9be2470f1962f192bf84a27d0704b7818484604051611316939291906129ea565b60405180910390a1505050565b5f73ffffffffffffffffffffffffffffffffffffffff168273ffffffffffffffffffffffffffffffffffffffff160361139357816040517f5b08ba1800000000000000000000000000000000000000000000000000000000815260040161138a9190611f79565b60405180910390fd5b8060065f8573ffffffffffffffffffffffffffffffffffffffff1673ffffffffffffffffffffffffffffffffffffffff1681526020019081526020015f205f8473ffffffffffffffffffffffffffffffffffffffff1673ffffffffffffffffffffffffffffffffffffffff1681526020019081526020015f205f6101000a81548160ff0219169083151502179055508173ffffffffffffffffffffffffffffffffffffffff168373ffffffffffffffffffffffffffffffffffffffff167f17307eab39ab6107e8899845ad3d59bd9653f200f220920489ca2b5937696c318360405161147f9190611e19565b60405180910390a3505050565b5f8373ffffffffffffffffffffffffffffffffffffffff163b1115611638578273ffffffffffffffffffffffffffffffffffffffff1663150b7a026114cf610c80565b8685856040518563ffffffff1660e01b81526004016114f19493929190612a78565b6020604051808303815f875af192505050801561152c57506040513d601f19601f820116820180604052508101906115299190612ad6565b60015b6115ad573d805f811461155a576040519150601f19603f3d011682016040523d82523d5f602084013e61155f565b606091505b505f8151036115a557836040517f64a0ae9200000000000000000000000000000000000000000000000000000000815260040161159c9190611f79565b60405180910390fd5b805181602001fd5b63150b7a0260e01b7bffffffffffffffffffffffffffffffffffffffffffffffffffffffff1916817bffffffffffffffffffffffffffffffffffffffffffffffffffffffff19161461163657836040517f64a0ae9200000000000000000000000000000000000000000000000000000000815260040161162d9190611f79565b60405180910390fd5b505b50505050565b606060405180602001604052805f815250905090565b60605f600161166284611a4f565b0190505f8167ffffffffffffffff8111156116805761167f612101565b5b6040519080825280601f01601f1916602001820160405280156116b25781602001600182028036833780820191505090505b5090505f82602001820190505b600115611713578080600190039150507f3031323334353637383961626364656600000000000000000000000000000000600a86061a8153600a858161170857611707612560565b5b0494505f85036116bf575b819350505050919050565b5f60035f8381526020019081526020015f205f9054906101000a900473ffffffffffffffffffffffffffffffffffffffff169050919050565b808061178f57505f73ffffffffffffffffffffffffffffffffffffffff168273ffffffffffffffffffffffffffffffffffffffff1614155b156118c1575f61179e84610bc1565b90505f73ffffffffffffffffffffffffffffffffffffffff168373ffffffffffffffffffffffffffffffffffffffff161415801561180857508273ffffffffffffffffffffffffffffffffffffffff168173ffffffffffffffffffffffffffffffffffffffff1614155b801561181b57506118198184610a46565b155b1561185d57826040517fa9fbf51f0000000000000000000000000000000000000000000000000000000081526004016118549190611f79565b60405180910390fd5b81156118bf57838573ffffffffffffffffffffffffffffffffffffffff168273ffffffffffffffffffffffffffffffffffffffff167f8c5be1e5ebec7d5bd14f71427d1e84f3dd0314c0f7b2291e5b200ac8c7c3b92560405160405180910390a45b505b8360055f8581526020019081526020015f205f6101000a81548173ffffffffffffffffffffffffffffffffffffffff021916908373ffffffffffffffffffffffffffffffffffffffff16021790555050505050565b611921838383611ba0565b6119d4575f73ffffffffffffffffffffffffffffffffffffffff168373ffffffffffffffffffffffffffffffffffffffff160361199557806040517f7e27328900000000000000000000000000000000000000000000000000000000815260040161198c91906122aa565b60405180910390fd5b81816040517f177e802f0000000000000000000000000000000000000000000000000000000081526004016119cb929190612b01565b60405180910390fd5b505050565b5f428260020160049054906101000a900463ffffffff1663ffffffff1611159050919050565b60095442611a0d91906126bd565b8160020160046101000a81548163ffffffff021916908363ffffffff16021790555050565b611a4b828260405180602001604052805f815250611c60565b5050565b5f805f90507a184f03e93ff9f4daa797ed6e38ed64bf6a1f0100000000000000008310611aab577a184f03e93ff9f4daa797ed6e38ed64bf6a1f0100000000000000008381611aa157611aa0612560565b5b0492506040810190505b6d04ee2d6d415b85acef81000000008310611ae8576d04ee2d6d415b85acef81000000008381611ade57611add612560565b5b0492506020810190505b662386f26fc100008310611b1757662386f26fc100008381611b0d57611b0c612560565b5b0492506010810190505b6305f5e1008310611b40576305f5e1008381611b3657611b35612560565b5b0492506008810190505b6127108310611b65576127108381611b5b57611b5a612560565b5b0492506004810190505b60648310611b885760648381611b7e57611b7d612560565b5b0492506002810190505b600a8310611b97576001810190505b80915050919050565b5f8073ffffffffffffffffffffffffffffffffffffffff168373ffffffffffffffffffffffffffffffffffffffff1614158015611c5757508273ffffffffffffffffffffffffffffffffffffffff168473ffffffffffffffffffffffffffffffffffffffff161480611c185750611c178484610a46565b5b80611c5657508273ffffffffffffffffffffffffffffffffffffffff16611c3e83610c47565b73ffffffffffffffffffffffffffffffffffffffff16145b5b90509392505050565b611c6a8383611c7b565b611c765f84848461148c565b505050565b5f73ffffffffffffffffffffffffffffffffffffffff168273ffffffffffffffffffffffffffffffffffffffff1603611ceb575f6040517f64a0ae92000000000000000000000000000000000000000000000000000000008152600401611ce29190611f79565b60405180910390fd5b5f611cf783835f610c99565b90505f73ffffffffffffffffffffffffffffffffffffffff168173ffffffffffffffffffffffffffffffffffffffff1614611d69575f6040517f73c6ac6e000000000000000000000000000000000000000000000000000000008152600401611d609190611f79565b60405180910390fd5b505050565b5f604051905090565b5f80fd5b5f80fd5b5f7fffffffff0000000000000000000000000000000000000000000000000000000082169050919050565b611db381611d7f565b8114611dbd575f80fd5b50565b5f81359050611dce81611daa565b92915050565b5f60208284031215611de957611de8611d77565b5b5f611df684828501611dc0565b91505092915050565b5f8115159050919050565b611e1381611dff565b82525050565b5f602082019050611e2c5f830184611e0a565b92915050565b5f81519050919050565b5f82825260208201905092915050565b5f5b83811015611e69578082015181840152602081019050611e4e565b5f8484015250505050565b5f601f19601f8301169050919050565b5f611e8e82611e32565b611e988185611e3c565b9350611ea8818560208601611e4c565b611eb181611e74565b840191505092915050565b5f6020820190508181035f830152611ed48184611e84565b905092915050565b5f819050919050565b611eee81611edc565b8114611ef8575f80fd5b50565b5f81359050611f0981611ee5565b92915050565b5f60208284031215611f2457611f23611d77565b5b5f611f3184828501611efb565b91505092915050565b5f73ffffffffffffffffffffffffffffffffffffffff82169050919050565b5f611f6382611f3a565b9050919050565b611f7381611f59565b82525050565b5f602082019050611f8c5f830184611f6a565b92915050565b611f9b81611f59565b8114611fa5575f80fd5b50565b5f81359050611fb681611f92565b92915050565b5f8060408385031215611fd257611fd1611d77565b5b5f611fdf85828601611fa8565b9250506020611ff085828601611efb565b9150509250929050565b61200381611edc565b82525050565b5f63ffffffff82169050919050565b61202181612009565b82525050565b5f61ffff82169050919050565b61203d81612027565b82525050565b5f60c0820190508181035f83015261205b8189611e84565b905061206a6020830188611ffa565b6120776040830187612018565b6120846060830186612018565b6120916080830185612034565b61209e60a0830184612034565b979650505050505050565b5f805f606084860312156120c0576120bf611d77565b5b5f6120cd86828701611fa8565b93505060206120de86828701611fa8565b92505060406120ef86828701611efb565b9150509250925092565b5f80fd5b5f80fd5b7f4e487b71000000000000000000000000000000000000000000000000000000005f52604160045260245ffd5b61213782611e74565b810181811067ffffffffffffffff8211171561215657612155612101565b5b80604052505050565b5f612168611d6e565b9050612174828261212e565b919050565b5f67ffffffffffffffff82111561219357612192612101565b5b61219c82611e74565b9050602081019050919050565b828183375f83830152505050565b5f6121c96121c484612179565b61215f565b9050828152602081018484840111156121e5576121e46120fd565b5b6121f08482856121a9565b509392505050565b5f82601f83011261220c5761220b6120f9565b5b813561221c8482602086016121b7565b91505092915050565b5f806040838503121561223b5761223a611d77565b5b5f61224885828601611efb565b925050602083013567ffffffffffffffff81111561226957612268611d7b565b5b612275858286016121f8565b9150509250929050565b5f6020828403121561229457612293611d77565b5b5f6122a184828501611fa8565b91505092915050565b5f6020820190506122bd5f830184611ffa565b92915050565b5f602082840312156122d8576122d7611d77565b5b5f82013567ffffffffffffffff8111156122f5576122f4611d7b565b5b612301848285016121f8565b91505092915050565b61231381611dff565b811461231d575f80fd5b50565b5f8135905061232e8161230a565b92915050565b5f806040838503121561234a57612349611d77565b5b5f61235785828601611fa8565b925050602061236885828601612320565b9150509250929050565b5f67ffffffffffffffff82111561238c5761238b612101565b5b61239582611e74565b9050602081019050919050565b5f6123b46123af84612372565b61215f565b9050828152602081018484840111156123d0576123cf6120fd565b5b6123db8482856121a9565b509392505050565b5f82601f8301126123f7576123f66120f9565b5b81356124078482602086016123a2565b91505092915050565b5f805f806080858703121561242857612427611d77565b5b5f61243587828801611fa8565b945050602061244687828801611fa8565b935050604061245787828801611efb565b925050606085013567ffffffffffffffff81111561247857612477611d7b565b5b612484878288016123e3565b91505092959194509250565b5f80604083850312156124a6576124a5611d77565b5b5f6124b385828601611fa8565b92505060206124c485828601611fa8565b9150509250929050565b7f4e487b71000000000000000000000000000000000000000000000000000000005f52602260045260245ffd5b5f600282049050600182168061251257607f821691505b602082108103612525576125246124ce565b5b50919050565b5f60608201905061253e5f830186611f6a565b61254b6020830185611ffa565b6125586040830184611f6a565b949350505050565b7f4e487b71000000000000000000000000000000000000000000000000000000005f52601260045260245ffd5b5f61259782611edc565b91506125a283611edc565b9250826125b2576125b1612560565b5b828206905092915050565b7f4e487b71000000000000000000000000000000000000000000000000000000005f52601160045260245ffd5b5f6125f482611edc565b91506125ff83611edc565b9250828203905081811115612617576126166125bd565b5b92915050565b5f81905092915050565b5f61263182611e32565b61263b818561261d565b935061264b818560208601611e4c565b80840191505092915050565b5f6126628285612627565b915061266e8284612627565b91508190509392505050565b5f6126858284612627565b915081905092915050565b7f4e487b71000000000000000000000000000000000000000000000000000000005f52603260045260245ffd5b5f6126c782611edc565b91506126d283611edc565b92508282019050808211156126ea576126e96125bd565b5b92915050565b5f6126fa82611edc565b915061270583611edc565b92508261271557612714612560565b5b828204905092915050565b7f6b697474790000000000000000000000000000000000000000000000000000005f82015250565b5f61275460058361261d565b915061275f82612720565b600582019050919050565b5f61277482612748565b9150819050919050565b5f819050815f5260205f209050919050565b5f6020601f8301049050919050565b5f82821b905092915050565b5f600883026127da7fffffffffffffffffffffffffffffffffffffffffffffffffffffffffffffffff8261279f565b6127e4868361279f565b95508019841693508086168417925050509392505050565b5f819050919050565b5f61281f61281a61281584611edc565b6127fc565b611edc565b9050919050565b5f819050919050565b61283883612805565b61284c61284482612826565b8484546127ab565b825550505050565b5f90565b612860612854565b61286b81848461282f565b505050565b5b8181101561288e576128835f82612858565b600181019050612871565b5050565b601f8211156128d3576128a48161277e565b6128ad84612790565b810160208510156128bc578190505b6128d06128c885612790565b830182612870565b50505b505050565b5f82821c905092915050565b5f6128f35f19846008026128d8565b1980831691505092915050565b5f61290b83836128e4565b9150826002028217905092915050565b61292482611e32565b67ffffffffffffffff81111561293d5761293c612101565b5b61294782546124fb565b612952828285612892565b5f60209050601f831160018114612983575f8415612971578287015190505b61297b8582612900565b8655506129e2565b601f1984166129918661277e565b5f5b828110156129b857848901518255600182019150602085019450602081019050612993565b868310156129d557848901516129d1601f8916826128e4565b8355505b6001600288020188555050505b505050505050565b5f6060820190506129fd5f830186611ffa565b8181036020830152612a0f8185611e84565b9050612a1e6040830184611ffa565b949350505050565b5f81519050919050565b5f82825260208201905092915050565b5f612a4a82612a26565b612a548185612a30565b9350612a64818560208601611e4c565b612a6d81611e74565b840191505092915050565b5f608082019050612a8b5f830187611f6a565b612a986020830186611f6a565b612aa56040830185611ffa565b8181036060830152612ab78184612a40565b905095945050505050565b5f81519050612ad081611daa565b92915050565b5f60208284031215612aeb57612aea611d77565b5b5f612af884828501612ac2565b91505092915050565b5f604082019050612b145f830185611f6a565b612b216020830184611ffa565b939250505056fea2646970667358221220de03d5a1d35ecce7a336a8f26a8d3618b10612a282a6252df8bc6189eb1d425d64736f6c63430008150033",
  "immutableReferences": {},
  "source": "// SPDX-License-Identifier: MIT\r\npragma solidity ^0.8.4;\r\n\r\n\r\nimport \"./zombieFactory.sol\";\r\n\r\ncontract ZombieFeeding is ZombieFactory {\r\n\r\n  constructor(address initialOwner, string memory name_, string memory symbol_) ZombieFactory(initialOwner, name_, symbol_) {\r\n  }\r\n\r\n  modifier onlyOwnerOf(uint _zombieId) {\r\n    require(msg.sender == _ownerOf(_zombieId));\r\n    _;\r\n  }\r\n\r\n  function _triggerCooldown(Zombie storage _zombie) internal {\r\n    _zombie.readyTime = uint32(block.timestamp + cooldownTime);\r\n  }\r\n\r\n  function _isReady(Zombie storage _zombie) internal view returns (bool) {\r\n      return (_zombie.readyTime <= block.timestamp);\r\n  }\r\n\r\n  function feedAndMultiply(uint _zombieId, uint _targetDna, string memory _species) internal onlyOwnerOf(_zombieId) {\r\n    Zombie storage myZombie = zombies[_zombieId];\r\n    require(_isReady(myZombie));\r\n    _targetDna = _targetDna % dnaModulus;\r\n    uint newDna = (myZombie.dna + _targetDna) / 2;\r\n    if (keccak256(abi.encodePacked(_species)) == keccak256(abi.encodePacked(\"kitty\"))) {\r\n      newDna = newDna - newDna % 100 + 99;\r\n    }\r\n    _createZombie(\"NoName\", newDna);\r\n    _triggerCooldown(myZombie);\r\n  }\r\n\r\n  function feedOnKitty(uint _zombieId, string memory _nameForDNA) public { //modified to not import or create cryptoKitty\r\n    uint kittyDna = _generateRandomDna(_nameForDNA);\r\n    feedAndMultiply(_zombieId, kittyDna, \"kitty\");\r\n  }\r\n}\r\n",
  "sourcePath": "/home/juan-ubuntu/cryptoZombies/contracts/zombieFeeding.sol",
  "compiler": {
    "name": "solc",
    "version": "0.8.21+commit.d9974bed.Emscripten.clang"
  },
  "schemaVersion": "3.4.16",
  "updatedAt": "2023-10-18T10:14:43.504Z",
  "devdoc": {
    "errors": {
      "ERC721IncorrectOwner(address,uint256,address)": [
        {
          "details": "Indicates an error related to the ownership over a particular token. Used in transfers.",
          "params": {
            "owner": "Address of the current owner of a token.",
            "sender": "Address whose tokens are being transferred.",
            "tokenId": "Identifier number of a token."
          }
        }
      ],
      "ERC721InsufficientApproval(address,uint256)": [
        {
          "details": "Indicates a failure with the `operator`s approval. Used in transfers.",
          "params": {
            "operator": "Address that may be allowed to operate on tokens without being their owner.",
            "tokenId": "Identifier number of a token."
          }
        }
      ],
      "ERC721InvalidApprover(address)": [
        {
          "details": "Indicates a failure with the `approver` of a token to be approved. Used in approvals.",
          "params": {
            "approver": "Address initiating an approval operation."
          }
        }
      ],
      "ERC721InvalidOperator(address)": [
        {
          "details": "Indicates a failure with the `operator` to be approved. Used in approvals.",
          "params": {
            "operator": "Address that may be allowed to operate on tokens without being their owner."
          }
        }
      ],
      "ERC721InvalidOwner(address)": [
        {
          "details": "Indicates that an address can't be an owner. For example, `address(0)` is a forbidden owner in EIP-20. Used in balance queries.",
          "params": {
            "owner": "Address of the current owner of a token."
          }
        }
      ],
      "ERC721InvalidReceiver(address)": [
        {
          "details": "Indicates a failure with the token `receiver`. Used in transfers.",
          "params": {
            "receiver": "Address to which tokens are being transferred."
          }
        }
      ],
      "ERC721InvalidSender(address)": [
        {
          "details": "Indicates a failure with the token `sender`. Used in transfers.",
          "params": {
            "sender": "Address whose tokens are being transferred."
          }
        }
      ],
      "ERC721NonexistentToken(uint256)": [
        {
          "details": "Indicates a `tokenId` whose `owner` is the zero address.",
          "params": {
            "tokenId": "Identifier number of a token."
          }
        }
      ],
      "OwnableInvalidOwner(address)": [
        {
          "details": "The owner is not a valid owner account. (eg. `address(0)`)"
        }
      ],
      "OwnableUnauthorizedAccount(address)": [
        {
          "details": "The caller account is not authorized to perform an operation."
        }
      ]
    },
    "events": {
      "Approval(address,address,uint256)": {
        "details": "Emitted when `owner` enables `approved` to manage the `tokenId` token."
      },
      "ApprovalForAll(address,address,bool)": {
        "details": "Emitted when `owner` enables or disables (`approved`) `operator` to manage all of its assets."
      },
      "Transfer(address,address,uint256)": {
        "details": "Emitted when `tokenId` token is transferred from `from` to `to`."
      }
    },
    "kind": "dev",
    "methods": {
      "approve(address,uint256)": {
        "details": "See {IERC721-approve}."
      },
      "balanceOf(address)": {
        "details": "See {IERC721-balanceOf}."
      },
      "getApproved(uint256)": {
        "details": "See {IERC721-getApproved}."
      },
      "isApprovedForAll(address,address)": {
        "details": "See {IERC721-isApprovedForAll}."
      },
      "name()": {
        "details": "See {IERC721Metadata-name}."
      },
      "owner()": {
        "details": "Returns the address of the current owner."
      },
      "ownerOf(uint256)": {
        "details": "See {IERC721-ownerOf}."
      },
      "renounceOwnership()": {
        "details": "Leaves the contract without owner. It will not be possible to call `onlyOwner` functions. Can only be called by the current owner. NOTE: Renouncing ownership will leave the contract without an owner, thereby disabling any functionality that is only available to the owner."
      },
      "safeTransferFrom(address,address,uint256)": {
        "details": "See {IERC721-safeTransferFrom}."
      },
      "safeTransferFrom(address,address,uint256,bytes)": {
        "details": "See {IERC721-safeTransferFrom}."
      },
      "setApprovalForAll(address,bool)": {
        "details": "See {IERC721-setApprovalForAll}."
      },
      "supportsInterface(bytes4)": {
        "details": "See {IERC165-supportsInterface}."
      },
      "symbol()": {
        "details": "See {IERC721Metadata-symbol}."
      },
      "tokenURI(uint256)": {
        "details": "See {IERC721Metadata-tokenURI}."
      },
      "transferFrom(address,address,uint256)": {
        "details": "See {IERC721-transferFrom}."
      },
      "transferOwnership(address)": {
        "details": "Transfers ownership of the contract to a new account (`newOwner`). Can only be called by the current owner."
      }
    },
    "version": 1
  },
  "userdoc": {
    "kind": "user",
    "methods": {},
    "version": 1
  }
}