{
  "contractName": "ZombieFactory",
  "abi": [
    {
      "inputs": [
        {
          "internalType": "address",
          "name": "initialOwner",
          "type": "address"
        },
        {
          "internalType": "string",
          "name": "name_",
          "type": "string"
        },
        {
          "internalType": "string",
          "name": "symbol_",
          "type": "string"
        }
      ],
      "stateMutability": "nonpayable",
      "type": "constructor"
    },
    {
      "inputs": [
        {
          "internalType": "address",
          "name": "sender",
          "type": "address"
        },
        {
          "internalType": "uint256",
          "name": "tokenId",
          "type": "uint256"
        },
        {
          "internalType": "address",
          "name": "owner",
          "type": "address"
        }
      ],
      "name": "ERC721IncorrectOwner",
      "type": "error"
    },
    {
      "inputs": [
        {
          "internalType": "address",
          "name": "operator",
          "type": "address"
        },
        {
          "internalType": "uint256",
          "name": "tokenId",
          "type": "uint256"
        }
      ],
      "name": "ERC721InsufficientApproval",
      "type": "error"
    },
    {
      "inputs": [
        {
          "internalType": "address",
          "name": "approver",
          "type": "address"
        }
      ],
      "name": "ERC721InvalidApprover",
      "type": "error"
    },
    {
      "inputs": [
        {
          "internalType": "address",
          "name": "operator",
          "type": "address"
        }
      ],
      "name": "ERC721InvalidOperator",
      "type": "error"
    },
    {
      "inputs": [
        {
          "internalType": "address",
          "name": "owner",
          "type": "address"
        }
      ],
      "name": "ERC721InvalidOwner",
      "type": "error"
    },
    {
      "inputs": [
        {
          "internalType": "address",
          "name": "receiver",
          "type": "address"
        }
      ],
      "name": "ERC721InvalidReceiver",
      "type": "error"
    },
    {
      "inputs": [
        {
          "internalType": "address",
          "name": "sender",
          "type": "address"
        }
      ],
      "name": "ERC721InvalidSender",
      "type": "error"
    },
    {
      "inputs": [
        {
          "internalType": "uint256",
          "name": "tokenId",
          "type": "uint256"
        }
      ],
      "name": "ERC721NonexistentToken",
      "type": "error"
    },
    {
      "inputs": [
        {
          "internalType": "address",
          "name": "owner",
          "type": "address"
        }
      ],
      "name": "OwnableInvalidOwner",
      "type": "error"
    },
    {
      "inputs": [
        {
          "internalType": "address",
          "name": "account",
          "type": "address"
        }
      ],
      "name": "OwnableUnauthorizedAccount",
      "type": "error"
    },
    {
      "anonymous": false,
      "inputs": [
        {
          "indexed": true,
          "internalType": "address",
          "name": "owner",
          "type": "address"
        },
        {
          "indexed": true,
          "internalType": "address",
          "name": "approved",
          "type": "address"
        },
        {
          "indexed": true,
          "internalType": "uint256",
          "name": "tokenId",
          "type": "uint256"
        }
      ],
      "name": "Approval",
      "type": "event"
    },
    {
      "anonymous": false,
      "inputs": [
        {
          "indexed": true,
          "internalType": "address",
          "name": "owner",
          "type": "address"
        },
        {
          "indexed": true,
          "internalType": "address",
          "name": "operator",
          "type": "address"
        },
        {
          "indexed": false,
          "internalType": "bool",
          "name": "approved",
          "type": "bool"
        }
      ],
      "name": "ApprovalForAll",
      "type": "event"
    },
    {
      "anonymous": false,
      "inputs": [
        {
          "indexed": false,
          "internalType": "uint256",
          "name": "zombieId",
          "type": "uint256"
        },
        {
          "indexed": false,
          "internalType": "string",
          "name": "name",
          "type": "string"
        },
        {
          "indexed": false,
          "internalType": "uint256",
          "name": "dna",
          "type": "uint256"
        }
      ],
      "name": "NewZombie",
      "type": "event"
    },
    {
      "anonymous": false,
      "inputs": [
        {
          "indexed": true,
          "internalType": "address",
          "name": "previousOwner",
          "type": "address"
        },
        {
          "indexed": true,
          "internalType": "address",
          "name": "newOwner",
          "type": "address"
        }
      ],
      "name": "OwnershipTransferred",
      "type": "event"
    },
    {
      "anonymous": false,
      "inputs": [
        {
          "indexed": true,
          "internalType": "address",
          "name": "from",
          "type": "address"
        },
        {
          "indexed": true,
          "internalType": "address",
          "name": "to",
          "type": "address"
        },
        {
          "indexed": true,
          "internalType": "uint256",
          "name": "tokenId",
          "type": "uint256"
        }
      ],
      "name": "Transfer",
      "type": "event"
    },
    {
      "inputs": [
        {
          "internalType": "address",
          "name": "to",
          "type": "address"
        },
        {
          "internalType": "uint256",
          "name": "tokenId",
          "type": "uint256"
        }
      ],
      "name": "approve",
      "outputs": [],
      "stateMutability": "nonpayable",
      "type": "function"
    },
    {
      "inputs": [
        {
          "internalType": "address",
          "name": "owner",
          "type": "address"
        }
      ],
      "name": "balanceOf",
      "outputs": [
        {
          "internalType": "uint256",
          "name": "",
          "type": "uint256"
        }
      ],
      "stateMutability": "view",
      "type": "function"
    },
    {
      "inputs": [
        {
          "internalType": "uint256",
          "name": "tokenId",
          "type": "uint256"
        }
      ],
      "name": "getApproved",
      "outputs": [
        {
          "internalType": "address",
          "name": "",
          "type": "address"
        }
      ],
      "stateMutability": "view",
      "type": "function"
    },
    {
      "inputs": [
        {
          "internalType": "address",
          "name": "owner",
          "type": "address"
        },
        {
          "internalType": "address",
          "name": "operator",
          "type": "address"
        }
      ],
      "name": "isApprovedForAll",
      "outputs": [
        {
          "internalType": "bool",
          "name": "",
          "type": "bool"
        }
      ],
      "stateMutability": "view",
      "type": "function"
    },
    {
      "inputs": [],
      "name": "name",
      "outputs": [
        {
          "internalType": "string",
          "name": "",
          "type": "string"
        }
      ],
      "stateMutability": "view",
      "type": "function"
    },
    {
      "inputs": [],
      "name": "owner",
      "outputs": [
        {
          "internalType": "address",
          "name": "",
          "type": "address"
        }
      ],
      "stateMutability": "view",
      "type": "function"
    },
    {
      "inputs": [
        {
          "internalType": "uint256",
          "name": "tokenId",
          "type": "uint256"
        }
      ],
      "name": "ownerOf",
      "outputs": [
        {
          "internalType": "address",
          "name": "",
          "type": "address"
        }
      ],
      "stateMutability": "view",
      "type": "function"
    },
    {
      "inputs": [],
      "name": "renounceOwnership",
      "outputs": [],
      "stateMutability": "nonpayable",
      "type": "function"
    },
    {
      "inputs": [
        {
          "internalType": "address",
          "name": "from",
          "type": "address"
        },
        {
          "internalType": "address",
          "name": "to",
          "type": "address"
        },
        {
          "internalType": "uint256",
          "name": "tokenId",
          "type": "uint256"
        }
      ],
      "name": "safeTransferFrom",
      "outputs": [],
      "stateMutability": "nonpayable",
      "type": "function"
    },
    {
      "inputs": [
        {
          "internalType": "address",
          "name": "from",
          "type": "address"
        },
        {
          "internalType": "address",
          "name": "to",
          "type": "address"
        },
        {
          "internalType": "uint256",
          "name": "tokenId",
          "type": "uint256"
        },
        {
          "internalType": "bytes",
          "name": "data",
          "type": "bytes"
        }
      ],
      "name": "safeTransferFrom",
      "outputs": [],
      "stateMutability": "nonpayable",
      "type": "function"
    },
    {
      "inputs": [
        {
          "internalType": "address",
          "name": "operator",
          "type": "address"
        },
        {
          "internalType": "bool",
          "name": "approved",
          "type": "bool"
        }
      ],
      "name": "setApprovalForAll",
      "outputs": [],
      "stateMutability": "nonpayable",
      "type": "function"
    },
    {
      "inputs": [
        {
          "internalType": "bytes4",
          "name": "interfaceId",
          "type": "bytes4"
        }
      ],
      "name": "supportsInterface",
      "outputs": [
        {
          "internalType": "bool",
          "name": "",
          "type": "bool"
        }
      ],
      "stateMutability": "view",
      "type": "function"
    },
    {
      "inputs": [],
      "name": "symbol",
      "outputs": [
        {
          "internalType": "string",
          "name": "",
          "type": "string"
        }
      ],
      "stateMutability": "view",
      "type": "function"
    },
    {
      "inputs": [
        {
          "internalType": "uint256",
          "name": "tokenId",
          "type": "uint256"
        }
      ],
      "name": "tokenURI",
      "outputs": [
        {
          "internalType": "string",
          "name": "",
          "type": "string"
        }
      ],
      "stateMutability": "view",
      "type": "function"
    },
    {
      "inputs": [
        {
          "internalType": "address",
          "name": "from",
          "type": "address"
        },
        {
          "internalType": "address",
          "name": "to",
          "type": "address"
        },
        {
          "internalType": "uint256",
          "name": "tokenId",
          "type": "uint256"
        }
      ],
      "name": "transferFrom",
      "outputs": [],
      "stateMutability": "nonpayable",
      "type": "function"
    },
    {
      "inputs": [
        {
          "internalType": "address",
          "name": "newOwner",
          "type": "address"
        }
      ],
      "name": "transferOwnership",
      "outputs": [],
      "stateMutability": "nonpayable",
      "type": "function"
    },
    {
      "inputs": [
        {
          "internalType": "uint256",
          "name": "",
          "type": "uint256"
        }
      ],
      "name": "zombies",
      "outputs": [
        {
          "internalType": "string",
          "name": "name",
          "type": "string"
        },
        {
          "internalType": "uint256",
          "name": "dna",
          "type": "uint256"
        },
        {
          "internalType": "uint32",
          "name": "level",
          "type": "uint32"
        },
        {
          "internalType": "uint32",
          "name": "readyTime",
          "type": "uint32"
        },
        {
          "internalType": "uint16",
          "name": "winCount",
          "type": "uint16"
        },
        {
          "internalType": "uint16",
          "name": "lossCount",
          "type": "uint16"
        }
      ],
      "stateMutability": "view",
      "type": "function"
    },
    {
      "inputs": [
        {
          "internalType": "string",
          "name": "_name",
          "type": "string"
        }
      ],
      "name": "createRandomZombie",
      "outputs": [],
      "stateMutability": "nonpayable",
      "type": "function"
    }
  ],
  "bytecode": "0x60806040526010600755600754600a6200001a919062000354565b6008556201518060095534801562000030575f80fd5b506040516200317a3803806200317a83398181016040528101906200005691906200058a565b8181845f73ffffffffffffffffffffffffffffffffffffffff168173ffffffffffffffffffffffffffffffffffffffff1603620000cc575f6040517f1e4fbdf7000000000000000000000000000000000000000000000000000000008152600401620000c3919062000632565b60405180910390fd5b620000dd816200010d60201b60201c565b508160019081620000ef91906200087b565b5080600290816200010191906200087b565b5050505050506200095f565b5f805f9054906101000a900473ffffffffffffffffffffffffffffffffffffffff169050815f806101000a81548173ffffffffffffffffffffffffffffffffffffffff021916908373ffffffffffffffffffffffffffffffffffffffff1602179055508173ffffffffffffffffffffffffffffffffffffffff168173ffffffffffffffffffffffffffffffffffffffff167f8be0079c531659141344cd1fd0a4f28419497f9722a3daafe3b4186f6b6457e060405160405180910390a35050565b7f4e487b71000000000000000000000000000000000000000000000000000000005f52601160045260245ffd5b5f8160011c9050919050565b5f808291508390505b6001851115620002585780860481111562000230576200022f620001ce565b5b6001851615620002405780820291505b80810290506200025085620001fb565b945062000210565b94509492505050565b5f8262000272576001905062000344565b8162000281575f905062000344565b81600181146200029a5760028114620002a557620002db565b600191505062000344565b60ff841115620002ba57620002b9620001ce565b5b8360020a915084821115620002d457620002d3620001ce565b5b5062000344565b5060208310610133831016604e8410600b8410161715620003155782820a9050838111156200030f576200030e620001ce565b5b62000344565b62000324848484600162000207565b925090508184048111156200033e576200033d620001ce565b5b81810290505b9392505050565b5f819050919050565b5f62000360826200034b565b91506200036d836200034b565b92506200039c7fffffffffffffffffffffffffffffffffffffffffffffffffffffffffffffffff848462000261565b905092915050565b5f604051905090565b5f80fd5b5f80fd5b5f73ffffffffffffffffffffffffffffffffffffffff82169050919050565b5f620003e082620003b5565b9050919050565b620003f281620003d4565b8114620003fd575f80fd5b50565b5f815190506200041081620003e7565b92915050565b5f80fd5b5f80fd5b5f601f19601f8301169050919050565b7f4e487b71000000000000000000000000000000000000000000000000000000005f52604160045260245ffd5b62000466826200041e565b810181811067ffffffffffffffff821117156200048857620004876200042e565b5b80604052505050565b5f6200049c620003a4565b9050620004aa82826200045b565b919050565b5f67ffffffffffffffff821115620004cc57620004cb6200042e565b5b620004d7826200041e565b9050602081019050919050565b5f5b8381101562000503578082015181840152602081019050620004e6565b5f8484015250505050565b5f620005246200051e84620004af565b62000491565b9050828152602081018484840111156200054357620005426200041a565b5b62000550848285620004e4565b509392505050565b5f82601f8301126200056f576200056e62000416565b5b8151620005818482602086016200050e565b91505092915050565b5f805f60608486031215620005a457620005a3620003ad565b5b5f620005b38682870162000400565b935050602084015167ffffffffffffffff811115620005d757620005d6620003b1565b5b620005e58682870162000558565b925050604084015167ffffffffffffffff811115620006095762000608620003b1565b5b620006178682870162000558565b9150509250925092565b6200062c81620003d4565b82525050565b5f602082019050620006475f83018462000621565b92915050565b5f81519050919050565b7f4e487b71000000000000000000000000000000000000000000000000000000005f52602260045260245ffd5b5f60028204905060018216806200069c57607f821691505b602082108103620006b257620006b162000657565b5b50919050565b5f819050815f5260205f209050919050565b5f6020601f8301049050919050565b5f82821b905092915050565b5f60088302620007167fffffffffffffffffffffffffffffffffffffffffffffffffffffffffffffffff82620006d9565b620007228683620006d9565b95508019841693508086168417925050509392505050565b5f819050919050565b5f620007636200075d62000757846200034b565b6200073a565b6200034b565b9050919050565b5f819050919050565b6200077e8362000743565b620007966200078d826200076a565b848454620006e5565b825550505050565b5f90565b620007ac6200079e565b620007b981848462000773565b505050565b5b81811015620007e057620007d45f82620007a2565b600181019050620007bf565b5050565b601f8211156200082f57620007f981620006b8565b6200080484620006ca565b8101602085101562000814578190505b6200082c6200082385620006ca565b830182620007be565b50505b505050565b5f82821c905092915050565b5f620008515f198460080262000834565b1980831691505092915050565b5f6200086b838362000840565b9150826002028217905092915050565b62000886826200064d565b67ffffffffffffffff811115620008a257620008a16200042e565b5b620008ae825462000684565b620008bb828285620007e4565b5f60209050601f831160018114620008f1575f8415620008dc578287015190505b620008e885826200085e565b86555062000957565b601f1984166200090186620006b8565b5f5b828110156200092a5784890151825560018201915060208501945060208101905062000903565b868310156200094a578489015162000946601f89168262000840565b8355505b6001600288020188555050505b505050505050565b61280d806200096d5f395ff3fe608060405234801561000f575f80fd5b5060043610610114575f3560e01c8063715018a6116100a0578063a22cb4651161006f578063a22cb465146102e1578063b88d4fde146102fd578063c87b56dd14610319578063e985e9c514610349578063f2fde38b1461037957610114565b8063715018a61461027f5780637bff0a01146102895780638da5cb5b146102a557806395d89b41146102c357610114565b80632052465e116100e75780632052465e146101b257806323b872dd146101e757806342842e0e146102035780636352211e1461021f57806370a082311461024f57610114565b806301ffc9a71461011857806306fdde0314610148578063081812fc14610166578063095ea7b314610196575b5f80fd5b610132600480360381019061012d9190611b98565b610395565b60405161013f9190611bdd565b60405180910390f35b610150610476565b60405161015d9190611c80565b60405180910390f35b610180600480360381019061017b9190611cd3565b610506565b60405161018d9190611d3d565b60405180910390f35b6101b060048036038101906101ab9190611d80565b610521565b005b6101cc60048036038101906101c79190611cd3565b610537565b6040516101de96959493929190611e07565b60405180910390f35b61020160048036038101906101fc9190611e6d565b61063f565b005b61021d60048036038101906102189190611e6d565b61073e565b005b61023960048036038101906102349190611cd3565b61075d565b6040516102469190611d3d565b60405180910390f35b61026960048036038101906102649190611ebd565b61076e565b6040516102769190611ee8565b60405180910390f35b610287610824565b005b6102a3600480360381019061029e919061202d565b610837565b005b6102ad61087e565b6040516102ba9190611d3d565b60405180910390f35b6102cb6108a5565b6040516102d89190611c80565b60405180910390f35b6102fb60048036038101906102f6919061209e565b610935565b005b6103176004803603810190610312919061217a565b61094b565b005b610333600480360381019061032e9190611cd3565b610968565b6040516103409190611c80565b60405180910390f35b610363600480360381019061035e91906121fa565b6109ce565b6040516103709190611bdd565b60405180910390f35b610393600480360381019061038e9190611ebd565b610a5c565b005b5f7f80ac58cd000000000000000000000000000000000000000000000000000000007bffffffffffffffffffffffffffffffffffffffffffffffffffffffff1916827bffffffffffffffffffffffffffffffffffffffffffffffffffffffff1916148061045f57507f5b5e139f000000000000000000000000000000000000000000000000000000007bffffffffffffffffffffffffffffffffffffffffffffffffffffffff1916827bffffffffffffffffffffffffffffffffffffffffffffffffffffffff1916145b8061046f575061046e82610ae0565b5b9050919050565b60606001805461048590612265565b80601f01602080910402602001604051908101604052809291908181526020018280546104b190612265565b80156104fc5780601f106104d3576101008083540402835291602001916104fc565b820191905f5260205f20905b8154815290600101906020018083116104df57829003601f168201915b5050505050905090565b5f61051082610b49565b5061051a82610bcf565b9050919050565b610533828261052e610c08565b610c0f565b5050565b600a8181548110610546575f80fd5b905f5260205f2090600302015f91509050805f01805461056590612265565b80601f016020809104026020016040519081016040528092919081815260200182805461059190612265565b80156105dc5780601f106105b3576101008083540402835291602001916105dc565b820191905f5260205f20905b8154815290600101906020018083116105bf57829003601f168201915b505050505090806001015490806002015f9054906101000a900463ffffffff16908060020160049054906101000a900463ffffffff16908060020160089054906101000a900461ffff169080600201600a9054906101000a900461ffff16905086565b5f73ffffffffffffffffffffffffffffffffffffffff168273ffffffffffffffffffffffffffffffffffffffff16036106af575f6040517f64a0ae920000000000000000000000000000000000000000000000000000000081526004016106a69190611d3d565b60405180910390fd5b5f6106c283836106bd610c08565b610c21565b90508373ffffffffffffffffffffffffffffffffffffffff168173ffffffffffffffffffffffffffffffffffffffff1614610738578382826040517f64283d7b00000000000000000000000000000000000000000000000000000000815260040161072f93929190612295565b60405180910390fd5b50505050565b61075883838360405180602001604052805f81525061094b565b505050565b5f61076782610b49565b9050919050565b5f8073ffffffffffffffffffffffffffffffffffffffff168273ffffffffffffffffffffffffffffffffffffffff16036107df575f6040517f89c62b640000000000000000000000000000000000000000000000000000000081526004016107d69190611d3d565b60405180910390fd5b60045f8373ffffffffffffffffffffffffffffffffffffffff1673ffffffffffffffffffffffffffffffffffffffff1681526020019081526020015f20549050919050565b61082c610e2c565b6108355f610eb3565b565b5f6108413361076e565b1461084a575f80fd5b5f61085482610f74565b905060648161086391906122f7565b8161086e9190612354565b905061087a8282610fb7565b5050565b5f805f9054906101000a900473ffffffffffffffffffffffffffffffffffffffff16905090565b6060600280546108b490612265565b80601f01602080910402602001604051908101604052809291908181526020018280546108e090612265565b801561092b5780601f106109025761010080835404028352916020019161092b565b820191905f5260205f20905b81548152906001019060200180831161090e57829003601f168201915b5050505050905090565b610947610940610c08565b8383611140565b5050565b61095684848461063f565b610962848484846112a9565b50505050565b606061097382610b49565b505f61097d61145b565b90505f81511161099b5760405180602001604052805f8152506109c6565b806109a584611471565b6040516020016109b69291906123c1565b6040516020818303038152906040525b915050919050565b5f60065f8473ffffffffffffffffffffffffffffffffffffffff1673ffffffffffffffffffffffffffffffffffffffff1681526020019081526020015f205f8373ffffffffffffffffffffffffffffffffffffffff1673ffffffffffffffffffffffffffffffffffffffff1681526020019081526020015f205f9054906101000a900460ff16905092915050565b610a64610e2c565b5f73ffffffffffffffffffffffffffffffffffffffff168173ffffffffffffffffffffffffffffffffffffffff1603610ad4575f6040517f1e4fbdf7000000000000000000000000000000000000000000000000000000008152600401610acb9190611d3d565b60405180910390fd5b610add81610eb3565b50565b5f7f01ffc9a7000000000000000000000000000000000000000000000000000000007bffffffffffffffffffffffffffffffffffffffffffffffffffffffff1916827bffffffffffffffffffffffffffffffffffffffffffffffffffffffff1916149050919050565b5f80610b548361153b565b90505f73ffffffffffffffffffffffffffffffffffffffff168173ffffffffffffffffffffffffffffffffffffffff1603610bc657826040517f7e273289000000000000000000000000000000000000000000000000000000008152600401610bbd9190611ee8565b60405180910390fd5b80915050919050565b5f60055f8381526020019081526020015f205f9054906101000a900473ffffffffffffffffffffffffffffffffffffffff169050919050565b5f33905090565b610c1c8383836001611574565b505050565b5f80610c2c8461153b565b90505f73ffffffffffffffffffffffffffffffffffffffff168373ffffffffffffffffffffffffffffffffffffffff1614610c6d57610c6c818486611733565b5b5f73ffffffffffffffffffffffffffffffffffffffff168173ffffffffffffffffffffffffffffffffffffffff1614610cf857610cac5f855f80611574565b600160045f8373ffffffffffffffffffffffffffffffffffffffff1673ffffffffffffffffffffffffffffffffffffffff1681526020019081526020015f205f82825403925050819055505b5f73ffffffffffffffffffffffffffffffffffffffff168573ffffffffffffffffffffffffffffffffffffffff1614610d7757600160045f8773ffffffffffffffffffffffffffffffffffffffff1673ffffffffffffffffffffffffffffffffffffffff1681526020019081526020015f205f82825401925050819055505b8460035f8681526020019081526020015f205f6101000a81548173ffffffffffffffffffffffffffffffffffffffff021916908373ffffffffffffffffffffffffffffffffffffffff160217905550838573ffffffffffffffffffffffffffffffffffffffff168273ffffffffffffffffffffffffffffffffffffffff167fddf252ad1be2c89b69c2b068fc378daa952ba7f163c4a11628f55a4df523b3ef60405160405180910390a4809150509392505050565b610e34610c08565b73ffffffffffffffffffffffffffffffffffffffff16610e5261087e565b73ffffffffffffffffffffffffffffffffffffffff1614610eb157610e75610c08565b6040517f118cdaa7000000000000000000000000000000000000000000000000000000008152600401610ea89190611d3d565b60405180910390fd5b565b5f805f9054906101000a900473ffffffffffffffffffffffffffffffffffffffff169050815f806101000a81548173ffffffffffffffffffffffffffffffffffffffff021916908373ffffffffffffffffffffffffffffffffffffffff1602179055508173ffffffffffffffffffffffffffffffffffffffff168173ffffffffffffffffffffffffffffffffffffffff167f8be0079c531659141344cd1fd0a4f28419497f9722a3daafe3b4186f6b6457e060405160405180910390a35050565b5f8082604051602001610f8791906123e4565b604051602081830303815290604052805190602001205f1c905060085481610faf91906122f7565b915050919050565b600a6040518060c00160405280848152602001838152602001600163ffffffff16815260200160095442610feb91906123fa565b63ffffffff1681526020015f61ffff1681526020015f61ffff16815250908060018154018082558091505060019003905f5260205f2090600302015f909190919091505f820151815f01908161104191906125ca565b50602082015181600101556040820151816002015f6101000a81548163ffffffff021916908363ffffffff16021790555060608201518160020160046101000a81548163ffffffff021916908363ffffffff16021790555060808201518160020160086101000a81548161ffff021916908361ffff16021790555060a082015181600201600a6101000a81548161ffff021916908361ffff16021790555050505f6001600a805490506110f49190612354565b905061110033826117f6565b7f88f026aacbbecc90c18411df4b1185fd8d9be2470f1962f192bf84a27d0704b781848460405161113393929190612699565b60405180910390a1505050565b5f73ffffffffffffffffffffffffffffffffffffffff168273ffffffffffffffffffffffffffffffffffffffff16036111b057816040517f5b08ba180000000000000000000000000000000000000000000000000000000081526004016111a79190611d3d565b60405180910390fd5b8060065f8573ffffffffffffffffffffffffffffffffffffffff1673ffffffffffffffffffffffffffffffffffffffff1681526020019081526020015f205f8473ffffffffffffffffffffffffffffffffffffffff1673ffffffffffffffffffffffffffffffffffffffff1681526020019081526020015f205f6101000a81548160ff0219169083151502179055508173ffffffffffffffffffffffffffffffffffffffff168373ffffffffffffffffffffffffffffffffffffffff167f17307eab39ab6107e8899845ad3d59bd9653f200f220920489ca2b5937696c318360405161129c9190611bdd565b60405180910390a3505050565b5f8373ffffffffffffffffffffffffffffffffffffffff163b1115611455578273ffffffffffffffffffffffffffffffffffffffff1663150b7a026112ec610c08565b8685856040518563ffffffff1660e01b815260040161130e9493929190612727565b6020604051808303815f875af192505050801561134957506040513d601f19601f820116820180604052508101906113469190612785565b60015b6113ca573d805f8114611377576040519150601f19603f3d011682016040523d82523d5f602084013e61137c565b606091505b505f8151036113c257836040517f64a0ae920000000000000000000000000000000000000000000000000000000081526004016113b99190611d3d565b60405180910390fd5b805181602001fd5b63150b7a0260e01b7bffffffffffffffffffffffffffffffffffffffffffffffffffffffff1916817bffffffffffffffffffffffffffffffffffffffffffffffffffffffff19161461145357836040517f64a0ae9200000000000000000000000000000000000000000000000000000000815260040161144a9190611d3d565b60405180910390fd5b505b50505050565b606060405180602001604052805f815250905090565b60605f600161147f84611813565b0190505f8167ffffffffffffffff81111561149d5761149c611f09565b5b6040519080825280601f01601f1916602001820160405280156114cf5781602001600182028036833780820191505090505b5090505f82602001820190505b600115611530578080600190039150507f3031323334353637383961626364656600000000000000000000000000000000600a86061a8153600a8581611525576115246122ca565b5b0494505f85036114dc575b819350505050919050565b5f60035f8381526020019081526020015f205f9054906101000a900473ffffffffffffffffffffffffffffffffffffffff169050919050565b80806115ac57505f73ffffffffffffffffffffffffffffffffffffffff168273ffffffffffffffffffffffffffffffffffffffff1614155b156116de575f6115bb84610b49565b90505f73ffffffffffffffffffffffffffffffffffffffff168373ffffffffffffffffffffffffffffffffffffffff161415801561162557508273ffffffffffffffffffffffffffffffffffffffff168173ffffffffffffffffffffffffffffffffffffffff1614155b8015611638575061163681846109ce565b155b1561167a57826040517fa9fbf51f0000000000000000000000000000000000000000000000000000000081526004016116719190611d3d565b60405180910390fd5b81156116dc57838573ffffffffffffffffffffffffffffffffffffffff168273ffffffffffffffffffffffffffffffffffffffff167f8c5be1e5ebec7d5bd14f71427d1e84f3dd0314c0f7b2291e5b200ac8c7c3b92560405160405180910390a45b505b8360055f8581526020019081526020015f205f6101000a81548173ffffffffffffffffffffffffffffffffffffffff021916908373ffffffffffffffffffffffffffffffffffffffff16021790555050505050565b61173e838383611964565b6117f1575f73ffffffffffffffffffffffffffffffffffffffff168373ffffffffffffffffffffffffffffffffffffffff16036117b257806040517f7e2732890000000000000000000000000000000000000000000000000000000081526004016117a99190611ee8565b60405180910390fd5b81816040517f177e802f0000000000000000000000000000000000000000000000000000000081526004016117e89291906127b0565b60405180910390fd5b505050565b61180f828260405180602001604052805f815250611a24565b5050565b5f805f90507a184f03e93ff9f4daa797ed6e38ed64bf6a1f010000000000000000831061186f577a184f03e93ff9f4daa797ed6e38ed64bf6a1f0100000000000000008381611865576118646122ca565b5b0492506040810190505b6d04ee2d6d415b85acef810000000083106118ac576d04ee2d6d415b85acef810000000083816118a2576118a16122ca565b5b0492506020810190505b662386f26fc1000083106118db57662386f26fc1000083816118d1576118d06122ca565b5b0492506010810190505b6305f5e1008310611904576305f5e10083816118fa576118f96122ca565b5b0492506008810190505b612710831061192957612710838161191f5761191e6122ca565b5b0492506004810190505b6064831061194c5760648381611942576119416122ca565b5b0492506002810190505b600a831061195b576001810190505b80915050919050565b5f8073ffffffffffffffffffffffffffffffffffffffff168373ffffffffffffffffffffffffffffffffffffffff1614158015611a1b57508273ffffffffffffffffffffffffffffffffffffffff168473ffffffffffffffffffffffffffffffffffffffff1614806119dc57506119db84846109ce565b5b80611a1a57508273ffffffffffffffffffffffffffffffffffffffff16611a0283610bcf565b73ffffffffffffffffffffffffffffffffffffffff16145b5b90509392505050565b611a2e8383611a3f565b611a3a5f8484846112a9565b505050565b5f73ffffffffffffffffffffffffffffffffffffffff168273ffffffffffffffffffffffffffffffffffffffff1603611aaf575f6040517f64a0ae92000000000000000000000000000000000000000000000000000000008152600401611aa69190611d3d565b60405180910390fd5b5f611abb83835f610c21565b90505f73ffffffffffffffffffffffffffffffffffffffff168173ffffffffffffffffffffffffffffffffffffffff1614611b2d575f6040517f73c6ac6e000000000000000000000000000000000000000000000000000000008152600401611b249190611d3d565b60405180910390fd5b505050565b5f604051905090565b5f80fd5b5f80fd5b5f7fffffffff0000000000000000000000000000000000000000000000000000000082169050919050565b611b7781611b43565b8114611b81575f80fd5b50565b5f81359050611b9281611b6e565b92915050565b5f60208284031215611bad57611bac611b3b565b5b5f611bba84828501611b84565b91505092915050565b5f8115159050919050565b611bd781611bc3565b82525050565b5f602082019050611bf05f830184611bce565b92915050565b5f81519050919050565b5f82825260208201905092915050565b5f5b83811015611c2d578082015181840152602081019050611c12565b5f8484015250505050565b5f601f19601f8301169050919050565b5f611c5282611bf6565b611c5c8185611c00565b9350611c6c818560208601611c10565b611c7581611c38565b840191505092915050565b5f6020820190508181035f830152611c988184611c48565b905092915050565b5f819050919050565b611cb281611ca0565b8114611cbc575f80fd5b50565b5f81359050611ccd81611ca9565b92915050565b5f60208284031215611ce857611ce7611b3b565b5b5f611cf584828501611cbf565b91505092915050565b5f73ffffffffffffffffffffffffffffffffffffffff82169050919050565b5f611d2782611cfe565b9050919050565b611d3781611d1d565b82525050565b5f602082019050611d505f830184611d2e565b92915050565b611d5f81611d1d565b8114611d69575f80fd5b50565b5f81359050611d7a81611d56565b92915050565b5f8060408385031215611d9657611d95611b3b565b5b5f611da385828601611d6c565b9250506020611db485828601611cbf565b9150509250929050565b611dc781611ca0565b82525050565b5f63ffffffff82169050919050565b611de581611dcd565b82525050565b5f61ffff82169050919050565b611e0181611deb565b82525050565b5f60c0820190508181035f830152611e1f8189611c48565b9050611e2e6020830188611dbe565b611e3b6040830187611ddc565b611e486060830186611ddc565b611e556080830185611df8565b611e6260a0830184611df8565b979650505050505050565b5f805f60608486031215611e8457611e83611b3b565b5b5f611e9186828701611d6c565b9350506020611ea286828701611d6c565b9250506040611eb386828701611cbf565b9150509250925092565b5f60208284031215611ed257611ed1611b3b565b5b5f611edf84828501611d6c565b91505092915050565b5f602082019050611efb5f830184611dbe565b92915050565b5f80fd5b5f80fd5b7f4e487b71000000000000000000000000000000000000000000000000000000005f52604160045260245ffd5b611f3f82611c38565b810181811067ffffffffffffffff82111715611f5e57611f5d611f09565b5b80604052505050565b5f611f70611b32565b9050611f7c8282611f36565b919050565b5f67ffffffffffffffff821115611f9b57611f9a611f09565b5b611fa482611c38565b9050602081019050919050565b828183375f83830152505050565b5f611fd1611fcc84611f81565b611f67565b905082815260208101848484011115611fed57611fec611f05565b5b611ff8848285611fb1565b509392505050565b5f82601f83011261201457612013611f01565b5b8135612024848260208601611fbf565b91505092915050565b5f6020828403121561204257612041611b3b565b5b5f82013567ffffffffffffffff81111561205f5761205e611b3f565b5b61206b84828501612000565b91505092915050565b61207d81611bc3565b8114612087575f80fd5b50565b5f8135905061209881612074565b92915050565b5f80604083850312156120b4576120b3611b3b565b5b5f6120c185828601611d6c565b92505060206120d28582860161208a565b9150509250929050565b5f67ffffffffffffffff8211156120f6576120f5611f09565b5b6120ff82611c38565b9050602081019050919050565b5f61211e612119846120dc565b611f67565b90508281526020810184848401111561213a57612139611f05565b5b612145848285611fb1565b509392505050565b5f82601f83011261216157612160611f01565b5b813561217184826020860161210c565b91505092915050565b5f805f806080858703121561219257612191611b3b565b5b5f61219f87828801611d6c565b94505060206121b087828801611d6c565b93505060406121c187828801611cbf565b925050606085013567ffffffffffffffff8111156121e2576121e1611b3f565b5b6121ee8782880161214d565b91505092959194509250565b5f80604083850312156122105761220f611b3b565b5b5f61221d85828601611d6c565b925050602061222e85828601611d6c565b9150509250929050565b7f4e487b71000000000000000000000000000000000000000000000000000000005f52602260045260245ffd5b5f600282049050600182168061227c57607f821691505b60208210810361228f5761228e612238565b5b50919050565b5f6060820190506122a85f830186611d2e565b6122b56020830185611dbe565b6122c26040830184611d2e565b949350505050565b7f4e487b71000000000000000000000000000000000000000000000000000000005f52601260045260245ffd5b5f61230182611ca0565b915061230c83611ca0565b92508261231c5761231b6122ca565b5b828206905092915050565b7f4e487b71000000000000000000000000000000000000000000000000000000005f52601160045260245ffd5b5f61235e82611ca0565b915061236983611ca0565b925082820390508181111561238157612380612327565b5b92915050565b5f81905092915050565b5f61239b82611bf6565b6123a58185612387565b93506123b5818560208601611c10565b80840191505092915050565b5f6123cc8285612391565b91506123d88284612391565b91508190509392505050565b5f6123ef8284612391565b915081905092915050565b5f61240482611ca0565b915061240f83611ca0565b925082820190508082111561242757612426612327565b5b92915050565b5f819050815f5260205f209050919050565b5f6020601f8301049050919050565b5f82821b905092915050565b5f600883026124897fffffffffffffffffffffffffffffffffffffffffffffffffffffffffffffffff8261244e565b612493868361244e565b95508019841693508086168417925050509392505050565b5f819050919050565b5f6124ce6124c96124c484611ca0565b6124ab565b611ca0565b9050919050565b5f819050919050565b6124e7836124b4565b6124fb6124f3826124d5565b84845461245a565b825550505050565b5f90565b61250f612503565b61251a8184846124de565b505050565b5b8181101561253d576125325f82612507565b600181019050612520565b5050565b601f821115612582576125538161242d565b61255c8461243f565b8101602085101561256b578190505b61257f6125778561243f565b83018261251f565b50505b505050565b5f82821c905092915050565b5f6125a25f1984600802612587565b1980831691505092915050565b5f6125ba8383612593565b9150826002028217905092915050565b6125d382611bf6565b67ffffffffffffffff8111156125ec576125eb611f09565b5b6125f68254612265565b612601828285612541565b5f60209050601f831160018114612632575f8415612620578287015190505b61262a85826125af565b865550612691565b601f1984166126408661242d565b5f5b8281101561266757848901518255600182019150602085019450602081019050612642565b868310156126845784890151612680601f891682612593565b8355505b6001600288020188555050505b505050505050565b5f6060820190506126ac5f830186611dbe565b81810360208301526126be8185611c48565b90506126cd6040830184611dbe565b949350505050565b5f81519050919050565b5f82825260208201905092915050565b5f6126f9826126d5565b61270381856126df565b9350612713818560208601611c10565b61271c81611c38565b840191505092915050565b5f60808201905061273a5f830187611d2e565b6127476020830186611d2e565b6127546040830185611dbe565b818103606083015261276681846126ef565b905095945050505050565b5f8151905061277f81611b6e565b92915050565b5f6020828403121561279a57612799611b3b565b5b5f6127a784828501612771565b91505092915050565b5f6040820190506127c35f830185611d2e565b6127d06020830184611dbe565b939250505056fea2646970667358221220f989a94813cf8f1704533e5a8d4ed0a12c9031234fb2821c52f3e8f521cf023864736f6c63430008150033",
  "immutableReferences": {},
  "source": "// SPDX-License-Identifier: MIT\r\npragma solidity ^0.8.4;\r\n\r\nimport \"@openzeppelin/contracts/access/Ownable.sol\";\r\nimport \"@openzeppelin/contracts/token/ERC721/ERC721.sol\";\r\n\r\n//import \"@openzeppelin/contracts/utils/math/SafeMath.sol\";\r\n\r\ncontract ZombieFactory is Ownable, ERC721 {\r\n\r\n  event NewZombie(uint zombieId, string name, uint dna);\r\n\r\n  uint dnaDigits = 16;\r\n  uint dnaModulus = 10 ** dnaDigits;\r\n  uint cooldownTime = 1 days;\r\n\r\n  struct Zombie {\r\n    string name;\r\n    uint dna;\r\n    uint32 level;\r\n    uint32 readyTime;\r\n    uint16 winCount;\r\n    uint16 lossCount;\r\n  }\r\n\r\n  Zombie[] public zombies;\r\n\r\n // mapping (uint => address) public zombieToOwner; // _ownerOf\r\n // mapping (address => uint) ownerZombieCount; //_balanceOf\r\n\r\n  constructor(address initialOwner, string memory name_, string memory symbol_) Ownable(initialOwner) ERC721(name_, symbol_) {\r\n    \r\n  }\r\n\r\n  function _createZombie(string memory _name, uint _dna) internal {\r\n    zombies.push(Zombie(_name, _dna, 1, uint32(block.timestamp + cooldownTime), 0, 0));\r\n    uint id = zombies.length - 1;\r\n    _safeMint(msg.sender, id);\r\n    //_ownerOf[id] = msg.sender;\r\n    //balanceOf[msg.sender] = balanceOf[msg.sender].add(1);\r\n    emit NewZombie(id, _name, _dna);\r\n  }\r\n\r\n  function _generateRandomDna(string memory _str) internal view returns (uint) {\r\n    uint rand = uint(keccak256(abi.encodePacked(_str)));\r\n    return rand % dnaModulus;\r\n  }\r\n\r\n  function createRandomZombie(string memory _name) public {\r\n    require(balanceOf(msg.sender) == 0);\r\n    uint randDna = _generateRandomDna(_name);\r\n    randDna = randDna - randDna % 100;\r\n    _createZombie(_name, randDna);\r\n  }\r\n\r\n}\r\n",
  "sourcePath": "/home/juan-ubuntu/cryptoZombies/contracts/zombieFactory.sol",
  "compiler": {
    "name": "solc",
    "version": "0.8.21+commit.d9974bed.Emscripten.clang"
  },
  "schemaVersion": "3.4.16",
  "updatedAt": "2023-10-18T10:05:48.737Z",
  "devdoc": {
    "errors": {
      "ERC721IncorrectOwner(address,uint256,address)": [
        {
          "details": "Indicates an error related to the ownership over a particular token. Used in transfers.",
          "params": {
            "owner": "Address of the current owner of a token.",
            "sender": "Address whose tokens are being transferred.",
            "tokenId": "Identifier number of a token."
          }
        }
      ],
      "ERC721InsufficientApproval(address,uint256)": [
        {
          "details": "Indicates a failure with the `operator`s approval. Used in transfers.",
          "params": {
            "operator": "Address that may be allowed to operate on tokens without being their owner.",
            "tokenId": "Identifier number of a token."
          }
        }
      ],
      "ERC721InvalidApprover(address)": [
        {
          "details": "Indicates a failure with the `approver` of a token to be approved. Used in approvals.",
          "params": {
            "approver": "Address initiating an approval operation."
          }
        }
      ],
      "ERC721InvalidOperator(address)": [
        {
          "details": "Indicates a failure with the `operator` to be approved. Used in approvals.",
          "params": {
            "operator": "Address that may be allowed to operate on tokens without being their owner."
          }
        }
      ],
      "ERC721InvalidOwner(address)": [
        {
          "details": "Indicates that an address can't be an owner. For example, `address(0)` is a forbidden owner in EIP-20. Used in balance queries.",
          "params": {
            "owner": "Address of the current owner of a token."
          }
        }
      ],
      "ERC721InvalidReceiver(address)": [
        {
          "details": "Indicates a failure with the token `receiver`. Used in transfers.",
          "params": {
            "receiver": "Address to which tokens are being transferred."
          }
        }
      ],
      "ERC721InvalidSender(address)": [
        {
          "details": "Indicates a failure with the token `sender`. Used in transfers.",
          "params": {
            "sender": "Address whose tokens are being transferred."
          }
        }
      ],
      "ERC721NonexistentToken(uint256)": [
        {
          "details": "Indicates a `tokenId` whose `owner` is the zero address.",
          "params": {
            "tokenId": "Identifier number of a token."
          }
        }
      ],
      "OwnableInvalidOwner(address)": [
        {
          "details": "The owner is not a valid owner account. (eg. `address(0)`)"
        }
      ],
      "OwnableUnauthorizedAccount(address)": [
        {
          "details": "The caller account is not authorized to perform an operation."
        }
      ]
    },
    "events": {
      "Approval(address,address,uint256)": {
        "details": "Emitted when `owner` enables `approved` to manage the `tokenId` token."
      },
      "ApprovalForAll(address,address,bool)": {
        "details": "Emitted when `owner` enables or disables (`approved`) `operator` to manage all of its assets."
      },
      "Transfer(address,address,uint256)": {
        "details": "Emitted when `tokenId` token is transferred from `from` to `to`."
      }
    },
    "kind": "dev",
    "methods": {
      "approve(address,uint256)": {
        "details": "See {IERC721-approve}."
      },
      "balanceOf(address)": {
        "details": "See {IERC721-balanceOf}."
      },
      "getApproved(uint256)": {
        "details": "See {IERC721-getApproved}."
      },
      "isApprovedForAll(address,address)": {
        "details": "See {IERC721-isApprovedForAll}."
      },
      "name()": {
        "details": "See {IERC721Metadata-name}."
      },
      "owner()": {
        "details": "Returns the address of the current owner."
      },
      "ownerOf(uint256)": {
        "details": "See {IERC721-ownerOf}."
      },
      "renounceOwnership()": {
        "details": "Leaves the contract without owner. It will not be possible to call `onlyOwner` functions. Can only be called by the current owner. NOTE: Renouncing ownership will leave the contract without an owner, thereby disabling any functionality that is only available to the owner."
      },
      "safeTransferFrom(address,address,uint256)": {
        "details": "See {IERC721-safeTransferFrom}."
      },
      "safeTransferFrom(address,address,uint256,bytes)": {
        "details": "See {IERC721-safeTransferFrom}."
      },
      "setApprovalForAll(address,bool)": {
        "details": "See {IERC721-setApprovalForAll}."
      },
      "supportsInterface(bytes4)": {
        "details": "See {IERC165-supportsInterface}."
      },
      "symbol()": {
        "details": "See {IERC721Metadata-symbol}."
      },
      "tokenURI(uint256)": {
        "details": "See {IERC721Metadata-tokenURI}."
      },
      "transferFrom(address,address,uint256)": {
        "details": "See {IERC721-transferFrom}."
      },
      "transferOwnership(address)": {
        "details": "Transfers ownership of the contract to a new account (`newOwner`). Can only be called by the current owner."
      }
    },
    "version": 1
  },
  "userdoc": {
    "kind": "user",
    "methods": {},
    "version": 1
  }
}