{
  "contractName": "ZombieHelper",
  "abi": [
    {
      "inputs": [
        {
          "internalType": "address",
          "name": "initialOwner",
          "type": "address"
        },
        {
          "internalType": "string",
          "name": "name_",
          "type": "string"
        },
        {
          "internalType": "string",
          "name": "symbol_",
          "type": "string"
        }
      ],
      "stateMutability": "nonpayable",
      "type": "constructor"
    },
    {
      "inputs": [
        {
          "internalType": "address",
          "name": "sender",
          "type": "address"
        },
        {
          "internalType": "uint256",
          "name": "tokenId",
          "type": "uint256"
        },
        {
          "internalType": "address",
          "name": "owner",
          "type": "address"
        }
      ],
      "name": "ERC721IncorrectOwner",
      "type": "error"
    },
    {
      "inputs": [
        {
          "internalType": "address",
          "name": "operator",
          "type": "address"
        },
        {
          "internalType": "uint256",
          "name": "tokenId",
          "type": "uint256"
        }
      ],
      "name": "ERC721InsufficientApproval",
      "type": "error"
    },
    {
      "inputs": [
        {
          "internalType": "address",
          "name": "approver",
          "type": "address"
        }
      ],
      "name": "ERC721InvalidApprover",
      "type": "error"
    },
    {
      "inputs": [
        {
          "internalType": "address",
          "name": "operator",
          "type": "address"
        }
      ],
      "name": "ERC721InvalidOperator",
      "type": "error"
    },
    {
      "inputs": [
        {
          "internalType": "address",
          "name": "owner",
          "type": "address"
        }
      ],
      "name": "ERC721InvalidOwner",
      "type": "error"
    },
    {
      "inputs": [
        {
          "internalType": "address",
          "name": "receiver",
          "type": "address"
        }
      ],
      "name": "ERC721InvalidReceiver",
      "type": "error"
    },
    {
      "inputs": [
        {
          "internalType": "address",
          "name": "sender",
          "type": "address"
        }
      ],
      "name": "ERC721InvalidSender",
      "type": "error"
    },
    {
      "inputs": [
        {
          "internalType": "uint256",
          "name": "tokenId",
          "type": "uint256"
        }
      ],
      "name": "ERC721NonexistentToken",
      "type": "error"
    },
    {
      "inputs": [
        {
          "internalType": "address",
          "name": "owner",
          "type": "address"
        }
      ],
      "name": "OwnableInvalidOwner",
      "type": "error"
    },
    {
      "inputs": [
        {
          "internalType": "address",
          "name": "account",
          "type": "address"
        }
      ],
      "name": "OwnableUnauthorizedAccount",
      "type": "error"
    },
    {
      "anonymous": false,
      "inputs": [
        {
          "indexed": true,
          "internalType": "address",
          "name": "owner",
          "type": "address"
        },
        {
          "indexed": true,
          "internalType": "address",
          "name": "approved",
          "type": "address"
        },
        {
          "indexed": true,
          "internalType": "uint256",
          "name": "tokenId",
          "type": "uint256"
        }
      ],
      "name": "Approval",
      "type": "event"
    },
    {
      "anonymous": false,
      "inputs": [
        {
          "indexed": true,
          "internalType": "address",
          "name": "owner",
          "type": "address"
        },
        {
          "indexed": true,
          "internalType": "address",
          "name": "operator",
          "type": "address"
        },
        {
          "indexed": false,
          "internalType": "bool",
          "name": "approved",
          "type": "bool"
        }
      ],
      "name": "ApprovalForAll",
      "type": "event"
    },
    {
      "anonymous": false,
      "inputs": [
        {
          "indexed": false,
          "internalType": "uint256",
          "name": "zombieId",
          "type": "uint256"
        },
        {
          "indexed": false,
          "internalType": "string",
          "name": "name",
          "type": "string"
        },
        {
          "indexed": false,
          "internalType": "uint256",
          "name": "dna",
          "type": "uint256"
        }
      ],
      "name": "NewZombie",
      "type": "event"
    },
    {
      "anonymous": false,
      "inputs": [
        {
          "indexed": true,
          "internalType": "address",
          "name": "previousOwner",
          "type": "address"
        },
        {
          "indexed": true,
          "internalType": "address",
          "name": "newOwner",
          "type": "address"
        }
      ],
      "name": "OwnershipTransferred",
      "type": "event"
    },
    {
      "anonymous": false,
      "inputs": [
        {
          "indexed": true,
          "internalType": "address",
          "name": "from",
          "type": "address"
        },
        {
          "indexed": true,
          "internalType": "address",
          "name": "to",
          "type": "address"
        },
        {
          "indexed": true,
          "internalType": "uint256",
          "name": "tokenId",
          "type": "uint256"
        }
      ],
      "name": "Transfer",
      "type": "event"
    },
    {
      "inputs": [
        {
          "internalType": "address",
          "name": "to",
          "type": "address"
        },
        {
          "internalType": "uint256",
          "name": "tokenId",
          "type": "uint256"
        }
      ],
      "name": "approve",
      "outputs": [],
      "stateMutability": "nonpayable",
      "type": "function"
    },
    {
      "inputs": [
        {
          "internalType": "address",
          "name": "owner",
          "type": "address"
        }
      ],
      "name": "balanceOf",
      "outputs": [
        {
          "internalType": "uint256",
          "name": "",
          "type": "uint256"
        }
      ],
      "stateMutability": "view",
      "type": "function"
    },
    {
      "inputs": [
        {
          "internalType": "string",
          "name": "_name",
          "type": "string"
        }
      ],
      "name": "createRandomZombie",
      "outputs": [],
      "stateMutability": "nonpayable",
      "type": "function"
    },
    {
      "inputs": [
        {
          "internalType": "uint256",
          "name": "_zombieId",
          "type": "uint256"
        },
        {
          "internalType": "string",
          "name": "_nameForDNA",
          "type": "string"
        }
      ],
      "name": "feedOnKitty",
      "outputs": [],
      "stateMutability": "nonpayable",
      "type": "function"
    },
    {
      "inputs": [
        {
          "internalType": "uint256",
          "name": "tokenId",
          "type": "uint256"
        }
      ],
      "name": "getApproved",
      "outputs": [
        {
          "internalType": "address",
          "name": "",
          "type": "address"
        }
      ],
      "stateMutability": "view",
      "type": "function"
    },
    {
      "inputs": [
        {
          "internalType": "address",
          "name": "owner",
          "type": "address"
        },
        {
          "internalType": "address",
          "name": "operator",
          "type": "address"
        }
      ],
      "name": "isApprovedForAll",
      "outputs": [
        {
          "internalType": "bool",
          "name": "",
          "type": "bool"
        }
      ],
      "stateMutability": "view",
      "type": "function"
    },
    {
      "inputs": [],
      "name": "name",
      "outputs": [
        {
          "internalType": "string",
          "name": "",
          "type": "string"
        }
      ],
      "stateMutability": "view",
      "type": "function"
    },
    {
      "inputs": [],
      "name": "owner",
      "outputs": [
        {
          "internalType": "address",
          "name": "",
          "type": "address"
        }
      ],
      "stateMutability": "view",
      "type": "function"
    },
    {
      "inputs": [
        {
          "internalType": "uint256",
          "name": "tokenId",
          "type": "uint256"
        }
      ],
      "name": "ownerOf",
      "outputs": [
        {
          "internalType": "address",
          "name": "",
          "type": "address"
        }
      ],
      "stateMutability": "view",
      "type": "function"
    },
    {
      "inputs": [],
      "name": "renounceOwnership",
      "outputs": [],
      "stateMutability": "nonpayable",
      "type": "function"
    },
    {
      "inputs": [
        {
          "internalType": "address",
          "name": "from",
          "type": "address"
        },
        {
          "internalType": "address",
          "name": "to",
          "type": "address"
        },
        {
          "internalType": "uint256",
          "name": "tokenId",
          "type": "uint256"
        }
      ],
      "name": "safeTransferFrom",
      "outputs": [],
      "stateMutability": "nonpayable",
      "type": "function"
    },
    {
      "inputs": [
        {
          "internalType": "address",
          "name": "from",
          "type": "address"
        },
        {
          "internalType": "address",
          "name": "to",
          "type": "address"
        },
        {
          "internalType": "uint256",
          "name": "tokenId",
          "type": "uint256"
        },
        {
          "internalType": "bytes",
          "name": "data",
          "type": "bytes"
        }
      ],
      "name": "safeTransferFrom",
      "outputs": [],
      "stateMutability": "nonpayable",
      "type": "function"
    },
    {
      "inputs": [
        {
          "internalType": "address",
          "name": "operator",
          "type": "address"
        },
        {
          "internalType": "bool",
          "name": "approved",
          "type": "bool"
        }
      ],
      "name": "setApprovalForAll",
      "outputs": [],
      "stateMutability": "nonpayable",
      "type": "function"
    },
    {
      "inputs": [
        {
          "internalType": "bytes4",
          "name": "interfaceId",
          "type": "bytes4"
        }
      ],
      "name": "supportsInterface",
      "outputs": [
        {
          "internalType": "bool",
          "name": "",
          "type": "bool"
        }
      ],
      "stateMutability": "view",
      "type": "function"
    },
    {
      "inputs": [],
      "name": "symbol",
      "outputs": [
        {
          "internalType": "string",
          "name": "",
          "type": "string"
        }
      ],
      "stateMutability": "view",
      "type": "function"
    },
    {
      "inputs": [
        {
          "internalType": "uint256",
          "name": "tokenId",
          "type": "uint256"
        }
      ],
      "name": "tokenURI",
      "outputs": [
        {
          "internalType": "string",
          "name": "",
          "type": "string"
        }
      ],
      "stateMutability": "view",
      "type": "function"
    },
    {
      "inputs": [
        {
          "internalType": "address",
          "name": "from",
          "type": "address"
        },
        {
          "internalType": "address",
          "name": "to",
          "type": "address"
        },
        {
          "internalType": "uint256",
          "name": "tokenId",
          "type": "uint256"
        }
      ],
      "name": "transferFrom",
      "outputs": [],
      "stateMutability": "nonpayable",
      "type": "function"
    },
    {
      "inputs": [
        {
          "internalType": "address",
          "name": "newOwner",
          "type": "address"
        }
      ],
      "name": "transferOwnership",
      "outputs": [],
      "stateMutability": "nonpayable",
      "type": "function"
    },
    {
      "inputs": [
        {
          "internalType": "uint256",
          "name": "",
          "type": "uint256"
        }
      ],
      "name": "zombies",
      "outputs": [
        {
          "internalType": "string",
          "name": "name",
          "type": "string"
        },
        {
          "internalType": "uint256",
          "name": "dna",
          "type": "uint256"
        },
        {
          "internalType": "uint32",
          "name": "level",
          "type": "uint32"
        },
        {
          "internalType": "uint32",
          "name": "readyTime",
          "type": "uint32"
        },
        {
          "internalType": "uint16",
          "name": "winCount",
          "type": "uint16"
        },
        {
          "internalType": "uint16",
          "name": "lossCount",
          "type": "uint16"
        }
      ],
      "stateMutability": "view",
      "type": "function"
    },
    {
      "inputs": [],
      "name": "withdraw",
      "outputs": [],
      "stateMutability": "nonpayable",
      "type": "function"
    },
    {
      "inputs": [
        {
          "internalType": "uint256",
          "name": "_fee",
          "type": "uint256"
        }
      ],
      "name": "setLevelUpFee",
      "outputs": [],
      "stateMutability": "nonpayable",
      "type": "function"
    },
    {
      "inputs": [
        {
          "internalType": "uint256",
          "name": "_zombieId",
          "type": "uint256"
        }
      ],
      "name": "levelUp",
      "outputs": [],
      "stateMutability": "payable",
      "type": "function"
    },
    {
      "inputs": [
        {
          "internalType": "uint256",
          "name": "_zombieId",
          "type": "uint256"
        },
        {
          "internalType": "string",
          "name": "_newName",
          "type": "string"
        }
      ],
      "name": "changeName",
      "outputs": [],
      "stateMutability": "nonpayable",
      "type": "function"
    },
    {
      "inputs": [
        {
          "internalType": "uint256",
          "name": "_zombieId",
          "type": "uint256"
        },
        {
          "internalType": "uint256",
          "name": "_newDna",
          "type": "uint256"
        }
      ],
      "name": "changeDna",
      "outputs": [],
      "stateMutability": "nonpayable",
      "type": "function"
    },
    {
      "inputs": [
        {
          "internalType": "address",
          "name": "_owner",
          "type": "address"
        }
      ],
      "name": "getZombiesByOwner",
      "outputs": [
        {
          "internalType": "uint256[]",
          "name": "",
          "type": "uint256[]"
        }
      ],
      "stateMutability": "view",
      "type": "function"
    }
  ],
  "bytecode": "0x60806040526010600755600754600a6200001a91906200036b565b6008556201518060095566038d7ea4c68000600b553480156200003b575f80fd5b5060405162003d8b38038062003d8b8339818101604052810190620000619190620005a1565b8282828282828181845f73ffffffffffffffffffffffffffffffffffffffff168173ffffffffffffffffffffffffffffffffffffffff1603620000dd575f6040517f1e4fbdf7000000000000000000000000000000000000000000000000000000008152600401620000d4919062000649565b60405180910390fd5b620000ee816200012460201b60201c565b50816001908162000100919062000892565b50806002908162000112919062000892565b50505050505050505050505062000976565b5f805f9054906101000a900473ffffffffffffffffffffffffffffffffffffffff169050815f806101000a81548173ffffffffffffffffffffffffffffffffffffffff021916908373ffffffffffffffffffffffffffffffffffffffff1602179055508173ffffffffffffffffffffffffffffffffffffffff168173ffffffffffffffffffffffffffffffffffffffff167f8be0079c531659141344cd1fd0a4f28419497f9722a3daafe3b4186f6b6457e060405160405180910390a35050565b7f4e487b71000000000000000000000000000000000000000000000000000000005f52601160045260245ffd5b5f8160011c9050919050565b5f808291508390505b60018511156200026f57808604811115620002475762000246620001e5565b5b6001851615620002575780820291505b8081029050620002678562000212565b945062000227565b94509492505050565b5f826200028957600190506200035b565b8162000298575f90506200035b565b8160018114620002b15760028114620002bc57620002f2565b60019150506200035b565b60ff841115620002d157620002d0620001e5565b5b8360020a915084821115620002eb57620002ea620001e5565b5b506200035b565b5060208310610133831016604e8410600b84101617156200032c5782820a905083811115620003265762000325620001e5565b5b6200035b565b6200033b84848460016200021e565b92509050818404811115620003555762000354620001e5565b5b81810290505b9392505050565b5f819050919050565b5f620003778262000362565b9150620003848362000362565b9250620003b37fffffffffffffffffffffffffffffffffffffffffffffffffffffffffffffffff848462000278565b905092915050565b5f604051905090565b5f80fd5b5f80fd5b5f73ffffffffffffffffffffffffffffffffffffffff82169050919050565b5f620003f782620003cc565b9050919050565b6200040981620003eb565b811462000414575f80fd5b50565b5f815190506200042781620003fe565b92915050565b5f80fd5b5f80fd5b5f601f19601f8301169050919050565b7f4e487b71000000000000000000000000000000000000000000000000000000005f52604160045260245ffd5b6200047d8262000435565b810181811067ffffffffffffffff821117156200049f576200049e62000445565b5b80604052505050565b5f620004b3620003bb565b9050620004c1828262000472565b919050565b5f67ffffffffffffffff821115620004e357620004e262000445565b5b620004ee8262000435565b9050602081019050919050565b5f5b838110156200051a578082015181840152602081019050620004fd565b5f8484015250505050565b5f6200053b6200053584620004c6565b620004a8565b9050828152602081018484840111156200055a576200055962000431565b5b62000567848285620004fb565b509392505050565b5f82601f8301126200058657620005856200042d565b5b81516200059884826020860162000525565b91505092915050565b5f805f60608486031215620005bb57620005ba620003c4565b5b5f620005ca8682870162000417565b935050602084015167ffffffffffffffff811115620005ee57620005ed620003c8565b5b620005fc868287016200056f565b925050604084015167ffffffffffffffff81111562000620576200061f620003c8565b5b6200062e868287016200056f565b9150509250925092565b6200064381620003eb565b82525050565b5f6020820190506200065e5f83018462000638565b92915050565b5f81519050919050565b7f4e487b71000000000000000000000000000000000000000000000000000000005f52602260045260245ffd5b5f6002820490506001821680620006b357607f821691505b602082108103620006c957620006c86200066e565b5b50919050565b5f819050815f5260205f209050919050565b5f6020601f8301049050919050565b5f82821b905092915050565b5f600883026200072d7fffffffffffffffffffffffffffffffffffffffffffffffffffffffffffffffff82620006f0565b620007398683620006f0565b95508019841693508086168417925050509392505050565b5f819050919050565b5f6200077a620007746200076e8462000362565b62000751565b62000362565b9050919050565b5f819050919050565b62000795836200075a565b620007ad620007a48262000781565b848454620006fc565b825550505050565b5f90565b620007c3620007b5565b620007d08184846200078a565b505050565b5b81811015620007f757620007eb5f82620007b9565b600181019050620007d6565b5050565b601f82111562000846576200081081620006cf565b6200081b84620006e1565b810160208510156200082b578190505b620008436200083a85620006e1565b830182620007d5565b50505b505050565b5f82821c905092915050565b5f620008685f19846008026200084b565b1980831691505092915050565b5f62000882838362000857565b9150826002028217905092915050565b6200089d8262000664565b67ffffffffffffffff811115620008b957620008b862000445565b5b620008c582546200069b565b620008d2828285620007fb565b5f60209050601f83116001811462000908575f8415620008f3578287015190505b620008ff858262000875565b8655506200096e565b601f1984166200091886620006cf565b5f5b8281101562000941578489015182556001820191506020850194506020810190506200091a565b868310156200096157848901516200095d601f89168262000857565b8355505b6001600288020188555050505b505050505050565b61340780620009845f395ff3fe608060405260043610610165575f3560e01c80636352211e116100d0578063a22cb46511610089578063c87b56dd11610063578063c87b56dd14610504578063ccf670f814610540578063e985e9c514610568578063f2fde38b146105a457610165565b8063a22cb4651461048c578063b88d4fde146104b4578063c39cbef1146104dc57610165565b80636352211e1461038257806370a08231146103be578063715018a6146103fa5780637bff0a01146104105780638da5cb5b1461043857806395d89b411461046257610165565b806323b872dd1161012257806323b872dd146102905780633ccfd60b146102b857806342842e0e146102ce5780634412e104146102f65780634b95f815146103325780635faf28801461035a57610165565b806301ffc9a71461016957806306fdde03146101a5578063081812fc146101cf578063095ea7b31461020b5780630ce90ec2146102335780632052465e1461024f575b5f80fd5b348015610174575f80fd5b5061018f600480360381019061018a9190612365565b6105cc565b60405161019c91906123aa565b60405180910390f35b3480156101b0575f80fd5b506101b96106ad565b6040516101c6919061244d565b60405180910390f35b3480156101da575f80fd5b506101f560048036038101906101f091906124a0565b61073d565b604051610202919061250a565b60405180910390f35b348015610216575f80fd5b50610231600480360381019061022c919061254d565b610758565b005b61024d600480360381019061024891906124a0565b61076e565b005b34801561025a575f80fd5b50610275600480360381019061027091906124a0565b61081e565b604051610287969594939291906125d4565b60405180910390f35b34801561029b575f80fd5b506102b660048036038101906102b1919061263a565b610926565b005b3480156102c3575f80fd5b506102cc610a25565b005b3480156102d9575f80fd5b506102f460048036038101906102ef919061263a565b610a7f565b005b348015610301575f80fd5b5061031c6004803603810190610317919061268a565b610a9e565b604051610329919061276c565b60405180910390f35b34801561033d575f80fd5b50610358600480360381019061035391906128b8565b610b8c565b005b348015610365575f80fd5b50610380600480360381019061037b9190612912565b610bdd565b005b34801561038d575f80fd5b506103a860048036038101906103a391906124a0565b610c93565b6040516103b5919061250a565b60405180910390f35b3480156103c9575f80fd5b506103e460048036038101906103df919061268a565b610ca4565b6040516103f19190612950565b60405180910390f35b348015610405575f80fd5b5061040e610d5a565b005b34801561041b575f80fd5b5061043660048036038101906104319190612969565b610d6d565b005b348015610443575f80fd5b5061044c610db4565b604051610459919061250a565b60405180910390f35b34801561046d575f80fd5b50610476610ddb565b604051610483919061244d565b60405180910390f35b348015610497575f80fd5b506104b260048036038101906104ad91906129da565b610e6b565b005b3480156104bf575f80fd5b506104da60048036038101906104d59190612ab6565b610e81565b005b3480156104e7575f80fd5b5061050260048036038101906104fd9190612b93565b610e9e565b005b34801561050f575f80fd5b5061052a600480360381019061052591906124a0565b610f5f565b604051610537919061244d565b60405180910390f35b34801561054b575f80fd5b50610566600480360381019061056191906124a0565b610fc5565b005b348015610573575f80fd5b5061058e60048036038101906105899190612bf0565b610fd7565b60405161059b91906123aa565b60405180910390f35b3480156105af575f80fd5b506105ca60048036038101906105c5919061268a565b611065565b005b5f7f80ac58cd000000000000000000000000000000000000000000000000000000007bffffffffffffffffffffffffffffffffffffffffffffffffffffffff1916827bffffffffffffffffffffffffffffffffffffffffffffffffffffffff1916148061069657507f5b5e139f000000000000000000000000000000000000000000000000000000007bffffffffffffffffffffffffffffffffffffffffffffffffffffffff1916827bffffffffffffffffffffffffffffffffffffffffffffffffffffffff1916145b806106a657506106a5826110e9565b5b9050919050565b6060600180546106bc90612c5b565b80601f01602080910402602001604051908101604052809291908181526020018280546106e890612c5b565b80156107335780601f1061070a57610100808354040283529160200191610733565b820191905f5260205f20905b81548152906001019060200180831161071657829003601f168201915b5050505050905090565b5f61074782611152565b50610751826111d8565b9050919050565b61076a8282610765611211565b611218565b5050565b600b54341461077b575f80fd5b600a818154811061078f5761078e612c8b565b5b905f5260205f2090600302016002015f81819054906101000a900463ffffffff16809291906107bd90612ce5565b91906101000a81548163ffffffff021916908363ffffffff160217905550600a82815481106107ef576107ee612c8b565b5b905f5260205f2090600302016002015f6101000a81548163ffffffff021916908363ffffffff16021790555050565b600a818154811061082d575f80fd5b905f5260205f2090600302015f91509050805f01805461084c90612c5b565b80601f016020809104026020016040519081016040528092919081815260200182805461087890612c5b565b80156108c35780601f1061089a576101008083540402835291602001916108c3565b820191905f5260205f20905b8154815290600101906020018083116108a657829003601f168201915b505050505090806001015490806002015f9054906101000a900463ffffffff16908060020160049054906101000a900463ffffffff16908060020160089054906101000a900461ffff169080600201600a9054906101000a900461ffff16905086565b5f73ffffffffffffffffffffffffffffffffffffffff168273ffffffffffffffffffffffffffffffffffffffff1603610996575f6040517f64a0ae9200000000000000000000000000000000000000000000000000000000815260040161098d919061250a565b60405180910390fd5b5f6109a983836109a4611211565b61122a565b90508373ffffffffffffffffffffffffffffffffffffffff168173ffffffffffffffffffffffffffffffffffffffff1614610a1f578382826040517f64283d7b000000000000000000000000000000000000000000000000000000008152600401610a1693929190612d10565b60405180910390fd5b50505050565b610a2d611435565b5f610a36610db4565b90508073ffffffffffffffffffffffffffffffffffffffff166108fc4790811502906040515f60405180830381858888f19350505050158015610a7b573d5f803e3d5ffd5b5050565b610a9983838360405180602001604052805f815250610e81565b505050565b60605f610aaa83610ca4565b67ffffffffffffffff811115610ac357610ac2612794565b5b604051908082528060200260200182016040528015610af15781602001602082028036833780820191505090505b5090505f805b600a80549050811015610b81578473ffffffffffffffffffffffffffffffffffffffff16610b2482610c93565b73ffffffffffffffffffffffffffffffffffffffff1603610b6e5780838381518110610b5357610b52612c8b565b5b6020026020010181815250508180610b6a90612d45565b9250505b8080610b7990612d45565b915050610af7565b508192505050919050565b5f610b96826114bc565b9050610bd883826040518060400160405280600581526020017f6b697474790000000000000000000000000000000000000000000000000000008152506114ff565b505050565b60148281600a8281548110610bf557610bf4612c8b565b5b905f5260205f2090600302016002015f9054906101000a900463ffffffff1663ffffffff161015610c24575f80fd5b83610c2e8161166a565b73ffffffffffffffffffffffffffffffffffffffff163373ffffffffffffffffffffffffffffffffffffffff1614610c64575f80fd5b83600a8681548110610c7957610c78612c8b565b5b905f5260205f209060030201600101819055505050505050565b5f610c9d82611152565b9050919050565b5f8073ffffffffffffffffffffffffffffffffffffffff168273ffffffffffffffffffffffffffffffffffffffff1603610d15575f6040517f89c62b64000000000000000000000000000000000000000000000000000000008152600401610d0c919061250a565b60405180910390fd5b60045f8373ffffffffffffffffffffffffffffffffffffffff1673ffffffffffffffffffffffffffffffffffffffff1681526020019081526020015f20549050919050565b610d62611435565b610d6b5f6116a3565b565b5f610d7733610ca4565b14610d80575f80fd5b5f610d8a826114bc565b9050606481610d999190612db9565b81610da49190612de9565b9050610db08282611764565b5050565b5f805f9054906101000a900473ffffffffffffffffffffffffffffffffffffffff16905090565b606060028054610dea90612c5b565b80601f0160208091040260200160405190810160405280929190818152602001828054610e1690612c5b565b8015610e615780601f10610e3857610100808354040283529160200191610e61565b820191905f5260205f20905b815481529060010190602001808311610e4457829003601f168201915b5050505050905090565b610e7d610e76611211565b83836118ed565b5050565b610e8c848484610926565b610e9884848484611a56565b50505050565b60028381600a8281548110610eb657610eb5612c8b565b5b905f5260205f2090600302016002015f9054906101000a900463ffffffff1663ffffffff161015610ee5575f80fd5b84610eef8161166a565b73ffffffffffffffffffffffffffffffffffffffff163373ffffffffffffffffffffffffffffffffffffffff1614610f25575f80fd5b8484600a8881548110610f3b57610f3a612c8b565b5b905f5260205f2090600302015f019182610f56929190612fc3565b50505050505050565b6060610f6a82611152565b505f610f74611c08565b90505f815111610f925760405180602001604052805f815250610fbd565b80610f9c84611c1e565b604051602001610fad9291906130ca565b6040516020818303038152906040525b915050919050565b610fcd611435565b80600b8190555050565b5f60065f8473ffffffffffffffffffffffffffffffffffffffff1673ffffffffffffffffffffffffffffffffffffffff1681526020019081526020015f205f8373ffffffffffffffffffffffffffffffffffffffff1673ffffffffffffffffffffffffffffffffffffffff1681526020019081526020015f205f9054906101000a900460ff16905092915050565b61106d611435565b5f73ffffffffffffffffffffffffffffffffffffffff168173ffffffffffffffffffffffffffffffffffffffff16036110dd575f6040517f1e4fbdf70000000000000000000000000000000000000000000000000000000081526004016110d4919061250a565b60405180910390fd5b6110e6816116a3565b50565b5f7f01ffc9a7000000000000000000000000000000000000000000000000000000007bffffffffffffffffffffffffffffffffffffffffffffffffffffffff1916827bffffffffffffffffffffffffffffffffffffffffffffffffffffffff1916149050919050565b5f8061115d8361166a565b90505f73ffffffffffffffffffffffffffffffffffffffff168173ffffffffffffffffffffffffffffffffffffffff16036111cf57826040517f7e2732890000000000000000000000000000000000000000000000000000000081526004016111c69190612950565b60405180910390fd5b80915050919050565b5f60055f8381526020019081526020015f205f9054906101000a900473ffffffffffffffffffffffffffffffffffffffff169050919050565b5f33905090565b6112258383836001611ce8565b505050565b5f806112358461166a565b90505f73ffffffffffffffffffffffffffffffffffffffff168373ffffffffffffffffffffffffffffffffffffffff161461127657611275818486611ea7565b5b5f73ffffffffffffffffffffffffffffffffffffffff168173ffffffffffffffffffffffffffffffffffffffff1614611301576112b55f855f80611ce8565b600160045f8373ffffffffffffffffffffffffffffffffffffffff1673ffffffffffffffffffffffffffffffffffffffff1681526020019081526020015f205f82825403925050819055505b5f73ffffffffffffffffffffffffffffffffffffffff168573ffffffffffffffffffffffffffffffffffffffff161461138057600160045f8773ffffffffffffffffffffffffffffffffffffffff1673ffffffffffffffffffffffffffffffffffffffff1681526020019081526020015f205f82825401925050819055505b8460035f8681526020019081526020015f205f6101000a81548173ffffffffffffffffffffffffffffffffffffffff021916908373ffffffffffffffffffffffffffffffffffffffff160217905550838573ffffffffffffffffffffffffffffffffffffffff168273ffffffffffffffffffffffffffffffffffffffff167fddf252ad1be2c89b69c2b068fc378daa952ba7f163c4a11628f55a4df523b3ef60405160405180910390a4809150509392505050565b61143d611211565b73ffffffffffffffffffffffffffffffffffffffff1661145b610db4565b73ffffffffffffffffffffffffffffffffffffffff16146114ba5761147e611211565b6040517f118cdaa70000000000000000000000000000000000000000000000000000000081526004016114b1919061250a565b60405180910390fd5b565b5f80826040516020016114cf91906130ed565b604051602081830303815290604052805190602001205f1c9050600854816114f79190612db9565b915050919050565b826115098161166a565b73ffffffffffffffffffffffffffffffffffffffff163373ffffffffffffffffffffffffffffffffffffffff161461153f575f80fd5b5f600a858154811061155457611553612c8b565b5b905f5260205f209060030201905061156b81611f6a565b611573575f80fd5b600854846115819190612db9565b93505f60028583600101546115969190613103565b6115a09190613136565b90506040516020016115b1906131b0565b60405160208183030381529060405280519060200120846040516020016115d891906130ed565b604051602081830303815290604052805190602001200361161a5760636064826116029190612db9565b8261160d9190612de9565b6116179190613103565b90505b6116596040518060400160405280600681526020017f4e6f4e616d65000000000000000000000000000000000000000000000000000081525082611764565b61166282611f90565b505050505050565b5f60035f8381526020019081526020015f205f9054906101000a900473ffffffffffffffffffffffffffffffffffffffff169050919050565b5f805f9054906101000a900473ffffffffffffffffffffffffffffffffffffffff169050815f806101000a81548173ffffffffffffffffffffffffffffffffffffffff021916908373ffffffffffffffffffffffffffffffffffffffff1602179055508173ffffffffffffffffffffffffffffffffffffffff168173ffffffffffffffffffffffffffffffffffffffff167f8be0079c531659141344cd1fd0a4f28419497f9722a3daafe3b4186f6b6457e060405160405180910390a35050565b600a6040518060c00160405280848152602001838152602001600163ffffffff168152602001600954426117989190613103565b63ffffffff1681526020015f61ffff1681526020015f61ffff16815250908060018154018082558091505060019003905f5260205f2090600302015f909190919091505f820151815f0190816117ee91906131c4565b50602082015181600101556040820151816002015f6101000a81548163ffffffff021916908363ffffffff16021790555060608201518160020160046101000a81548163ffffffff021916908363ffffffff16021790555060808201518160020160086101000a81548161ffff021916908361ffff16021790555060a082015181600201600a6101000a81548161ffff021916908361ffff16021790555050505f6001600a805490506118a19190612de9565b90506118ad3382611fc3565b7f88f026aacbbecc90c18411df4b1185fd8d9be2470f1962f192bf84a27d0704b78184846040516118e093929190613293565b60405180910390a1505050565b5f73ffffffffffffffffffffffffffffffffffffffff168273ffffffffffffffffffffffffffffffffffffffff160361195d57816040517f5b08ba18000000000000000000000000000000000000000000000000000000008152600401611954919061250a565b60405180910390fd5b8060065f8573ffffffffffffffffffffffffffffffffffffffff1673ffffffffffffffffffffffffffffffffffffffff1681526020019081526020015f205f8473ffffffffffffffffffffffffffffffffffffffff1673ffffffffffffffffffffffffffffffffffffffff1681526020019081526020015f205f6101000a81548160ff0219169083151502179055508173ffffffffffffffffffffffffffffffffffffffff168373ffffffffffffffffffffffffffffffffffffffff167f17307eab39ab6107e8899845ad3d59bd9653f200f220920489ca2b5937696c3183604051611a4991906123aa565b60405180910390a3505050565b5f8373ffffffffffffffffffffffffffffffffffffffff163b1115611c02578273ffffffffffffffffffffffffffffffffffffffff1663150b7a02611a99611211565b8685856040518563ffffffff1660e01b8152600401611abb9493929190613321565b6020604051808303815f875af1925050508015611af657506040513d601f19601f82011682018060405250810190611af3919061337f565b60015b611b77573d805f8114611b24576040519150601f19603f3d011682016040523d82523d5f602084013e611b29565b606091505b505f815103611b6f57836040517f64a0ae92000000000000000000000000000000000000000000000000000000008152600401611b66919061250a565b60405180910390fd5b805181602001fd5b63150b7a0260e01b7bffffffffffffffffffffffffffffffffffffffffffffffffffffffff1916817bffffffffffffffffffffffffffffffffffffffffffffffffffffffff191614611c0057836040517f64a0ae92000000000000000000000000000000000000000000000000000000008152600401611bf7919061250a565b60405180910390fd5b505b50505050565b606060405180602001604052805f815250905090565b60605f6001611c2c84611fe0565b0190505f8167ffffffffffffffff811115611c4a57611c49612794565b5b6040519080825280601f01601f191660200182016040528015611c7c5781602001600182028036833780820191505090505b5090505f82602001820190505b600115611cdd578080600190039150507f3031323334353637383961626364656600000000000000000000000000000000600a86061a8153600a8581611cd257611cd1612d8c565b5b0494505f8503611c89575b819350505050919050565b8080611d2057505f73ffffffffffffffffffffffffffffffffffffffff168273ffffffffffffffffffffffffffffffffffffffff1614155b15611e52575f611d2f84611152565b90505f73ffffffffffffffffffffffffffffffffffffffff168373ffffffffffffffffffffffffffffffffffffffff1614158015611d9957508273ffffffffffffffffffffffffffffffffffffffff168173ffffffffffffffffffffffffffffffffffffffff1614155b8015611dac5750611daa8184610fd7565b155b15611dee57826040517fa9fbf51f000000000000000000000000000000000000000000000000000000008152600401611de5919061250a565b60405180910390fd5b8115611e5057838573ffffffffffffffffffffffffffffffffffffffff168273ffffffffffffffffffffffffffffffffffffffff167f8c5be1e5ebec7d5bd14f71427d1e84f3dd0314c0f7b2291e5b200ac8c7c3b92560405160405180910390a45b505b8360055f8581526020019081526020015f205f6101000a81548173ffffffffffffffffffffffffffffffffffffffff021916908373ffffffffffffffffffffffffffffffffffffffff16021790555050505050565b611eb2838383612131565b611f65575f73ffffffffffffffffffffffffffffffffffffffff168373ffffffffffffffffffffffffffffffffffffffff1603611f2657806040517f7e273289000000000000000000000000000000000000000000000000000000008152600401611f1d9190612950565b60405180910390fd5b81816040517f177e802f000000000000000000000000000000000000000000000000000000008152600401611f5c9291906133aa565b60405180910390fd5b505050565b5f428260020160049054906101000a900463ffffffff1663ffffffff1611159050919050565b60095442611f9e9190613103565b8160020160046101000a81548163ffffffff021916908363ffffffff16021790555050565b611fdc828260405180602001604052805f8152506121f1565b5050565b5f805f90507a184f03e93ff9f4daa797ed6e38ed64bf6a1f010000000000000000831061203c577a184f03e93ff9f4daa797ed6e38ed64bf6a1f010000000000000000838161203257612031612d8c565b5b0492506040810190505b6d04ee2d6d415b85acef81000000008310612079576d04ee2d6d415b85acef8100000000838161206f5761206e612d8c565b5b0492506020810190505b662386f26fc1000083106120a857662386f26fc10000838161209e5761209d612d8c565b5b0492506010810190505b6305f5e10083106120d1576305f5e10083816120c7576120c6612d8c565b5b0492506008810190505b61271083106120f65761271083816120ec576120eb612d8c565b5b0492506004810190505b60648310612119576064838161210f5761210e612d8c565b5b0492506002810190505b600a8310612128576001810190505b80915050919050565b5f8073ffffffffffffffffffffffffffffffffffffffff168373ffffffffffffffffffffffffffffffffffffffff16141580156121e857508273ffffffffffffffffffffffffffffffffffffffff168473ffffffffffffffffffffffffffffffffffffffff1614806121a957506121a88484610fd7565b5b806121e757508273ffffffffffffffffffffffffffffffffffffffff166121cf836111d8565b73ffffffffffffffffffffffffffffffffffffffff16145b5b90509392505050565b6121fb838361220c565b6122075f848484611a56565b505050565b5f73ffffffffffffffffffffffffffffffffffffffff168273ffffffffffffffffffffffffffffffffffffffff160361227c575f6040517f64a0ae92000000000000000000000000000000000000000000000000000000008152600401612273919061250a565b60405180910390fd5b5f61228883835f61122a565b90505f73ffffffffffffffffffffffffffffffffffffffff168173ffffffffffffffffffffffffffffffffffffffff16146122fa575f6040517f73c6ac6e0000000000000000000000000000000000000000000000000000000081526004016122f1919061250a565b60405180910390fd5b505050565b5f604051905090565b5f80fd5b5f80fd5b5f7fffffffff0000000000000000000000000000000000000000000000000000000082169050919050565b61234481612310565b811461234e575f80fd5b50565b5f8135905061235f8161233b565b92915050565b5f6020828403121561237a57612379612308565b5b5f61238784828501612351565b91505092915050565b5f8115159050919050565b6123a481612390565b82525050565b5f6020820190506123bd5f83018461239b565b92915050565b5f81519050919050565b5f82825260208201905092915050565b5f5b838110156123fa5780820151818401526020810190506123df565b5f8484015250505050565b5f601f19601f8301169050919050565b5f61241f826123c3565b61242981856123cd565b93506124398185602086016123dd565b61244281612405565b840191505092915050565b5f6020820190508181035f8301526124658184612415565b905092915050565b5f819050919050565b61247f8161246d565b8114612489575f80fd5b50565b5f8135905061249a81612476565b92915050565b5f602082840312156124b5576124b4612308565b5b5f6124c28482850161248c565b91505092915050565b5f73ffffffffffffffffffffffffffffffffffffffff82169050919050565b5f6124f4826124cb565b9050919050565b612504816124ea565b82525050565b5f60208201905061251d5f8301846124fb565b92915050565b61252c816124ea565b8114612536575f80fd5b50565b5f8135905061254781612523565b92915050565b5f806040838503121561256357612562612308565b5b5f61257085828601612539565b92505060206125818582860161248c565b9150509250929050565b6125948161246d565b82525050565b5f63ffffffff82169050919050565b6125b28161259a565b82525050565b5f61ffff82169050919050565b6125ce816125b8565b82525050565b5f60c0820190508181035f8301526125ec8189612415565b90506125fb602083018861258b565b61260860408301876125a9565b61261560608301866125a9565b61262260808301856125c5565b61262f60a08301846125c5565b979650505050505050565b5f805f6060848603121561265157612650612308565b5b5f61265e86828701612539565b935050602061266f86828701612539565b92505060406126808682870161248c565b9150509250925092565b5f6020828403121561269f5761269e612308565b5b5f6126ac84828501612539565b91505092915050565b5f81519050919050565b5f82825260208201905092915050565b5f819050602082019050919050565b6126e78161246d565b82525050565b5f6126f883836126de565b60208301905092915050565b5f602082019050919050565b5f61271a826126b5565b61272481856126bf565b935061272f836126cf565b805f5b8381101561275f57815161274688826126ed565b975061275183612704565b925050600181019050612732565b5085935050505092915050565b5f6020820190508181035f8301526127848184612710565b905092915050565b5f80fd5b5f80fd5b7f4e487b71000000000000000000000000000000000000000000000000000000005f52604160045260245ffd5b6127ca82612405565b810181811067ffffffffffffffff821117156127e9576127e8612794565b5b80604052505050565b5f6127fb6122ff565b905061280782826127c1565b919050565b5f67ffffffffffffffff82111561282657612825612794565b5b61282f82612405565b9050602081019050919050565b828183375f83830152505050565b5f61285c6128578461280c565b6127f2565b90508281526020810184848401111561287857612877612790565b5b61288384828561283c565b509392505050565b5f82601f83011261289f5761289e61278c565b5b81356128af84826020860161284a565b91505092915050565b5f80604083850312156128ce576128cd612308565b5b5f6128db8582860161248c565b925050602083013567ffffffffffffffff8111156128fc576128fb61230c565b5b6129088582860161288b565b9150509250929050565b5f806040838503121561292857612927612308565b5b5f6129358582860161248c565b92505060206129468582860161248c565b9150509250929050565b5f6020820190506129635f83018461258b565b92915050565b5f6020828403121561297e5761297d612308565b5b5f82013567ffffffffffffffff81111561299b5761299a61230c565b5b6129a78482850161288b565b91505092915050565b6129b981612390565b81146129c3575f80fd5b50565b5f813590506129d4816129b0565b92915050565b5f80604083850312156129f0576129ef612308565b5b5f6129fd85828601612539565b9250506020612a0e858286016129c6565b9150509250929050565b5f67ffffffffffffffff821115612a3257612a31612794565b5b612a3b82612405565b9050602081019050919050565b5f612a5a612a5584612a18565b6127f2565b905082815260208101848484011115612a7657612a75612790565b5b612a8184828561283c565b509392505050565b5f82601f830112612a9d57612a9c61278c565b5b8135612aad848260208601612a48565b91505092915050565b5f805f8060808587031215612ace57612acd612308565b5b5f612adb87828801612539565b9450506020612aec87828801612539565b9350506040612afd8782880161248c565b925050606085013567ffffffffffffffff811115612b1e57612b1d61230c565b5b612b2a87828801612a89565b91505092959194509250565b5f80fd5b5f80fd5b5f8083601f840112612b5357612b5261278c565b5b8235905067ffffffffffffffff811115612b7057612b6f612b36565b5b602083019150836001820283011115612b8c57612b8b612b3a565b5b9250929050565b5f805f60408486031215612baa57612ba9612308565b5b5f612bb78682870161248c565b935050602084013567ffffffffffffffff811115612bd857612bd761230c565b5b612be486828701612b3e565b92509250509250925092565b5f8060408385031215612c0657612c05612308565b5b5f612c1385828601612539565b9250506020612c2485828601612539565b9150509250929050565b7f4e487b71000000000000000000000000000000000000000000000000000000005f52602260045260245ffd5b5f6002820490506001821680612c7257607f821691505b602082108103612c8557612c84612c2e565b5b50919050565b7f4e487b71000000000000000000000000000000000000000000000000000000005f52603260045260245ffd5b7f4e487b71000000000000000000000000000000000000000000000000000000005f52601160045260245ffd5b5f612cef8261259a565b915063ffffffff8203612d0557612d04612cb8565b5b600182019050919050565b5f606082019050612d235f8301866124fb565b612d30602083018561258b565b612d3d60408301846124fb565b949350505050565b5f612d4f8261246d565b91507fffffffffffffffffffffffffffffffffffffffffffffffffffffffffffffffff8203612d8157612d80612cb8565b5b600182019050919050565b7f4e487b71000000000000000000000000000000000000000000000000000000005f52601260045260245ffd5b5f612dc38261246d565b9150612dce8361246d565b925082612dde57612ddd612d8c565b5b828206905092915050565b5f612df38261246d565b9150612dfe8361246d565b9250828203905081811115612e1657612e15612cb8565b5b92915050565b5f82905092915050565b5f819050815f5260205f209050919050565b5f6020601f8301049050919050565b5f82821b905092915050565b5f60088302612e827fffffffffffffffffffffffffffffffffffffffffffffffffffffffffffffffff82612e47565b612e8c8683612e47565b95508019841693508086168417925050509392505050565b5f819050919050565b5f612ec7612ec2612ebd8461246d565b612ea4565b61246d565b9050919050565b5f819050919050565b612ee083612ead565b612ef4612eec82612ece565b848454612e53565b825550505050565b5f90565b612f08612efc565b612f13818484612ed7565b505050565b5b81811015612f3657612f2b5f82612f00565b600181019050612f19565b5050565b601f821115612f7b57612f4c81612e26565b612f5584612e38565b81016020851015612f64578190505b612f78612f7085612e38565b830182612f18565b50505b505050565b5f82821c905092915050565b5f612f9b5f1984600802612f80565b1980831691505092915050565b5f612fb38383612f8c565b9150826002028217905092915050565b612fcd8383612e1c565b67ffffffffffffffff811115612fe657612fe5612794565b5b612ff08254612c5b565b612ffb828285612f3a565b5f601f831160018114613028575f8415613016578287013590505b6130208582612fa8565b865550613087565b601f19841661303686612e26565b5f5b8281101561305d57848901358255600182019150602085019450602081019050613038565b8683101561307a5784890135613076601f891682612f8c565b8355505b6001600288020188555050505b50505050505050565b5f81905092915050565b5f6130a4826123c3565b6130ae8185613090565b93506130be8185602086016123dd565b80840191505092915050565b5f6130d5828561309a565b91506130e1828461309a565b91508190509392505050565b5f6130f8828461309a565b915081905092915050565b5f61310d8261246d565b91506131188361246d565b92508282019050808211156131305761312f612cb8565b5b92915050565b5f6131408261246d565b915061314b8361246d565b92508261315b5761315a612d8c565b5b828204905092915050565b7f6b697474790000000000000000000000000000000000000000000000000000005f82015250565b5f61319a600583613090565b91506131a582613166565b600582019050919050565b5f6131ba8261318e565b9150819050919050565b6131cd826123c3565b67ffffffffffffffff8111156131e6576131e5612794565b5b6131f08254612c5b565b6131fb828285612f3a565b5f60209050601f83116001811461322c575f841561321a578287015190505b6132248582612fa8565b86555061328b565b601f19841661323a86612e26565b5f5b828110156132615784890151825560018201915060208501945060208101905061323c565b8683101561327e578489015161327a601f891682612f8c565b8355505b6001600288020188555050505b505050505050565b5f6060820190506132a65f83018661258b565b81810360208301526132b88185612415565b90506132c7604083018461258b565b949350505050565b5f81519050919050565b5f82825260208201905092915050565b5f6132f3826132cf565b6132fd81856132d9565b935061330d8185602086016123dd565b61331681612405565b840191505092915050565b5f6080820190506133345f8301876124fb565b61334160208301866124fb565b61334e604083018561258b565b818103606083015261336081846132e9565b905095945050505050565b5f815190506133798161233b565b92915050565b5f6020828403121561339457613393612308565b5b5f6133a18482850161336b565b91505092915050565b5f6040820190506133bd5f8301856124fb565b6133ca602083018461258b565b939250505056fea26469706673582212202796bc82a57ce47ad9218c8e971c1f642bacee974f82277842451a8ab42bf4e664736f6c63430008150033",
  "immutableReferences": {},
  "source": "// SPDX-License-Identifier: MIT\r\npragma solidity ^0.8.4;\r\n\r\nimport \"./zombieFeeding.sol\";\r\n\r\ncontract ZombieHelper is ZombieFeeding {\r\n\r\n  uint levelUpFee = 0.001 ether;\r\n\r\n   constructor(address initialOwner, string memory name_, string memory symbol_) ZombieFeeding(initialOwner, name_, symbol_) {\r\n  }\r\n\r\n  modifier aboveLevel(uint _level, uint _zombieId) {\r\n    require(zombies[_zombieId].level >= _level);\r\n    _;\r\n  }\r\n\r\n  function withdraw() external onlyOwner {\r\n    address payable _owner = payable(owner());\r\n    _owner.transfer(address(this).balance);\r\n  }\r\n\r\n  function setLevelUpFee(uint _fee) external onlyOwner {\r\n    levelUpFee = _fee;\r\n  }\r\n\r\n  function levelUp(uint _zombieId) external payable {\r\n    require(msg.value == levelUpFee);\r\n    zombies[_zombieId].level = zombies[_zombieId].level++;\r\n  }\r\n\r\n  function changeName(uint _zombieId, string calldata _newName) external aboveLevel(2, _zombieId) onlyOwnerOf(_zombieId) {\r\n    zombies[_zombieId].name = _newName;\r\n  }\r\n\r\n  function changeDna(uint _zombieId, uint _newDna) external aboveLevel(20, _zombieId) onlyOwnerOf(_zombieId) {\r\n    zombies[_zombieId].dna = _newDna;\r\n  }\r\n\r\n  function getZombiesByOwner(address _owner) external view returns(uint[] memory) {\r\n    uint[] memory result = new uint[](balanceOf(_owner));\r\n    uint counter = 0;\r\n    for (uint i = 0; i < zombies.length; i++) {\r\n      if (ownerOf(i) == _owner) {\r\n        result[counter] = i;\r\n        counter++;\r\n      }\r\n    }\r\n    return result;\r\n  }\r\n\r\n}\r\n",
  "sourcePath": "/home/juan-ubuntu/cryptoZombies/contracts/zombieHelper.sol",
  "compiler": {
    "name": "solc",
    "version": "0.8.21+commit.d9974bed.Emscripten.clang"
  },
  "schemaVersion": "3.4.16",
  "updatedAt": "2023-10-18T10:14:43.539Z",
  "devdoc": {
    "errors": {
      "ERC721IncorrectOwner(address,uint256,address)": [
        {
          "details": "Indicates an error related to the ownership over a particular token. Used in transfers.",
          "params": {
            "owner": "Address of the current owner of a token.",
            "sender": "Address whose tokens are being transferred.",
            "tokenId": "Identifier number of a token."
          }
        }
      ],
      "ERC721InsufficientApproval(address,uint256)": [
        {
          "details": "Indicates a failure with the `operator`s approval. Used in transfers.",
          "params": {
            "operator": "Address that may be allowed to operate on tokens without being their owner.",
            "tokenId": "Identifier number of a token."
          }
        }
      ],
      "ERC721InvalidApprover(address)": [
        {
          "details": "Indicates a failure with the `approver` of a token to be approved. Used in approvals.",
          "params": {
            "approver": "Address initiating an approval operation."
          }
        }
      ],
      "ERC721InvalidOperator(address)": [
        {
          "details": "Indicates a failure with the `operator` to be approved. Used in approvals.",
          "params": {
            "operator": "Address that may be allowed to operate on tokens without being their owner."
          }
        }
      ],
      "ERC721InvalidOwner(address)": [
        {
          "details": "Indicates that an address can't be an owner. For example, `address(0)` is a forbidden owner in EIP-20. Used in balance queries.",
          "params": {
            "owner": "Address of the current owner of a token."
          }
        }
      ],
      "ERC721InvalidReceiver(address)": [
        {
          "details": "Indicates a failure with the token `receiver`. Used in transfers.",
          "params": {
            "receiver": "Address to which tokens are being transferred."
          }
        }
      ],
      "ERC721InvalidSender(address)": [
        {
          "details": "Indicates a failure with the token `sender`. Used in transfers.",
          "params": {
            "sender": "Address whose tokens are being transferred."
          }
        }
      ],
      "ERC721NonexistentToken(uint256)": [
        {
          "details": "Indicates a `tokenId` whose `owner` is the zero address.",
          "params": {
            "tokenId": "Identifier number of a token."
          }
        }
      ],
      "OwnableInvalidOwner(address)": [
        {
          "details": "The owner is not a valid owner account. (eg. `address(0)`)"
        }
      ],
      "OwnableUnauthorizedAccount(address)": [
        {
          "details": "The caller account is not authorized to perform an operation."
        }
      ]
    },
    "events": {
      "Approval(address,address,uint256)": {
        "details": "Emitted when `owner` enables `approved` to manage the `tokenId` token."
      },
      "ApprovalForAll(address,address,bool)": {
        "details": "Emitted when `owner` enables or disables (`approved`) `operator` to manage all of its assets."
      },
      "Transfer(address,address,uint256)": {
        "details": "Emitted when `tokenId` token is transferred from `from` to `to`."
      }
    },
    "kind": "dev",
    "methods": {
      "approve(address,uint256)": {
        "details": "See {IERC721-approve}."
      },
      "balanceOf(address)": {
        "details": "See {IERC721-balanceOf}."
      },
      "getApproved(uint256)": {
        "details": "See {IERC721-getApproved}."
      },
      "isApprovedForAll(address,address)": {
        "details": "See {IERC721-isApprovedForAll}."
      },
      "name()": {
        "details": "See {IERC721Metadata-name}."
      },
      "owner()": {
        "details": "Returns the address of the current owner."
      },
      "ownerOf(uint256)": {
        "details": "See {IERC721-ownerOf}."
      },
      "renounceOwnership()": {
        "details": "Leaves the contract without owner. It will not be possible to call `onlyOwner` functions. Can only be called by the current owner. NOTE: Renouncing ownership will leave the contract without an owner, thereby disabling any functionality that is only available to the owner."
      },
      "safeTransferFrom(address,address,uint256)": {
        "details": "See {IERC721-safeTransferFrom}."
      },
      "safeTransferFrom(address,address,uint256,bytes)": {
        "details": "See {IERC721-safeTransferFrom}."
      },
      "setApprovalForAll(address,bool)": {
        "details": "See {IERC721-setApprovalForAll}."
      },
      "supportsInterface(bytes4)": {
        "details": "See {IERC165-supportsInterface}."
      },
      "symbol()": {
        "details": "See {IERC721Metadata-symbol}."
      },
      "tokenURI(uint256)": {
        "details": "See {IERC721Metadata-tokenURI}."
      },
      "transferFrom(address,address,uint256)": {
        "details": "See {IERC721-transferFrom}."
      },
      "transferOwnership(address)": {
        "details": "Transfers ownership of the contract to a new account (`newOwner`). Can only be called by the current owner."
      }
    },
    "version": 1
  },
  "userdoc": {
    "kind": "user",
    "methods": {},
    "version": 1
  }
}