{
  "contractName": "ZombieAttack",
  "abi": [
    {
      "inputs": [
        {
          "internalType": "address",
          "name": "initialOwner",
          "type": "address"
        },
        {
          "internalType": "string",
          "name": "name_",
          "type": "string"
        },
        {
          "internalType": "string",
          "name": "symbol_",
          "type": "string"
        }
      ],
      "stateMutability": "nonpayable",
      "type": "constructor"
    },
    {
      "inputs": [
        {
          "internalType": "address",
          "name": "sender",
          "type": "address"
        },
        {
          "internalType": "uint256",
          "name": "tokenId",
          "type": "uint256"
        },
        {
          "internalType": "address",
          "name": "owner",
          "type": "address"
        }
      ],
      "name": "ERC721IncorrectOwner",
      "type": "error"
    },
    {
      "inputs": [
        {
          "internalType": "address",
          "name": "operator",
          "type": "address"
        },
        {
          "internalType": "uint256",
          "name": "tokenId",
          "type": "uint256"
        }
      ],
      "name": "ERC721InsufficientApproval",
      "type": "error"
    },
    {
      "inputs": [
        {
          "internalType": "address",
          "name": "approver",
          "type": "address"
        }
      ],
      "name": "ERC721InvalidApprover",
      "type": "error"
    },
    {
      "inputs": [
        {
          "internalType": "address",
          "name": "operator",
          "type": "address"
        }
      ],
      "name": "ERC721InvalidOperator",
      "type": "error"
    },
    {
      "inputs": [
        {
          "internalType": "address",
          "name": "owner",
          "type": "address"
        }
      ],
      "name": "ERC721InvalidOwner",
      "type": "error"
    },
    {
      "inputs": [
        {
          "internalType": "address",
          "name": "receiver",
          "type": "address"
        }
      ],
      "name": "ERC721InvalidReceiver",
      "type": "error"
    },
    {
      "inputs": [
        {
          "internalType": "address",
          "name": "sender",
          "type": "address"
        }
      ],
      "name": "ERC721InvalidSender",
      "type": "error"
    },
    {
      "inputs": [
        {
          "internalType": "uint256",
          "name": "tokenId",
          "type": "uint256"
        }
      ],
      "name": "ERC721NonexistentToken",
      "type": "error"
    },
    {
      "inputs": [
        {
          "internalType": "address",
          "name": "owner",
          "type": "address"
        }
      ],
      "name": "OwnableInvalidOwner",
      "type": "error"
    },
    {
      "inputs": [
        {
          "internalType": "address",
          "name": "account",
          "type": "address"
        }
      ],
      "name": "OwnableUnauthorizedAccount",
      "type": "error"
    },
    {
      "anonymous": false,
      "inputs": [
        {
          "indexed": true,
          "internalType": "address",
          "name": "owner",
          "type": "address"
        },
        {
          "indexed": true,
          "internalType": "address",
          "name": "approved",
          "type": "address"
        },
        {
          "indexed": true,
          "internalType": "uint256",
          "name": "tokenId",
          "type": "uint256"
        }
      ],
      "name": "Approval",
      "type": "event"
    },
    {
      "anonymous": false,
      "inputs": [
        {
          "indexed": true,
          "internalType": "address",
          "name": "owner",
          "type": "address"
        },
        {
          "indexed": true,
          "internalType": "address",
          "name": "operator",
          "type": "address"
        },
        {
          "indexed": false,
          "internalType": "bool",
          "name": "approved",
          "type": "bool"
        }
      ],
      "name": "ApprovalForAll",
      "type": "event"
    },
    {
      "anonymous": false,
      "inputs": [
        {
          "indexed": false,
          "internalType": "uint256",
          "name": "zombieId",
          "type": "uint256"
        },
        {
          "indexed": false,
          "internalType": "string",
          "name": "name",
          "type": "string"
        },
        {
          "indexed": false,
          "internalType": "uint256",
          "name": "dna",
          "type": "uint256"
        }
      ],
      "name": "NewZombie",
      "type": "event"
    },
    {
      "anonymous": false,
      "inputs": [
        {
          "indexed": true,
          "internalType": "address",
          "name": "previousOwner",
          "type": "address"
        },
        {
          "indexed": true,
          "internalType": "address",
          "name": "newOwner",
          "type": "address"
        }
      ],
      "name": "OwnershipTransferred",
      "type": "event"
    },
    {
      "anonymous": false,
      "inputs": [
        {
          "indexed": true,
          "internalType": "address",
          "name": "from",
          "type": "address"
        },
        {
          "indexed": true,
          "internalType": "address",
          "name": "to",
          "type": "address"
        },
        {
          "indexed": true,
          "internalType": "uint256",
          "name": "tokenId",
          "type": "uint256"
        }
      ],
      "name": "Transfer",
      "type": "event"
    },
    {
      "inputs": [
        {
          "internalType": "address",
          "name": "to",
          "type": "address"
        },
        {
          "internalType": "uint256",
          "name": "tokenId",
          "type": "uint256"
        }
      ],
      "name": "approve",
      "outputs": [],
      "stateMutability": "nonpayable",
      "type": "function"
    },
    {
      "inputs": [
        {
          "internalType": "address",
          "name": "owner",
          "type": "address"
        }
      ],
      "name": "balanceOf",
      "outputs": [
        {
          "internalType": "uint256",
          "name": "",
          "type": "uint256"
        }
      ],
      "stateMutability": "view",
      "type": "function",
      "constant": true
    },
    {
      "inputs": [
        {
          "internalType": "uint256",
          "name": "_zombieId",
          "type": "uint256"
        },
        {
          "internalType": "uint256",
          "name": "_newDna",
          "type": "uint256"
        }
      ],
      "name": "changeDna",
      "outputs": [],
      "stateMutability": "nonpayable",
      "type": "function"
    },
    {
      "inputs": [
        {
          "internalType": "uint256",
          "name": "_zombieId",
          "type": "uint256"
        },
        {
          "internalType": "string",
          "name": "_newName",
          "type": "string"
        }
      ],
      "name": "changeName",
      "outputs": [],
      "stateMutability": "nonpayable",
      "type": "function"
    },
    {
      "inputs": [
        {
          "internalType": "string",
          "name": "_name",
          "type": "string"
        }
      ],
      "name": "createRandomZombie",
      "outputs": [],
      "stateMutability": "nonpayable",
      "type": "function"
    },
    {
      "inputs": [
        {
          "internalType": "uint256",
          "name": "_zombieId",
          "type": "uint256"
        },
        {
          "internalType": "string",
          "name": "_nameForDNA",
          "type": "string"
        }
      ],
      "name": "feedOnKitty",
      "outputs": [],
      "stateMutability": "nonpayable",
      "type": "function"
    },
    {
      "inputs": [
        {
          "internalType": "uint256",
          "name": "tokenId",
          "type": "uint256"
        }
      ],
      "name": "getApproved",
      "outputs": [
        {
          "internalType": "address",
          "name": "",
          "type": "address"
        }
      ],
      "stateMutability": "view",
      "type": "function",
      "constant": true
    },
    {
      "inputs": [
        {
          "internalType": "address",
          "name": "_owner",
          "type": "address"
        }
      ],
      "name": "getZombiesByOwner",
      "outputs": [
        {
          "internalType": "uint256[]",
          "name": "",
          "type": "uint256[]"
        }
      ],
      "stateMutability": "view",
      "type": "function",
      "constant": true
    },
    {
      "inputs": [
        {
          "internalType": "address",
          "name": "owner",
          "type": "address"
        },
        {
          "internalType": "address",
          "name": "operator",
          "type": "address"
        }
      ],
      "name": "isApprovedForAll",
      "outputs": [
        {
          "internalType": "bool",
          "name": "",
          "type": "bool"
        }
      ],
      "stateMutability": "view",
      "type": "function",
      "constant": true
    },
    {
      "inputs": [
        {
          "internalType": "uint256",
          "name": "_zombieId",
          "type": "uint256"
        }
      ],
      "name": "levelUp",
      "outputs": [],
      "stateMutability": "payable",
      "type": "function",
      "payable": true
    },
    {
      "inputs": [],
      "name": "name",
      "outputs": [
        {
          "internalType": "string",
          "name": "",
          "type": "string"
        }
      ],
      "stateMutability": "view",
      "type": "function",
      "constant": true
    },
    {
      "inputs": [],
      "name": "owner",
      "outputs": [
        {
          "internalType": "address",
          "name": "",
          "type": "address"
        }
      ],
      "stateMutability": "view",
      "type": "function",
      "constant": true
    },
    {
      "inputs": [
        {
          "internalType": "uint256",
          "name": "tokenId",
          "type": "uint256"
        }
      ],
      "name": "ownerOf",
      "outputs": [
        {
          "internalType": "address",
          "name": "",
          "type": "address"
        }
      ],
      "stateMutability": "view",
      "type": "function",
      "constant": true
    },
    {
      "inputs": [],
      "name": "renounceOwnership",
      "outputs": [],
      "stateMutability": "nonpayable",
      "type": "function"
    },
    {
      "inputs": [
        {
          "internalType": "address",
          "name": "from",
          "type": "address"
        },
        {
          "internalType": "address",
          "name": "to",
          "type": "address"
        },
        {
          "internalType": "uint256",
          "name": "tokenId",
          "type": "uint256"
        }
      ],
      "name": "safeTransferFrom",
      "outputs": [],
      "stateMutability": "nonpayable",
      "type": "function"
    },
    {
      "inputs": [
        {
          "internalType": "address",
          "name": "from",
          "type": "address"
        },
        {
          "internalType": "address",
          "name": "to",
          "type": "address"
        },
        {
          "internalType": "uint256",
          "name": "tokenId",
          "type": "uint256"
        },
        {
          "internalType": "bytes",
          "name": "data",
          "type": "bytes"
        }
      ],
      "name": "safeTransferFrom",
      "outputs": [],
      "stateMutability": "nonpayable",
      "type": "function"
    },
    {
      "inputs": [
        {
          "internalType": "address",
          "name": "operator",
          "type": "address"
        },
        {
          "internalType": "bool",
          "name": "approved",
          "type": "bool"
        }
      ],
      "name": "setApprovalForAll",
      "outputs": [],
      "stateMutability": "nonpayable",
      "type": "function"
    },
    {
      "inputs": [
        {
          "internalType": "uint256",
          "name": "_fee",
          "type": "uint256"
        }
      ],
      "name": "setLevelUpFee",
      "outputs": [],
      "stateMutability": "nonpayable",
      "type": "function"
    },
    {
      "inputs": [
        {
          "internalType": "bytes4",
          "name": "interfaceId",
          "type": "bytes4"
        }
      ],
      "name": "supportsInterface",
      "outputs": [
        {
          "internalType": "bool",
          "name": "",
          "type": "bool"
        }
      ],
      "stateMutability": "view",
      "type": "function",
      "constant": true
    },
    {
      "inputs": [],
      "name": "symbol",
      "outputs": [
        {
          "internalType": "string",
          "name": "",
          "type": "string"
        }
      ],
      "stateMutability": "view",
      "type": "function",
      "constant": true
    },
    {
      "inputs": [
        {
          "internalType": "uint256",
          "name": "tokenId",
          "type": "uint256"
        }
      ],
      "name": "tokenURI",
      "outputs": [
        {
          "internalType": "string",
          "name": "",
          "type": "string"
        }
      ],
      "stateMutability": "view",
      "type": "function",
      "constant": true
    },
    {
      "inputs": [
        {
          "internalType": "address",
          "name": "from",
          "type": "address"
        },
        {
          "internalType": "address",
          "name": "to",
          "type": "address"
        },
        {
          "internalType": "uint256",
          "name": "tokenId",
          "type": "uint256"
        }
      ],
      "name": "transferFrom",
      "outputs": [],
      "stateMutability": "nonpayable",
      "type": "function"
    },
    {
      "inputs": [
        {
          "internalType": "address",
          "name": "newOwner",
          "type": "address"
        }
      ],
      "name": "transferOwnership",
      "outputs": [],
      "stateMutability": "nonpayable",
      "type": "function"
    },
    {
      "inputs": [],
      "name": "withdraw",
      "outputs": [],
      "stateMutability": "nonpayable",
      "type": "function"
    },
    {
      "inputs": [
        {
          "internalType": "uint256",
          "name": "",
          "type": "uint256"
        }
      ],
      "name": "zombies",
      "outputs": [
        {
          "internalType": "string",
          "name": "name",
          "type": "string"
        },
        {
          "internalType": "uint256",
          "name": "dna",
          "type": "uint256"
        },
        {
          "internalType": "uint32",
          "name": "level",
          "type": "uint32"
        },
        {
          "internalType": "uint32",
          "name": "readyTime",
          "type": "uint32"
        },
        {
          "internalType": "uint16",
          "name": "winCount",
          "type": "uint16"
        },
        {
          "internalType": "uint16",
          "name": "lossCount",
          "type": "uint16"
        }
      ],
      "stateMutability": "view",
      "type": "function",
      "constant": true
    },
    {
      "inputs": [
        {
          "internalType": "uint256",
          "name": "_zombieId",
          "type": "uint256"
        },
        {
          "internalType": "uint256",
          "name": "_targetId",
          "type": "uint256"
        }
      ],
      "name": "attack",
      "outputs": [],
      "stateMutability": "nonpayable",
      "type": "function"
    }
  ],
  "bytecode": "0x60806040526010600755600754600a6200001a91906200037a565b6008556201518060095566038d7ea4c68000600b555f600c556046600d5534801562000044575f80fd5b50604051620041c6380380620041c683398181016040528101906200006a9190620005b0565b8282828282828282828181845f73ffffffffffffffffffffffffffffffffffffffff168173ffffffffffffffffffffffffffffffffffffffff1603620000e9575f6040517f1e4fbdf7000000000000000000000000000000000000000000000000000000008152600401620000e0919062000658565b60405180910390fd5b620000fa816200013360201b60201c565b5081600190816200010c9190620008a1565b5080600290816200011e9190620008a1565b50505050505050505050505050505062000985565b5f805f9054906101000a900473ffffffffffffffffffffffffffffffffffffffff169050815f806101000a81548173ffffffffffffffffffffffffffffffffffffffff021916908373ffffffffffffffffffffffffffffffffffffffff1602179055508173ffffffffffffffffffffffffffffffffffffffff168173ffffffffffffffffffffffffffffffffffffffff167f8be0079c531659141344cd1fd0a4f28419497f9722a3daafe3b4186f6b6457e060405160405180910390a35050565b7f4e487b71000000000000000000000000000000000000000000000000000000005f52601160045260245ffd5b5f8160011c9050919050565b5f808291508390505b60018511156200027e57808604811115620002565762000255620001f4565b5b6001851615620002665780820291505b8081029050620002768562000221565b945062000236565b94509492505050565b5f826200029857600190506200036a565b81620002a7575f90506200036a565b8160018114620002c05760028114620002cb5762000301565b60019150506200036a565b60ff841115620002e057620002df620001f4565b5b8360020a915084821115620002fa57620002f9620001f4565b5b506200036a565b5060208310610133831016604e8410600b84101617156200033b5782820a905083811115620003355762000334620001f4565b5b6200036a565b6200034a84848460016200022d565b92509050818404811115620003645762000363620001f4565b5b81810290505b9392505050565b5f819050919050565b5f620003868262000371565b9150620003938362000371565b9250620003c27fffffffffffffffffffffffffffffffffffffffffffffffffffffffffffffffff848462000287565b905092915050565b5f604051905090565b5f80fd5b5f80fd5b5f73ffffffffffffffffffffffffffffffffffffffff82169050919050565b5f6200040682620003db565b9050919050565b6200041881620003fa565b811462000423575f80fd5b50565b5f8151905062000436816200040d565b92915050565b5f80fd5b5f80fd5b5f601f19601f8301169050919050565b7f4e487b71000000000000000000000000000000000000000000000000000000005f52604160045260245ffd5b6200048c8262000444565b810181811067ffffffffffffffff82111715620004ae57620004ad62000454565b5b80604052505050565b5f620004c2620003ca565b9050620004d0828262000481565b919050565b5f67ffffffffffffffff821115620004f257620004f162000454565b5b620004fd8262000444565b9050602081019050919050565b5f5b83811015620005295780820151818401526020810190506200050c565b5f8484015250505050565b5f6200054a6200054484620004d5565b620004b7565b90508281526020810184848401111562000569576200056862000440565b5b620005768482856200050a565b509392505050565b5f82601f8301126200059557620005946200043c565b5b8151620005a784826020860162000534565b91505092915050565b5f805f60608486031215620005ca57620005c9620003d3565b5b5f620005d98682870162000426565b935050602084015167ffffffffffffffff811115620005fd57620005fc620003d7565b5b6200060b868287016200057e565b925050604084015167ffffffffffffffff8111156200062f576200062e620003d7565b5b6200063d868287016200057e565b9150509250925092565b6200065281620003fa565b82525050565b5f6020820190506200066d5f83018462000647565b92915050565b5f81519050919050565b7f4e487b71000000000000000000000000000000000000000000000000000000005f52602260045260245ffd5b5f6002820490506001821680620006c257607f821691505b602082108103620006d857620006d76200067d565b5b50919050565b5f819050815f5260205f209050919050565b5f6020601f8301049050919050565b5f82821b905092915050565b5f600883026200073c7fffffffffffffffffffffffffffffffffffffffffffffffffffffffffffffffff82620006ff565b620007488683620006ff565b95508019841693508086168417925050509392505050565b5f819050919050565b5f62000789620007836200077d8462000371565b62000760565b62000371565b9050919050565b5f819050919050565b620007a48362000769565b620007bc620007b38262000790565b8484546200070b565b825550505050565b5f90565b620007d2620007c4565b620007df81848462000799565b505050565b5b818110156200080657620007fa5f82620007c8565b600181019050620007e5565b5050565b601f82111562000855576200081f81620006de565b6200082a84620006f0565b810160208510156200083a578190505b620008526200084985620006f0565b830182620007e4565b50505b505050565b5f82821c905092915050565b5f620008775f19846008026200085a565b1980831691505092915050565b5f62000891838362000866565b9150826002028217905092915050565b620008ac8262000673565b67ffffffffffffffff811115620008c857620008c762000454565b5b620008d48254620006aa565b620008e18282856200080a565b5f60209050601f83116001811462000917575f841562000902578287015190505b6200090e858262000884565b8655506200097d565b601f1984166200092786620006de565b5f5b82811015620009505784890151825560018201915060208501945060208101905062000929565b868310156200097057848901516200096c601f89168262000866565b8355505b6001600288020188555050505b505050505050565b61383380620009935f395ff3fe608060405260043610610180575f3560e01c806370a08231116100d0578063b88d4fde11610089578063ccf670f811610063578063ccf670f81461055b578063e1fa763814610583578063e985e9c5146105ab578063f2fde38b146105e757610180565b8063b88d4fde146104cf578063c39cbef1146104f7578063c87b56dd1461051f57610180565b806370a08231146103d9578063715018a6146104155780637bff0a011461042b5780638da5cb5b1461045357806395d89b411461047d578063a22cb465146104a757610180565b806323b872dd1161013d5780634412e104116101175780634412e104146103115780634b95f8151461034d5780635faf2880146103755780636352211e1461039d57610180565b806323b872dd146102ab5780633ccfd60b146102d357806342842e0e146102e957610180565b806301ffc9a71461018457806306fdde03146101c0578063081812fc146101ea578063095ea7b3146102265780630ce90ec21461024e5780632052465e1461026a575b5f80fd5b34801561018f575f80fd5b506101aa60048036038101906101a591906126c7565b61060f565b6040516101b7919061270c565b60405180910390f35b3480156101cb575f80fd5b506101d46106f0565b6040516101e191906127af565b60405180910390f35b3480156101f5575f80fd5b50610210600480360381019061020b9190612802565b610780565b60405161021d919061286c565b60405180910390f35b348015610231575f80fd5b5061024c600480360381019061024791906128af565b61079b565b005b61026860048036038101906102639190612802565b6107b1565b005b348015610275575f80fd5b50610290600480360381019061028b9190612802565b610861565b6040516102a296959493929190612936565b60405180910390f35b3480156102b6575f80fd5b506102d160048036038101906102cc919061299c565b610969565b005b3480156102de575f80fd5b506102e7610a68565b005b3480156102f4575f80fd5b5061030f600480360381019061030a919061299c565b610ac2565b005b34801561031c575f80fd5b50610337600480360381019061033291906129ec565b610ae1565b6040516103449190612ace565b60405180910390f35b348015610358575f80fd5b50610373600480360381019061036e9190612c1a565b610bcf565b005b348015610380575f80fd5b5061039b60048036038101906103969190612c74565b610c20565b005b3480156103a8575f80fd5b506103c360048036038101906103be9190612802565b610cd6565b6040516103d0919061286c565b60405180910390f35b3480156103e4575f80fd5b506103ff60048036038101906103fa91906129ec565b610ce7565b60405161040c9190612cb2565b60405180910390f35b348015610420575f80fd5b50610429610d9d565b005b348015610436575f80fd5b50610451600480360381019061044c9190612ccb565b610db0565b005b34801561045e575f80fd5b50610467610df7565b604051610474919061286c565b60405180910390f35b348015610488575f80fd5b50610491610e1e565b60405161049e91906127af565b60405180910390f35b3480156104b2575f80fd5b506104cd60048036038101906104c89190612d3c565b610eae565b005b3480156104da575f80fd5b506104f560048036038101906104f09190612e18565b610ec4565b005b348015610502575f80fd5b5061051d60048036038101906105189190612ef5565b610ee1565b005b34801561052a575f80fd5b5061054560048036038101906105409190612802565b610fa2565b60405161055291906127af565b60405180910390f35b348015610566575f80fd5b50610581600480360381019061057c9190612802565b611008565b005b34801561058e575f80fd5b506105a960048036038101906105a49190612c74565b61101a565b005b3480156105b6575f80fd5b506105d160048036038101906105cc9190612f52565b6112db565b6040516105de919061270c565b60405180910390f35b3480156105f2575f80fd5b5061060d600480360381019061060891906129ec565b611369565b005b5f7f80ac58cd000000000000000000000000000000000000000000000000000000007bffffffffffffffffffffffffffffffffffffffffffffffffffffffff1916827bffffffffffffffffffffffffffffffffffffffffffffffffffffffff191614806106d957507f5b5e139f000000000000000000000000000000000000000000000000000000007bffffffffffffffffffffffffffffffffffffffffffffffffffffffff1916827bffffffffffffffffffffffffffffffffffffffffffffffffffffffff1916145b806106e957506106e8826113ed565b5b9050919050565b6060600180546106ff90612fbd565b80601f016020809104026020016040519081016040528092919081815260200182805461072b90612fbd565b80156107765780601f1061074d57610100808354040283529160200191610776565b820191905f5260205f20905b81548152906001019060200180831161075957829003601f168201915b5050505050905090565b5f61078a82611456565b50610794826114dc565b9050919050565b6107ad82826107a8611515565b61151c565b5050565b600b5434146107be575f80fd5b600a81815481106107d2576107d1612fed565b5b905f5260205f2090600302016002015f81819054906101000a900463ffffffff168092919061080090613047565b91906101000a81548163ffffffff021916908363ffffffff160217905550600a828154811061083257610831612fed565b5b905f5260205f2090600302016002015f6101000a81548163ffffffff021916908363ffffffff16021790555050565b600a8181548110610870575f80fd5b905f5260205f2090600302015f91509050805f01805461088f90612fbd565b80601f01602080910402602001604051908101604052809291908181526020018280546108bb90612fbd565b80156109065780601f106108dd57610100808354040283529160200191610906565b820191905f5260205f20905b8154815290600101906020018083116108e957829003601f168201915b505050505090806001015490806002015f9054906101000a900463ffffffff16908060020160049054906101000a900463ffffffff16908060020160089054906101000a900461ffff169080600201600a9054906101000a900461ffff16905086565b5f73ffffffffffffffffffffffffffffffffffffffff168273ffffffffffffffffffffffffffffffffffffffff16036109d9575f6040517f64a0ae920000000000000000000000000000000000000000000000000000000081526004016109d0919061286c565b60405180910390fd5b5f6109ec83836109e7611515565b61152e565b90508373ffffffffffffffffffffffffffffffffffffffff168173ffffffffffffffffffffffffffffffffffffffff1614610a62578382826040517f64283d7b000000000000000000000000000000000000000000000000000000008152600401610a5993929190613072565b60405180910390fd5b50505050565b610a70611739565b5f610a79610df7565b90508073ffffffffffffffffffffffffffffffffffffffff166108fc4790811502906040515f60405180830381858888f19350505050158015610abe573d5f803e3d5ffd5b5050565b610adc83838360405180602001604052805f815250610ec4565b505050565b60605f610aed83610ce7565b67ffffffffffffffff811115610b0657610b05612af6565b5b604051908082528060200260200182016040528015610b345781602001602082028036833780820191505090505b5090505f805b600a80549050811015610bc4578473ffffffffffffffffffffffffffffffffffffffff16610b6782610cd6565b73ffffffffffffffffffffffffffffffffffffffff1603610bb15780838381518110610b9657610b95612fed565b5b6020026020010181815250508180610bad906130a7565b9250505b8080610bbc906130a7565b915050610b3a565b508192505050919050565b5f610bd9826117c0565b9050610c1b83826040518060400160405280600581526020017f6b69747479000000000000000000000000000000000000000000000000000000815250611803565b505050565b60148281600a8281548110610c3857610c37612fed565b5b905f5260205f2090600302016002015f9054906101000a900463ffffffff1663ffffffff161015610c67575f80fd5b83610c718161196e565b73ffffffffffffffffffffffffffffffffffffffff163373ffffffffffffffffffffffffffffffffffffffff1614610ca7575f80fd5b83600a8681548110610cbc57610cbb612fed565b5b905f5260205f209060030201600101819055505050505050565b5f610ce082611456565b9050919050565b5f8073ffffffffffffffffffffffffffffffffffffffff168273ffffffffffffffffffffffffffffffffffffffff1603610d58575f6040517f89c62b64000000000000000000000000000000000000000000000000000000008152600401610d4f919061286c565b60405180910390fd5b60045f8373ffffffffffffffffffffffffffffffffffffffff1673ffffffffffffffffffffffffffffffffffffffff1681526020019081526020015f20549050919050565b610da5611739565b610dae5f6119a7565b565b5f610dba33610ce7565b14610dc3575f80fd5b5f610dcd826117c0565b9050606481610ddc919061311b565b81610de7919061314b565b9050610df38282611a68565b5050565b5f805f9054906101000a900473ffffffffffffffffffffffffffffffffffffffff16905090565b606060028054610e2d90612fbd565b80601f0160208091040260200160405190810160405280929190818152602001828054610e5990612fbd565b8015610ea45780601f10610e7b57610100808354040283529160200191610ea4565b820191905f5260205f20905b815481529060010190602001808311610e8757829003601f168201915b5050505050905090565b610ec0610eb9611515565b8383611bf1565b5050565b610ecf848484610969565b610edb84848484611d5a565b50505050565b60028381600a8281548110610ef957610ef8612fed565b5b905f5260205f2090600302016002015f9054906101000a900463ffffffff1663ffffffff161015610f28575f80fd5b84610f328161196e565b73ffffffffffffffffffffffffffffffffffffffff163373ffffffffffffffffffffffffffffffffffffffff1614610f68575f80fd5b8484600a8881548110610f7e57610f7d612fed565b5b905f5260205f2090600302015f019182610f99929190613325565b50505050505050565b6060610fad82611456565b505f610fb7611f0c565b90505f815111610fd55760405180602001604052805f815250611000565b80610fdf84611f22565b604051602001610ff092919061342c565b6040516020818303038152906040525b915050919050565b611010611739565b80600b8190555050565b816110248161196e565b73ffffffffffffffffffffffffffffffffffffffff163373ffffffffffffffffffffffffffffffffffffffff161461105a575f80fd5b5f600a848154811061106f5761106e612fed565b5b905f5260205f20906003020190505f600a848154811061109257611091612fed565b5b905f5260205f20906003020190505f6110ab6064611fec565b9050600d5481116112155782600201600881819054906101000a900461ffff16809291906110d89061344f565b91906101000a81548161ffff021916908361ffff1602179055508360020160086101000a81548161ffff021916908361ffff160217905550826002015f81819054906101000a900463ffffffff168092919061113390613047565b91906101000a81548163ffffffff021916908363ffffffff160217905550836002015f6101000a81548163ffffffff021916908363ffffffff16021790555081600201600a81819054906101000a900461ffff16809291906111949061344f565b91906101000a81548161ffff021916908361ffff16021790555082600201600a6101000a81548161ffff021916908361ffff1602179055506112108683600101546040518060400160405280600681526020017f7a6f6d6269650000000000000000000000000000000000000000000000000000815250611803565b6112d3565b82600201600a81819054906101000a900461ffff16809291906112379061344f565b91906101000a81548161ffff021916908361ffff16021790555083600201600a6101000a81548161ffff021916908361ffff16021790555081600201600881819054906101000a900461ffff16809291906112919061344f565b91906101000a81548161ffff021916908361ffff1602179055508260020160086101000a81548161ffff021916908361ffff1602179055506112d28361204a565b5b505050505050565b5f60065f8473ffffffffffffffffffffffffffffffffffffffff1673ffffffffffffffffffffffffffffffffffffffff1681526020019081526020015f205f8373ffffffffffffffffffffffffffffffffffffffff1673ffffffffffffffffffffffffffffffffffffffff1681526020019081526020015f205f9054906101000a900460ff16905092915050565b611371611739565b5f73ffffffffffffffffffffffffffffffffffffffff168173ffffffffffffffffffffffffffffffffffffffff16036113e1575f6040517f1e4fbdf70000000000000000000000000000000000000000000000000000000081526004016113d8919061286c565b60405180910390fd5b6113ea816119a7565b50565b5f7f01ffc9a7000000000000000000000000000000000000000000000000000000007bffffffffffffffffffffffffffffffffffffffffffffffffffffffff1916827bffffffffffffffffffffffffffffffffffffffffffffffffffffffff1916149050919050565b5f806114618361196e565b90505f73ffffffffffffffffffffffffffffffffffffffff168173ffffffffffffffffffffffffffffffffffffffff16036114d357826040517f7e2732890000000000000000000000000000000000000000000000000000000081526004016114ca9190612cb2565b60405180910390fd5b80915050919050565b5f60055f8381526020019081526020015f205f9054906101000a900473ffffffffffffffffffffffffffffffffffffffff169050919050565b5f33905090565b611529838383600161207d565b505050565b5f806115398461196e565b90505f73ffffffffffffffffffffffffffffffffffffffff168373ffffffffffffffffffffffffffffffffffffffff161461157a5761157981848661223c565b5b5f73ffffffffffffffffffffffffffffffffffffffff168173ffffffffffffffffffffffffffffffffffffffff1614611605576115b95f855f8061207d565b600160045f8373ffffffffffffffffffffffffffffffffffffffff1673ffffffffffffffffffffffffffffffffffffffff1681526020019081526020015f205f82825403925050819055505b5f73ffffffffffffffffffffffffffffffffffffffff168573ffffffffffffffffffffffffffffffffffffffff161461168457600160045f8773ffffffffffffffffffffffffffffffffffffffff1673ffffffffffffffffffffffffffffffffffffffff1681526020019081526020015f205f82825401925050819055505b8460035f8681526020019081526020015f205f6101000a81548173ffffffffffffffffffffffffffffffffffffffff021916908373ffffffffffffffffffffffffffffffffffffffff160217905550838573ffffffffffffffffffffffffffffffffffffffff168273ffffffffffffffffffffffffffffffffffffffff167fddf252ad1be2c89b69c2b068fc378daa952ba7f163c4a11628f55a4df523b3ef60405160405180910390a4809150509392505050565b611741611515565b73ffffffffffffffffffffffffffffffffffffffff1661175f610df7565b73ffffffffffffffffffffffffffffffffffffffff16146117be57611782611515565b6040517f118cdaa70000000000000000000000000000000000000000000000000000000081526004016117b5919061286c565b60405180910390fd5b565b5f80826040516020016117d39190613478565b604051602081830303815290604052805190602001205f1c9050600854816117fb919061311b565b915050919050565b8261180d8161196e565b73ffffffffffffffffffffffffffffffffffffffff163373ffffffffffffffffffffffffffffffffffffffff1614611843575f80fd5b5f600a858154811061185857611857612fed565b5b905f5260205f209060030201905061186f816122ff565b611877575f80fd5b60085484611885919061311b565b93505f600285836001015461189a919061348e565b6118a491906134c1565b90506040516020016118b59061353b565b60405160208183030381529060405280519060200120846040516020016118dc9190613478565b604051602081830303815290604052805190602001200361191e576063606482611906919061311b565b82611911919061314b565b61191b919061348e565b90505b61195d6040518060400160405280600681526020017f4e6f4e616d65000000000000000000000000000000000000000000000000000081525082611a68565b6119668261204a565b505050505050565b5f60035f8381526020019081526020015f205f9054906101000a900473ffffffffffffffffffffffffffffffffffffffff169050919050565b5f805f9054906101000a900473ffffffffffffffffffffffffffffffffffffffff169050815f806101000a81548173ffffffffffffffffffffffffffffffffffffffff021916908373ffffffffffffffffffffffffffffffffffffffff1602179055508173ffffffffffffffffffffffffffffffffffffffff168173ffffffffffffffffffffffffffffffffffffffff167f8be0079c531659141344cd1fd0a4f28419497f9722a3daafe3b4186f6b6457e060405160405180910390a35050565b600a6040518060c00160405280848152602001838152602001600163ffffffff16815260200160095442611a9c919061348e565b63ffffffff1681526020015f61ffff1681526020015f61ffff16815250908060018154018082558091505060019003905f5260205f2090600302015f909190919091505f820151815f019081611af2919061354f565b50602082015181600101556040820151816002015f6101000a81548163ffffffff021916908363ffffffff16021790555060608201518160020160046101000a81548163ffffffff021916908363ffffffff16021790555060808201518160020160086101000a81548161ffff021916908361ffff16021790555060a082015181600201600a6101000a81548161ffff021916908361ffff16021790555050505f6001600a80549050611ba5919061314b565b9050611bb13382612325565b7f88f026aacbbecc90c18411df4b1185fd8d9be2470f1962f192bf84a27d0704b7818484604051611be49392919061361e565b60405180910390a1505050565b5f73ffffffffffffffffffffffffffffffffffffffff168273ffffffffffffffffffffffffffffffffffffffff1603611c6157816040517f5b08ba18000000000000000000000000000000000000000000000000000000008152600401611c58919061286c565b60405180910390fd5b8060065f8573ffffffffffffffffffffffffffffffffffffffff1673ffffffffffffffffffffffffffffffffffffffff1681526020019081526020015f205f8473ffffffffffffffffffffffffffffffffffffffff1673ffffffffffffffffffffffffffffffffffffffff1681526020019081526020015f205f6101000a81548160ff0219169083151502179055508173ffffffffffffffffffffffffffffffffffffffff168373ffffffffffffffffffffffffffffffffffffffff167f17307eab39ab6107e8899845ad3d59bd9653f200f220920489ca2b5937696c3183604051611d4d919061270c565b60405180910390a3505050565b5f8373ffffffffffffffffffffffffffffffffffffffff163b1115611f06578273ffffffffffffffffffffffffffffffffffffffff1663150b7a02611d9d611515565b8685856040518563ffffffff1660e01b8152600401611dbf94939291906136ac565b6020604051808303815f875af1925050508015611dfa57506040513d601f19601f82011682018060405250810190611df7919061370a565b60015b611e7b573d805f8114611e28576040519150601f19603f3d011682016040523d82523d5f602084013e611e2d565b606091505b505f815103611e7357836040517f64a0ae92000000000000000000000000000000000000000000000000000000008152600401611e6a919061286c565b60405180910390fd5b805181602001fd5b63150b7a0260e01b7bffffffffffffffffffffffffffffffffffffffffffffffffffffffff1916817bffffffffffffffffffffffffffffffffffffffffffffffffffffffff191614611f0457836040517f64a0ae92000000000000000000000000000000000000000000000000000000008152600401611efb919061286c565b60405180910390fd5b505b50505050565b606060405180602001604052805f815250905090565b60605f6001611f3084612342565b0190505f8167ffffffffffffffff811115611f4e57611f4d612af6565b5b6040519080825280601f01601f191660200182016040528015611f805781602001600182028036833780820191505090505b5090505f82602001820190505b600115611fe1578080600190039150507f3031323334353637383961626364656600000000000000000000000000000000600a86061a8153600a8581611fd657611fd56130ee565b5b0494505f8503611f8d575b819350505050919050565b5f600c5f815480929190611fff906130a7565b91905055600c81905550814233600c546040516020016120219392919061379a565b604051602081830303815290604052805190602001205f1c612043919061311b565b9050919050565b60095442612058919061348e565b8160020160046101000a81548163ffffffff021916908363ffffffff16021790555050565b80806120b557505f73ffffffffffffffffffffffffffffffffffffffff168273ffffffffffffffffffffffffffffffffffffffff1614155b156121e7575f6120c484611456565b90505f73ffffffffffffffffffffffffffffffffffffffff168373ffffffffffffffffffffffffffffffffffffffff161415801561212e57508273ffffffffffffffffffffffffffffffffffffffff168173ffffffffffffffffffffffffffffffffffffffff1614155b8015612141575061213f81846112db565b155b1561218357826040517fa9fbf51f00000000000000000000000000000000000000000000000000000000815260040161217a919061286c565b60405180910390fd5b81156121e557838573ffffffffffffffffffffffffffffffffffffffff168273ffffffffffffffffffffffffffffffffffffffff167f8c5be1e5ebec7d5bd14f71427d1e84f3dd0314c0f7b2291e5b200ac8c7c3b92560405160405180910390a45b505b8360055f8581526020019081526020015f205f6101000a81548173ffffffffffffffffffffffffffffffffffffffff021916908373ffffffffffffffffffffffffffffffffffffffff16021790555050505050565b612247838383612493565b6122fa575f73ffffffffffffffffffffffffffffffffffffffff168373ffffffffffffffffffffffffffffffffffffffff16036122bb57806040517f7e2732890000000000000000000000000000000000000000000000000000000081526004016122b29190612cb2565b60405180910390fd5b81816040517f177e802f0000000000000000000000000000000000000000000000000000000081526004016122f19291906137d6565b60405180910390fd5b505050565b5f428260020160049054906101000a900463ffffffff1663ffffffff1611159050919050565b61233e828260405180602001604052805f815250612553565b5050565b5f805f90507a184f03e93ff9f4daa797ed6e38ed64bf6a1f010000000000000000831061239e577a184f03e93ff9f4daa797ed6e38ed64bf6a1f0100000000000000008381612394576123936130ee565b5b0492506040810190505b6d04ee2d6d415b85acef810000000083106123db576d04ee2d6d415b85acef810000000083816123d1576123d06130ee565b5b0492506020810190505b662386f26fc10000831061240a57662386f26fc100008381612400576123ff6130ee565b5b0492506010810190505b6305f5e1008310612433576305f5e1008381612429576124286130ee565b5b0492506008810190505b612710831061245857612710838161244e5761244d6130ee565b5b0492506004810190505b6064831061247b5760648381612471576124706130ee565b5b0492506002810190505b600a831061248a576001810190505b80915050919050565b5f8073ffffffffffffffffffffffffffffffffffffffff168373ffffffffffffffffffffffffffffffffffffffff161415801561254a57508273ffffffffffffffffffffffffffffffffffffffff168473ffffffffffffffffffffffffffffffffffffffff16148061250b575061250a84846112db565b5b8061254957508273ffffffffffffffffffffffffffffffffffffffff16612531836114dc565b73ffffffffffffffffffffffffffffffffffffffff16145b5b90509392505050565b61255d838361256e565b6125695f848484611d5a565b505050565b5f73ffffffffffffffffffffffffffffffffffffffff168273ffffffffffffffffffffffffffffffffffffffff16036125de575f6040517f64a0ae920000000000000000000000000000000000000000000000000000000081526004016125d5919061286c565b60405180910390fd5b5f6125ea83835f61152e565b90505f73ffffffffffffffffffffffffffffffffffffffff168173ffffffffffffffffffffffffffffffffffffffff161461265c575f6040517f73c6ac6e000000000000000000000000000000000000000000000000000000008152600401612653919061286c565b60405180910390fd5b505050565b5f604051905090565b5f80fd5b5f80fd5b5f7fffffffff0000000000000000000000000000000000000000000000000000000082169050919050565b6126a681612672565b81146126b0575f80fd5b50565b5f813590506126c18161269d565b92915050565b5f602082840312156126dc576126db61266a565b5b5f6126e9848285016126b3565b91505092915050565b5f8115159050919050565b612706816126f2565b82525050565b5f60208201905061271f5f8301846126fd565b92915050565b5f81519050919050565b5f82825260208201905092915050565b5f5b8381101561275c578082015181840152602081019050612741565b5f8484015250505050565b5f601f19601f8301169050919050565b5f61278182612725565b61278b818561272f565b935061279b81856020860161273f565b6127a481612767565b840191505092915050565b5f6020820190508181035f8301526127c78184612777565b905092915050565b5f819050919050565b6127e1816127cf565b81146127eb575f80fd5b50565b5f813590506127fc816127d8565b92915050565b5f602082840312156128175761281661266a565b5b5f612824848285016127ee565b91505092915050565b5f73ffffffffffffffffffffffffffffffffffffffff82169050919050565b5f6128568261282d565b9050919050565b6128668161284c565b82525050565b5f60208201905061287f5f83018461285d565b92915050565b61288e8161284c565b8114612898575f80fd5b50565b5f813590506128a981612885565b92915050565b5f80604083850312156128c5576128c461266a565b5b5f6128d28582860161289b565b92505060206128e3858286016127ee565b9150509250929050565b6128f6816127cf565b82525050565b5f63ffffffff82169050919050565b612914816128fc565b82525050565b5f61ffff82169050919050565b6129308161291a565b82525050565b5f60c0820190508181035f83015261294e8189612777565b905061295d60208301886128ed565b61296a604083018761290b565b612977606083018661290b565b6129846080830185612927565b61299160a0830184612927565b979650505050505050565b5f805f606084860312156129b3576129b261266a565b5b5f6129c08682870161289b565b93505060206129d18682870161289b565b92505060406129e2868287016127ee565b9150509250925092565b5f60208284031215612a0157612a0061266a565b5b5f612a0e8482850161289b565b91505092915050565b5f81519050919050565b5f82825260208201905092915050565b5f819050602082019050919050565b612a49816127cf565b82525050565b5f612a5a8383612a40565b60208301905092915050565b5f602082019050919050565b5f612a7c82612a17565b612a868185612a21565b9350612a9183612a31565b805f5b83811015612ac1578151612aa88882612a4f565b9750612ab383612a66565b925050600181019050612a94565b5085935050505092915050565b5f6020820190508181035f830152612ae68184612a72565b905092915050565b5f80fd5b5f80fd5b7f4e487b71000000000000000000000000000000000000000000000000000000005f52604160045260245ffd5b612b2c82612767565b810181811067ffffffffffffffff82111715612b4b57612b4a612af6565b5b80604052505050565b5f612b5d612661565b9050612b698282612b23565b919050565b5f67ffffffffffffffff821115612b8857612b87612af6565b5b612b9182612767565b9050602081019050919050565b828183375f83830152505050565b5f612bbe612bb984612b6e565b612b54565b905082815260208101848484011115612bda57612bd9612af2565b5b612be5848285612b9e565b509392505050565b5f82601f830112612c0157612c00612aee565b5b8135612c11848260208601612bac565b91505092915050565b5f8060408385031215612c3057612c2f61266a565b5b5f612c3d858286016127ee565b925050602083013567ffffffffffffffff811115612c5e57612c5d61266e565b5b612c6a85828601612bed565b9150509250929050565b5f8060408385031215612c8a57612c8961266a565b5b5f612c97858286016127ee565b9250506020612ca8858286016127ee565b9150509250929050565b5f602082019050612cc55f8301846128ed565b92915050565b5f60208284031215612ce057612cdf61266a565b5b5f82013567ffffffffffffffff811115612cfd57612cfc61266e565b5b612d0984828501612bed565b91505092915050565b612d1b816126f2565b8114612d25575f80fd5b50565b5f81359050612d3681612d12565b92915050565b5f8060408385031215612d5257612d5161266a565b5b5f612d5f8582860161289b565b9250506020612d7085828601612d28565b9150509250929050565b5f67ffffffffffffffff821115612d9457612d93612af6565b5b612d9d82612767565b9050602081019050919050565b5f612dbc612db784612d7a565b612b54565b905082815260208101848484011115612dd857612dd7612af2565b5b612de3848285612b9e565b509392505050565b5f82601f830112612dff57612dfe612aee565b5b8135612e0f848260208601612daa565b91505092915050565b5f805f8060808587031215612e3057612e2f61266a565b5b5f612e3d8782880161289b565b9450506020612e4e8782880161289b565b9350506040612e5f878288016127ee565b925050606085013567ffffffffffffffff811115612e8057612e7f61266e565b5b612e8c87828801612deb565b91505092959194509250565b5f80fd5b5f80fd5b5f8083601f840112612eb557612eb4612aee565b5b8235905067ffffffffffffffff811115612ed257612ed1612e98565b5b602083019150836001820283011115612eee57612eed612e9c565b5b9250929050565b5f805f60408486031215612f0c57612f0b61266a565b5b5f612f19868287016127ee565b935050602084013567ffffffffffffffff811115612f3a57612f3961266e565b5b612f4686828701612ea0565b92509250509250925092565b5f8060408385031215612f6857612f6761266a565b5b5f612f758582860161289b565b9250506020612f868582860161289b565b9150509250929050565b7f4e487b71000000000000000000000000000000000000000000000000000000005f52602260045260245ffd5b5f6002820490506001821680612fd457607f821691505b602082108103612fe757612fe6612f90565b5b50919050565b7f4e487b71000000000000000000000000000000000000000000000000000000005f52603260045260245ffd5b7f4e487b71000000000000000000000000000000000000000000000000000000005f52601160045260245ffd5b5f613051826128fc565b915063ffffffff82036130675761306661301a565b5b600182019050919050565b5f6060820190506130855f83018661285d565b61309260208301856128ed565b61309f604083018461285d565b949350505050565b5f6130b1826127cf565b91507fffffffffffffffffffffffffffffffffffffffffffffffffffffffffffffffff82036130e3576130e261301a565b5b600182019050919050565b7f4e487b71000000000000000000000000000000000000000000000000000000005f52601260045260245ffd5b5f613125826127cf565b9150613130836127cf565b9250826131405761313f6130ee565b5b828206905092915050565b5f613155826127cf565b9150613160836127cf565b92508282039050818111156131785761317761301a565b5b92915050565b5f82905092915050565b5f819050815f5260205f209050919050565b5f6020601f8301049050919050565b5f82821b905092915050565b5f600883026131e47fffffffffffffffffffffffffffffffffffffffffffffffffffffffffffffffff826131a9565b6131ee86836131a9565b95508019841693508086168417925050509392505050565b5f819050919050565b5f61322961322461321f846127cf565b613206565b6127cf565b9050919050565b5f819050919050565b6132428361320f565b61325661324e82613230565b8484546131b5565b825550505050565b5f90565b61326a61325e565b613275818484613239565b505050565b5b818110156132985761328d5f82613262565b60018101905061327b565b5050565b601f8211156132dd576132ae81613188565b6132b78461319a565b810160208510156132c6578190505b6132da6132d28561319a565b83018261327a565b50505b505050565b5f82821c905092915050565b5f6132fd5f19846008026132e2565b1980831691505092915050565b5f61331583836132ee565b9150826002028217905092915050565b61332f838361317e565b67ffffffffffffffff81111561334857613347612af6565b5b6133528254612fbd565b61335d82828561329c565b5f601f83116001811461338a575f8415613378578287013590505b613382858261330a565b8655506133e9565b601f19841661339886613188565b5f5b828110156133bf5784890135825560018201915060208501945060208101905061339a565b868310156133dc57848901356133d8601f8916826132ee565b8355505b6001600288020188555050505b50505050505050565b5f81905092915050565b5f61340682612725565b61341081856133f2565b935061342081856020860161273f565b80840191505092915050565b5f61343782856133fc565b915061344382846133fc565b91508190509392505050565b5f6134598261291a565b915061ffff820361346d5761346c61301a565b5b600182019050919050565b5f61348382846133fc565b915081905092915050565b5f613498826127cf565b91506134a3836127cf565b92508282019050808211156134bb576134ba61301a565b5b92915050565b5f6134cb826127cf565b91506134d6836127cf565b9250826134e6576134e56130ee565b5b828204905092915050565b7f6b697474790000000000000000000000000000000000000000000000000000005f82015250565b5f6135256005836133f2565b9150613530826134f1565b600582019050919050565b5f61354582613519565b9150819050919050565b61355882612725565b67ffffffffffffffff81111561357157613570612af6565b5b61357b8254612fbd565b61358682828561329c565b5f60209050601f8311600181146135b7575f84156135a5578287015190505b6135af858261330a565b865550613616565b601f1984166135c586613188565b5f5b828110156135ec578489015182556001820191506020850194506020810190506135c7565b868310156136095784890151613605601f8916826132ee565b8355505b6001600288020188555050505b505050505050565b5f6060820190506136315f8301866128ed565b81810360208301526136438185612777565b905061365260408301846128ed565b949350505050565b5f81519050919050565b5f82825260208201905092915050565b5f61367e8261365a565b6136888185613664565b935061369881856020860161273f565b6136a181612767565b840191505092915050565b5f6080820190506136bf5f83018761285d565b6136cc602083018661285d565b6136d960408301856128ed565b81810360608301526136eb8184613674565b905095945050505050565b5f815190506137048161269d565b92915050565b5f6020828403121561371f5761371e61266a565b5b5f61372c848285016136f6565b91505092915050565b5f819050919050565b61374f61374a826127cf565b613735565b82525050565b5f8160601b9050919050565b5f61376b82613755565b9050919050565b5f61377c82613761565b9050919050565b61379461378f8261284c565b613772565b82525050565b5f6137a5828661373e565b6020820191506137b58285613783565b6014820191506137c5828461373e565b602082019150819050949350505050565b5f6040820190506137e95f83018561285d565b6137f660208301846128ed565b939250505056fea2646970667358221220ff5639d3f4befb7f5c6123f9c44576cd2f5e08425781e67ee0f4660440ff216364736f6c63430008150033",
  "immutableReferences": {},
  "source": "// SPDX-License-Identifier: MIT\r\npragma solidity ^0.8.4;\r\n\r\nimport \"./zombieHelper.sol\";\r\n\r\ncontract ZombieAttack is ZombieHelper {\r\n  uint randNonce = 0;\r\n  uint attackVictoryProbability = 70;\r\n\r\n   constructor(address initialOwner, string memory name_, string memory symbol_) ZombieHelper(initialOwner, name_, symbol_) {\r\n  }\r\n\r\n  function randMod(uint _modulus) internal returns(uint) {\r\n    randNonce = randNonce++;\r\n    return uint(keccak256(abi.encodePacked(block.timestamp, msg.sender, randNonce))) % _modulus;\r\n  }\r\n\r\n  function attack(uint _zombieId, uint _targetId) external onlyOwnerOf(_zombieId) {\r\n    Zombie storage myZombie = zombies[_zombieId];\r\n    Zombie storage enemyZombie = zombies[_targetId];\r\n    uint rand = randMod(100);\r\n    if (rand <= attackVictoryProbability) {\r\n      myZombie.winCount = myZombie.winCount++;\r\n      myZombie.level = myZombie.level++;\r\n      enemyZombie.lossCount = enemyZombie.lossCount++;\r\n      feedAndMultiply(_zombieId, enemyZombie.dna, \"zombie\");\r\n    } else {\r\n      myZombie.lossCount = myZombie.lossCount++;\r\n      enemyZombie.winCount = enemyZombie.winCount++;\r\n      _triggerCooldown(myZombie);\r\n    }\r\n  }\r\n}",
  "sourcePath": "/home/juan-ubuntu/cryptoZombies/contracts/zombieAttack.sol",
  "compiler": {
    "name": "solc",
    "version": "0.8.21+commit.d9974bed.Emscripten.clang"
  },
  "schemaVersion": "3.4.16",
  "updatedAt": "2023-10-18T11:00:09.275Z",
  "networkType": "ethereum",
  "devdoc": {
    "errors": {
      "ERC721IncorrectOwner(address,uint256,address)": [
        {
          "details": "Indicates an error related to the ownership over a particular token. Used in transfers.",
          "params": {
            "owner": "Address of the current owner of a token.",
            "sender": "Address whose tokens are being transferred.",
            "tokenId": "Identifier number of a token."
          }
        }
      ],
      "ERC721InsufficientApproval(address,uint256)": [
        {
          "details": "Indicates a failure with the `operator`s approval. Used in transfers.",
          "params": {
            "operator": "Address that may be allowed to operate on tokens without being their owner.",
            "tokenId": "Identifier number of a token."
          }
        }
      ],
      "ERC721InvalidApprover(address)": [
        {
          "details": "Indicates a failure with the `approver` of a token to be approved. Used in approvals.",
          "params": {
            "approver": "Address initiating an approval operation."
          }
        }
      ],
      "ERC721InvalidOperator(address)": [
        {
          "details": "Indicates a failure with the `operator` to be approved. Used in approvals.",
          "params": {
            "operator": "Address that may be allowed to operate on tokens without being their owner."
          }
        }
      ],
      "ERC721InvalidOwner(address)": [
        {
          "details": "Indicates that an address can't be an owner. For example, `address(0)` is a forbidden owner in EIP-20. Used in balance queries.",
          "params": {
            "owner": "Address of the current owner of a token."
          }
        }
      ],
      "ERC721InvalidReceiver(address)": [
        {
          "details": "Indicates a failure with the token `receiver`. Used in transfers.",
          "params": {
            "receiver": "Address to which tokens are being transferred."
          }
        }
      ],
      "ERC721InvalidSender(address)": [
        {
          "details": "Indicates a failure with the token `sender`. Used in transfers.",
          "params": {
            "sender": "Address whose tokens are being transferred."
          }
        }
      ],
      "ERC721NonexistentToken(uint256)": [
        {
          "details": "Indicates a `tokenId` whose `owner` is the zero address.",
          "params": {
            "tokenId": "Identifier number of a token."
          }
        }
      ],
      "OwnableInvalidOwner(address)": [
        {
          "details": "The owner is not a valid owner account. (eg. `address(0)`)"
        }
      ],
      "OwnableUnauthorizedAccount(address)": [
        {
          "details": "The caller account is not authorized to perform an operation."
        }
      ]
    },
    "events": {
      "Approval(address,address,uint256)": {
        "details": "Emitted when `owner` enables `approved` to manage the `tokenId` token."
      },
      "ApprovalForAll(address,address,bool)": {
        "details": "Emitted when `owner` enables or disables (`approved`) `operator` to manage all of its assets."
      },
      "Transfer(address,address,uint256)": {
        "details": "Emitted when `tokenId` token is transferred from `from` to `to`."
      }
    },
    "kind": "dev",
    "methods": {
      "approve(address,uint256)": {
        "details": "See {IERC721-approve}."
      },
      "balanceOf(address)": {
        "details": "See {IERC721-balanceOf}."
      },
      "getApproved(uint256)": {
        "details": "See {IERC721-getApproved}."
      },
      "isApprovedForAll(address,address)": {
        "details": "See {IERC721-isApprovedForAll}."
      },
      "name()": {
        "details": "See {IERC721Metadata-name}."
      },
      "owner()": {
        "details": "Returns the address of the current owner."
      },
      "ownerOf(uint256)": {
        "details": "See {IERC721-ownerOf}."
      },
      "renounceOwnership()": {
        "details": "Leaves the contract without owner. It will not be possible to call `onlyOwner` functions. Can only be called by the current owner. NOTE: Renouncing ownership will leave the contract without an owner, thereby disabling any functionality that is only available to the owner."
      },
      "safeTransferFrom(address,address,uint256)": {
        "details": "See {IERC721-safeTransferFrom}."
      },
      "safeTransferFrom(address,address,uint256,bytes)": {
        "details": "See {IERC721-safeTransferFrom}."
      },
      "setApprovalForAll(address,bool)": {
        "details": "See {IERC721-setApprovalForAll}."
      },
      "supportsInterface(bytes4)": {
        "details": "See {IERC165-supportsInterface}."
      },
      "symbol()": {
        "details": "See {IERC721Metadata-symbol}."
      },
      "tokenURI(uint256)": {
        "details": "See {IERC721Metadata-tokenURI}."
      },
      "transferFrom(address,address,uint256)": {
        "details": "See {IERC721-transferFrom}."
      },
      "transferOwnership(address)": {
        "details": "Transfers ownership of the contract to a new account (`newOwner`). Can only be called by the current owner."
      }
    },
    "version": 1
  },
  "userdoc": {
    "kind": "user",
    "methods": {},
    "version": 1
  }
}